{
  "contractName": "RocketTokenERC721",
  "abi": [
    {
      "inputs": [],
      "stateMutability": "nonpayable",
      "type": "constructor"
    },
    {
      "anonymous": false,
      "inputs": [
        {
          "indexed": true,
          "internalType": "address",
          "name": "owner",
          "type": "address"
        },
        {
          "indexed": true,
          "internalType": "address",
          "name": "approved",
          "type": "address"
        },
        {
          "indexed": true,
          "internalType": "uint256",
          "name": "tokenId",
          "type": "uint256"
        }
      ],
      "name": "Approval",
      "type": "event"
    },
    {
      "anonymous": false,
      "inputs": [
        {
          "indexed": true,
          "internalType": "address",
          "name": "owner",
          "type": "address"
        },
        {
          "indexed": true,
          "internalType": "address",
          "name": "operator",
          "type": "address"
        },
        {
          "indexed": false,
          "internalType": "bool",
          "name": "approved",
          "type": "bool"
        }
      ],
      "name": "ApprovalForAll",
      "type": "event"
    },
    {
      "anonymous": false,
      "inputs": [
        {
          "indexed": true,
          "internalType": "address",
          "name": "previousOwner",
          "type": "address"
        },
        {
          "indexed": true,
          "internalType": "address",
          "name": "newOwner",
          "type": "address"
        }
      ],
      "name": "OwnershipTransferred",
      "type": "event"
    },
    {
      "anonymous": false,
      "inputs": [
        {
          "indexed": false,
          "internalType": "address",
          "name": "account",
          "type": "address"
        }
      ],
      "name": "Paused",
      "type": "event"
    },
    {
      "anonymous": false,
      "inputs": [
        {
          "indexed": true,
          "internalType": "address",
          "name": "from",
          "type": "address"
        },
        {
          "indexed": true,
          "internalType": "address",
          "name": "to",
          "type": "address"
        },
        {
          "indexed": true,
          "internalType": "uint256",
          "name": "tokenId",
          "type": "uint256"
        }
      ],
      "name": "Transfer",
      "type": "event"
    },
    {
      "anonymous": false,
      "inputs": [
        {
          "indexed": false,
          "internalType": "address",
          "name": "account",
          "type": "address"
        }
      ],
      "name": "Unpaused",
      "type": "event"
    },
    {
      "inputs": [
        {
          "internalType": "address",
          "name": "to",
          "type": "address"
        },
        {
          "internalType": "uint256",
          "name": "tokenId",
          "type": "uint256"
        }
      ],
      "name": "approve",
      "outputs": [],
      "stateMutability": "nonpayable",
      "type": "function"
    },
    {
      "inputs": [
        {
          "internalType": "address",
          "name": "owner",
          "type": "address"
        }
      ],
      "name": "balanceOf",
      "outputs": [
        {
          "internalType": "uint256",
          "name": "",
          "type": "uint256"
        }
      ],
      "stateMutability": "view",
      "type": "function"
    },
    {
      "inputs": [],
      "name": "balanceReceived",
      "outputs": [
        {
          "internalType": "uint256",
          "name": "",
          "type": "uint256"
        }
      ],
      "stateMutability": "view",
      "type": "function"
    },
    {
      "inputs": [
        {
          "internalType": "uint256",
          "name": "tokenId",
          "type": "uint256"
        }
      ],
      "name": "burn",
      "outputs": [],
      "stateMutability": "nonpayable",
      "type": "function"
    },
    {
      "inputs": [
        {
          "internalType": "uint256",
          "name": "tokenId",
          "type": "uint256"
        }
      ],
      "name": "getApproved",
      "outputs": [
        {
          "internalType": "address",
          "name": "",
          "type": "address"
        }
      ],
      "stateMutability": "view",
      "type": "function"
    },
    {
      "inputs": [
        {
          "internalType": "address",
          "name": "",
          "type": "address"
        }
      ],
      "name": "hasReceivedFreeNFT",
      "outputs": [
        {
          "internalType": "bool",
          "name": "",
          "type": "bool"
        }
      ],
      "stateMutability": "view",
      "type": "function"
    },
    {
      "inputs": [
        {
          "internalType": "address",
          "name": "owner",
          "type": "address"
        },
        {
          "internalType": "address",
          "name": "operator",
          "type": "address"
        }
      ],
      "name": "isApprovedForAll",
      "outputs": [
        {
          "internalType": "bool",
          "name": "",
          "type": "bool"
        }
      ],
      "stateMutability": "view",
      "type": "function"
    },
    {
      "inputs": [],
      "name": "name",
      "outputs": [
        {
          "internalType": "string",
          "name": "",
          "type": "string"
        }
      ],
      "stateMutability": "view",
      "type": "function"
    },
    {
      "inputs": [],
      "name": "owner",
      "outputs": [
        {
          "internalType": "address",
          "name": "",
          "type": "address"
        }
      ],
      "stateMutability": "view",
      "type": "function"
    },
    {
      "inputs": [
        {
          "internalType": "uint256",
          "name": "tokenId",
          "type": "uint256"
        }
      ],
      "name": "ownerOf",
      "outputs": [
        {
          "internalType": "address",
          "name": "",
          "type": "address"
        }
      ],
      "stateMutability": "view",
      "type": "function"
    },
    {
      "inputs": [],
      "name": "paused",
      "outputs": [
        {
          "internalType": "bool",
          "name": "",
          "type": "bool"
        }
      ],
      "stateMutability": "view",
      "type": "function"
    },
    {
      "inputs": [],
      "name": "renounceOwnership",
      "outputs": [],
      "stateMutability": "nonpayable",
      "type": "function"
    },
    {
      "inputs": [
        {
          "internalType": "address",
          "name": "from",
          "type": "address"
        },
        {
          "internalType": "address",
          "name": "to",
          "type": "address"
        },
        {
          "internalType": "uint256",
          "name": "tokenId",
          "type": "uint256"
        }
      ],
      "name": "safeTransferFrom",
      "outputs": [],
      "stateMutability": "nonpayable",
      "type": "function"
    },
    {
      "inputs": [
        {
          "internalType": "address",
          "name": "from",
          "type": "address"
        },
        {
          "internalType": "address",
          "name": "to",
          "type": "address"
        },
        {
          "internalType": "uint256",
          "name": "tokenId",
          "type": "uint256"
        },
        {
          "internalType": "bytes",
          "name": "_data",
          "type": "bytes"
        }
      ],
      "name": "safeTransferFrom",
      "outputs": [],
      "stateMutability": "nonpayable",
      "type": "function"
    },
    {
      "inputs": [
        {
          "internalType": "address",
          "name": "operator",
          "type": "address"
        },
        {
          "internalType": "bool",
          "name": "approved",
          "type": "bool"
        }
      ],
      "name": "setApprovalForAll",
      "outputs": [],
      "stateMutability": "nonpayable",
      "type": "function"
    },
    {
      "inputs": [],
      "name": "symbol",
      "outputs": [
        {
          "internalType": "string",
          "name": "",
          "type": "string"
        }
      ],
      "stateMutability": "view",
      "type": "function"
    },
    {
      "inputs": [
        {
          "internalType": "uint256",
          "name": "index",
          "type": "uint256"
        }
      ],
      "name": "tokenByIndex",
      "outputs": [
        {
          "internalType": "uint256",
          "name": "",
          "type": "uint256"
        }
      ],
      "stateMutability": "view",
      "type": "function"
    },
    {
      "inputs": [
        {
          "internalType": "address",
          "name": "owner",
          "type": "address"
        },
        {
          "internalType": "uint256",
          "name": "index",
          "type": "uint256"
        }
      ],
      "name": "tokenOfOwnerByIndex",
      "outputs": [
        {
          "internalType": "uint256",
          "name": "",
          "type": "uint256"
        }
      ],
      "stateMutability": "view",
      "type": "function"
    },
    {
      "inputs": [],
      "name": "totalSupply",
      "outputs": [
        {
          "internalType": "uint256",
          "name": "",
          "type": "uint256"
        }
      ],
      "stateMutability": "view",
      "type": "function"
    },
    {
      "inputs": [
        {
          "internalType": "address",
          "name": "from",
          "type": "address"
        },
        {
          "internalType": "address",
          "name": "to",
          "type": "address"
        },
        {
          "internalType": "uint256",
          "name": "tokenId",
          "type": "uint256"
        }
      ],
      "name": "transferFrom",
      "outputs": [],
      "stateMutability": "nonpayable",
      "type": "function"
    },
    {
      "inputs": [
        {
          "internalType": "address",
          "name": "newOwner",
          "type": "address"
        }
      ],
      "name": "transferOwnership",
      "outputs": [],
      "stateMutability": "nonpayable",
      "type": "function"
    },
    {
      "inputs": [],
      "name": "pause",
      "outputs": [],
      "stateMutability": "nonpayable",
      "type": "function"
    },
    {
      "inputs": [],
      "name": "unpause",
      "outputs": [],
      "stateMutability": "nonpayable",
      "type": "function"
    },
    {
      "inputs": [
        {
          "internalType": "address",
          "name": "to",
          "type": "address"
        },
        {
          "internalType": "string",
          "name": "uri",
          "type": "string"
        }
      ],
      "name": "safeMint",
      "outputs": [],
      "stateMutability": "nonpayable",
      "type": "function"
    },
    {
      "inputs": [
        {
          "internalType": "uint256",
          "name": "tokenId",
          "type": "uint256"
        }
      ],
      "name": "tokenURI",
      "outputs": [
        {
          "internalType": "string",
          "name": "",
          "type": "string"
        }
      ],
      "stateMutability": "view",
      "type": "function"
    },
    {
      "inputs": [
        {
          "internalType": "bytes4",
          "name": "interfaceId",
          "type": "bytes4"
        }
      ],
      "name": "supportsInterface",
      "outputs": [
        {
          "internalType": "bool",
          "name": "",
          "type": "bool"
        }
      ],
      "stateMutability": "view",
      "type": "function"
    },
    {
      "inputs": [],
      "name": "receiveMoney",
      "outputs": [],
      "stateMutability": "payable",
      "type": "function"
    },
    {
      "inputs": [],
      "name": "getBalance",
      "outputs": [
        {
          "internalType": "uint256",
          "name": "",
          "type": "uint256"
        }
      ],
      "stateMutability": "view",
      "type": "function"
    },
    {
      "inputs": [],
      "name": "withdrawMoney",
      "outputs": [],
      "stateMutability": "nonpayable",
      "type": "function"
    },
    {
      "inputs": [],
      "name": "freeEligible",
      "outputs": [],
      "stateMutability": "nonpayable",
      "type": "function"
    },
    {
      "inputs": [],
      "name": "twentyFourHoursPassed",
      "outputs": [
        {
          "internalType": "bool",
          "name": "",
          "type": "bool"
        }
      ],
      "stateMutability": "nonpayable",
      "type": "function"
    },
    {
      "inputs": [
        {
          "internalType": "address",
          "name": "receiver",
          "type": "address"
        }
      ],
      "name": "giftToken",
      "outputs": [
        {
          "internalType": "bool",
          "name": "",
          "type": "bool"
        }
      ],
      "stateMutability": "view",
      "type": "function"
    },
    {
      "inputs": [
        {
          "internalType": "address",
          "name": "receiver",
          "type": "address"
        }
      ],
      "name": "faucet",
      "outputs": [],
      "stateMutability": "nonpayable",
      "type": "function"
    }
  ],
  "bytecode": "0x60806040523480156200001157600080fd5b506040518060400160405280600b81526020017f526f636b6574546f6b656e0000000000000000000000000000000000000000008152506040518060400160405280600681526020017f524f434b45540000000000000000000000000000000000000000000000000000815250816000908051906020019062000096929190620001c8565b508060019080519060200190620000af929190620001c8565b5050506000600b60006101000a81548160ff021916908315150217905550620000ed620000e1620000fa60201b60201c565b6200010260201b60201c565b42600f81905550620002dc565b600033905090565b6000600b60019054906101000a900473ffffffffffffffffffffffffffffffffffffffff16905081600b60016101000a81548173ffffffffffffffffffffffffffffffffffffffff021916908373ffffffffffffffffffffffffffffffffffffffff1602179055508173ffffffffffffffffffffffffffffffffffffffff168173ffffffffffffffffffffffffffffffffffffffff167f8be0079c531659141344cd1fd0a4f28419497f9722a3daafe3b4186f6b6457e060405160405180910390a35050565b828054620001d690620002a7565b90600052602060002090601f016020900481019282620001fa576000855562000246565b82601f106200021557805160ff191683800117855562000246565b8280016001018555821562000246579182015b828111156200024557825182559160200191906001019062000228565b5b50905062000255919062000259565b5090565b5b80821115620002745760008160009055506001016200025a565b5090565b7f4e487b7100000000000000000000000000000000000000000000000000000000600052602260045260246000fd5b60006002820490506001821680620002c057607f821691505b602082108103620002d657620002d562000278565b5b50919050565b61454a80620002ec6000396000f3fe6080604052600436106101ee5760003560e01c80636352211e1161010d578063ac446002116100a0578063d204c45e1161006f578063d204c45e146106a4578063e2285cce146106cd578063e45deda71461070a578063e985e9c514610735578063f2fde38b14610772576101ee565b8063ac446002146105fe578063b86d1d6314610615578063b88d4fde1461063e578063c87b56dd14610667576101ee565b80638456cb59116100dc5780638456cb59146105685780638da5cb5b1461057f57806395d89b41146105aa578063a22cb465146105d5576101ee565b80636352211e146104cd5780636d26ec181461050a57806370a0823114610514578063715018a614610551576101ee565b80632f745c59116101855780634e2f567c116101545780634e2f567c146104235780634f6ccce71461043a57806352a90c42146104775780635c975abb146104a2576101ee565b80632f745c591461037d5780633f4ba83a146103ba57806342842e0e146103d157806342966c68146103fa576101ee565b80630c751cdb116101c15780630c751cdb146102c157806312065fe0146102fe57806318160ddd1461032957806323b872dd14610354576101ee565b806301ffc9a7146101f357806306fdde0314610230578063081812fc1461025b578063095ea7b314610298575b600080fd5b3480156101ff57600080fd5b5061021a60048036038101906102159190612ec4565b61079b565b6040516102279190612f0c565b60405180910390f35b34801561023c57600080fd5b506102456107ad565b6040516102529190612fc0565b60405180910390f35b34801561026757600080fd5b50610282600480360381019061027d9190613018565b61083f565b60405161028f9190613086565b60405180910390f35b3480156102a457600080fd5b506102bf60048036038101906102ba91906130cd565b6108c4565b005b3480156102cd57600080fd5b506102e860048036038101906102e3919061310d565b6109db565b6040516102f59190612f0c565b60405180910390f35b34801561030a57600080fd5b506103136109fb565b6040516103209190613149565b60405180910390f35b34801561033557600080fd5b5061033e610a03565b60405161034b9190613149565b60405180910390f35b34801561036057600080fd5b5061037b60048036038101906103769190613164565b610a10565b005b34801561038957600080fd5b506103a4600480360381019061039f91906130cd565b610a70565b6040516103b19190613149565b60405180910390f35b3480156103c657600080fd5b506103cf610b15565b005b3480156103dd57600080fd5b506103f860048036038101906103f39190613164565b610b9b565b005b34801561040657600080fd5b50610421600480360381019061041c9190613018565b610bbb565b005b34801561042f57600080fd5b50610438610c17565b005b34801561044657600080fd5b50610461600480360381019061045c9190613018565b610dc7565b60405161046e9190613149565b60405180910390f35b34801561048357600080fd5b5061048c610e38565b6040516104999190613149565b60405180910390f35b3480156104ae57600080fd5b506104b7610e3e565b6040516104c49190612f0c565b60405180910390f35b3480156104d957600080fd5b506104f460048036038101906104ef9190613018565b610e55565b6040516105019190613086565b60405180910390f35b610512610f06565b005b34801561052057600080fd5b5061053b6004803603810190610536919061310d565b610f21565b6040516105489190613149565b60405180910390f35b34801561055d57600080fd5b50610566610fd8565b005b34801561057457600080fd5b5061057d611060565b005b34801561058b57600080fd5b506105946110e6565b6040516105a19190613086565b60405180910390f35b3480156105b657600080fd5b506105bf611110565b6040516105cc9190612fc0565b60405180910390f35b3480156105e157600080fd5b506105fc60048036038101906105f791906131e3565b6111a2565b005b34801561060a57600080fd5b506106136111b8565b005b34801561062157600080fd5b5061063c6004803603810190610637919061310d565b61120e565b005b34801561064a57600080fd5b5061066560048036038101906106609190613358565b611211565b005b34801561067357600080fd5b5061068e60048036038101906106899190613018565b611273565b60405161069b9190612fc0565b60405180910390f35b3480156106b057600080fd5b506106cb60048036038101906106c6919061347c565b611285565b005b3480156106d957600080fd5b506106f460048036038101906106ef919061310d565b611332565b6040516107019190612f0c565b60405180910390f35b34801561071657600080fd5b5061071f611339565b60405161072c9190612f0c565b60405180910390f35b34801561074157600080fd5b5061075c600480360381019061075791906134d8565b611354565b6040516107699190612f0c565b60405180910390f35b34801561077e57600080fd5b506107996004803603810190610794919061310d565b6113e8565b005b60006107a6826114df565b9050919050565b6060600080546107bc90613547565b80601f01602080910402602001604051908101604052809291908181526020018280546107e890613547565b80156108355780601f1061080a57610100808354040283529160200191610835565b820191906000526020600020905b81548152906001019060200180831161081857829003601f168201915b5050505050905090565b600061084a82611559565b610889576040517f08c379a0000000000000000000000000000000000000000000000000000000008152600401610880906135ea565b60405180910390fd5b6004600083815260200190815260200160002060009054906101000a900473ffffffffffffffffffffffffffffffffffffffff169050919050565b60006108cf82610e55565b90508073ffffffffffffffffffffffffffffffffffffffff168373ffffffffffffffffffffffffffffffffffffffff160361093f576040517f08c379a00000000000000000000000000000000000000000000000000000000081526004016109369061367c565b60405180910390fd5b8073ffffffffffffffffffffffffffffffffffffffff1661095e6115c5565b73ffffffffffffffffffffffffffffffffffffffff16148061098d575061098c816109876115c5565b611354565b5b6109cc576040517f08c379a00000000000000000000000000000000000000000000000000000000081526004016109c39061370e565b60405180910390fd5b6109d683836115cd565b505050565b60106020528060005260406000206000915054906101000a900460ff1681565b600047905090565b6000600880549050905090565b610a21610a1b6115c5565b82611686565b610a60576040517f08c379a0000000000000000000000000000000000000000000000000000000008152600401610a57906137a0565b60405180910390fd5b610a6b838383611764565b505050565b6000610a7b83610f21565b8210610abc576040517f08c379a0000000000000000000000000000000000000000000000000000000008152600401610ab390613832565b60405180910390fd5b600660008473ffffffffffffffffffffffffffffffffffffffff1673ffffffffffffffffffffffffffffffffffffffff168152602001908152602001600020600083815260200190815260200160002054905092915050565b610b1d6115c5565b73ffffffffffffffffffffffffffffffffffffffff16610b3b6110e6565b73ffffffffffffffffffffffffffffffffffffffff1614610b91576040517f08c379a0000000000000000000000000000000000000000000000000000000008152600401610b889061389e565b60405180910390fd5b610b996119ca565b565b610bb683838360405180602001604052806000815250611211565b505050565b610bcc610bc66115c5565b82611686565b610c0b576040517f08c379a0000000000000000000000000000000000000000000000000000000008152600401610c0290613930565b60405180910390fd5b610c1481611a6c565b50565b610c1f6115c5565b73ffffffffffffffffffffffffffffffffffffffff16610c3d6110e6565b73ffffffffffffffffffffffffffffffffffffffff1614610c93576040517f08c379a0000000000000000000000000000000000000000000000000000000008152600401610c8a9061389e565b60405180910390fd5b604051806080016040528073d1679bb3543e8ad195ff9f3ac3436039ba38923773ffffffffffffffffffffffffffffffffffffffff1673ffffffffffffffffffffffffffffffffffffffff16815260200173f4f555ca1586c40067cd215578f123d30813de0273ffffffffffffffffffffffffffffffffffffffff1673ffffffffffffffffffffffffffffffffffffffff168152602001735563d3361408d41bf172e3720c30b0e35f19a44473ffffffffffffffffffffffffffffffffffffffff1673ffffffffffffffffffffffffffffffffffffffff168152602001736ffdaf0795d208c11c583c88cb5dbd2a8955a59e73ffffffffffffffffffffffffffffffffffffffff1673ffffffffffffffffffffffffffffffffffffffff16815250600d906004610dc4929190612ceb565b50565b6000610dd1610a03565b8210610e12576040517f08c379a0000000000000000000000000000000000000000000000000000000008152600401610e09906139c2565b60405180910390fd5b60088281548110610e2657610e256139e2565b5b90600052602060002001549050919050565b600e5481565b6000600b60009054906101000a900460ff16905090565b6000806002600084815260200190815260200160002060009054906101000a900473ffffffffffffffffffffffffffffffffffffffff169050600073ffffffffffffffffffffffffffffffffffffffff168173ffffffffffffffffffffffffffffffffffffffff1603610efd576040517f08c379a0000000000000000000000000000000000000000000000000000000008152600401610ef490613a83565b60405180910390fd5b80915050919050565b34600e6000828254610f189190613ad2565b92505081905550565b60008073ffffffffffffffffffffffffffffffffffffffff168273ffffffffffffffffffffffffffffffffffffffff1603610f91576040517f08c379a0000000000000000000000000000000000000000000000000000000008152600401610f8890613b9a565b60405180910390fd5b600360008373ffffffffffffffffffffffffffffffffffffffff1673ffffffffffffffffffffffffffffffffffffffff168152602001908152602001600020549050919050565b610fe06115c5565b73ffffffffffffffffffffffffffffffffffffffff16610ffe6110e6565b73ffffffffffffffffffffffffffffffffffffffff1614611054576040517f08c379a000000000000000000000000000000000000000000000000000000000815260040161104b9061389e565b60405180910390fd5b61105e6000611a78565b565b6110686115c5565b73ffffffffffffffffffffffffffffffffffffffff166110866110e6565b73ffffffffffffffffffffffffffffffffffffffff16146110dc576040517f08c379a00000000000000000000000000000000000000000000000000000000081526004016110d39061389e565b60405180910390fd5b6110e4611b3e565b565b6000600b60019054906101000a900473ffffffffffffffffffffffffffffffffffffffff16905090565b60606001805461111f90613547565b80601f016020809104026020016040519081016040528092919081815260200182805461114b90613547565b80156111985780601f1061116d57610100808354040283529160200191611198565b820191906000526020600020905b81548152906001019060200180831161117b57829003601f168201915b5050505050905090565b6111b46111ad6115c5565b8383611be1565b5050565b60003390508073ffffffffffffffffffffffffffffffffffffffff166108fc6111df6109fb565b9081150290604051600060405180830381858888f1935050505015801561120a573d6000803e3d6000fd5b5050565b50565b61122261121c6115c5565b83611686565b611261576040517f08c379a0000000000000000000000000000000000000000000000000000000008152600401611258906137a0565b60405180910390fd5b61126d84848484611d4d565b50505050565b606061127e82611da9565b9050919050565b61128d6115c5565b73ffffffffffffffffffffffffffffffffffffffff166112ab6110e6565b73ffffffffffffffffffffffffffffffffffffffff1614611301576040517f08c379a00000000000000000000000000000000000000000000000000000000081526004016112f89061389e565b60405180910390fd5b600061130d600c611efa565b9050611319600c611f08565b6113238382611f1e565b61132d8183611f3c565b505050565b6000919050565b600062015180600f5461134c9190613ad2565b421015905090565b6000600560008473ffffffffffffffffffffffffffffffffffffffff1673ffffffffffffffffffffffffffffffffffffffff16815260200190815260200160002060008373ffffffffffffffffffffffffffffffffffffffff1673ffffffffffffffffffffffffffffffffffffffff16815260200190815260200160002060009054906101000a900460ff16905092915050565b6113f06115c5565b73ffffffffffffffffffffffffffffffffffffffff1661140e6110e6565b73ffffffffffffffffffffffffffffffffffffffff1614611464576040517f08c379a000000000000000000000000000000000000000000000000000000000815260040161145b9061389e565b60405180910390fd5b600073ffffffffffffffffffffffffffffffffffffffff168173ffffffffffffffffffffffffffffffffffffffff16036114d3576040517f08c379a00000000000000000000000000000000000000000000000000000000081526004016114ca90613c2c565b60405180910390fd5b6114dc81611a78565b50565b60007f780e9d63000000000000000000000000000000000000000000000000000000007bffffffffffffffffffffffffffffffffffffffffffffffffffffffff1916827bffffffffffffffffffffffffffffffffffffffffffffffffffffffff19161480611552575061155182611fb0565b5b9050919050565b60008073ffffffffffffffffffffffffffffffffffffffff166002600084815260200190815260200160002060009054906101000a900473ffffffffffffffffffffffffffffffffffffffff1673ffffffffffffffffffffffffffffffffffffffff1614159050919050565b600033905090565b816004600083815260200190815260200160002060006101000a81548173ffffffffffffffffffffffffffffffffffffffff021916908373ffffffffffffffffffffffffffffffffffffffff160217905550808273ffffffffffffffffffffffffffffffffffffffff1661164083610e55565b73ffffffffffffffffffffffffffffffffffffffff167f8c5be1e5ebec7d5bd14f71427d1e84f3dd0314c0f7b2291e5b200ac8c7c3b92560405160405180910390a45050565b600061169182611559565b6116d0576040517f08c379a00000000000000000000000000000000000000000000000000000000081526004016116c790613cbe565b60405180910390fd5b60006116db83610e55565b90508073ffffffffffffffffffffffffffffffffffffffff168473ffffffffffffffffffffffffffffffffffffffff16148061171d575061171c8185611354565b5b8061175b57508373ffffffffffffffffffffffffffffffffffffffff166117438461083f565b73ffffffffffffffffffffffffffffffffffffffff16145b91505092915050565b8273ffffffffffffffffffffffffffffffffffffffff1661178482610e55565b73ffffffffffffffffffffffffffffffffffffffff16146117da576040517f08c379a00000000000000000000000000000000000000000000000000000000081526004016117d190613d50565b60405180910390fd5b600073ffffffffffffffffffffffffffffffffffffffff168273ffffffffffffffffffffffffffffffffffffffff1603611849576040517f08c379a000000000000000000000000000000000000000000000000000000000815260040161184090613de2565b60405180910390fd5b611854838383612092565b61185f6000826115cd565b6001600360008573ffffffffffffffffffffffffffffffffffffffff1673ffffffffffffffffffffffffffffffffffffffff16815260200190815260200160002060008282546118af9190613e02565b925050819055506001600360008473ffffffffffffffffffffffffffffffffffffffff1673ffffffffffffffffffffffffffffffffffffffff16815260200190815260200160002060008282546119069190613ad2565b92505081905550816002600083815260200190815260200160002060006101000a81548173ffffffffffffffffffffffffffffffffffffffff021916908373ffffffffffffffffffffffffffffffffffffffff160217905550808273ffffffffffffffffffffffffffffffffffffffff168473ffffffffffffffffffffffffffffffffffffffff167fddf252ad1be2c89b69c2b068fc378daa952ba7f163c4a11628f55a4df523b3ef60405160405180910390a46119c58383836120ea565b505050565b6119d2610e3e565b611a11576040517f08c379a0000000000000000000000000000000000000000000000000000000008152600401611a0890613e82565b60405180910390fd5b6000600b60006101000a81548160ff0219169083151502179055507f5db9ee0a495bf2e6ff9c91a7834c1ba4fdd244a5e8aa4e537bd38aeae4b073aa611a556115c5565b604051611a629190613086565b60405180910390a1565b611a75816120ef565b50565b6000600b60019054906101000a900473ffffffffffffffffffffffffffffffffffffffff16905081600b60016101000a81548173ffffffffffffffffffffffffffffffffffffffff021916908373ffffffffffffffffffffffffffffffffffffffff1602179055508173ffffffffffffffffffffffffffffffffffffffff168173ffffffffffffffffffffffffffffffffffffffff167f8be0079c531659141344cd1fd0a4f28419497f9722a3daafe3b4186f6b6457e060405160405180910390a35050565b611b46610e3e565b15611b86576040517f08c379a0000000000000000000000000000000000000000000000000000000008152600401611b7d90613eee565b60405180910390fd5b6001600b60006101000a81548160ff0219169083151502179055507f62e78cea01bee320cd4e420270b5ea74000d11b0c9f74754ebdbfc544b05a258611bca6115c5565b604051611bd79190613086565b60405180910390a1565b8173ffffffffffffffffffffffffffffffffffffffff168373ffffffffffffffffffffffffffffffffffffffff1603611c4f576040517f08c379a0000000000000000000000000000000000000000000000000000000008152600401611c4690613f5a565b60405180910390fd5b80600560008573ffffffffffffffffffffffffffffffffffffffff1673ffffffffffffffffffffffffffffffffffffffff16815260200190815260200160002060008473ffffffffffffffffffffffffffffffffffffffff1673ffffffffffffffffffffffffffffffffffffffff16815260200190815260200160002060006101000a81548160ff0219169083151502179055508173ffffffffffffffffffffffffffffffffffffffff168373ffffffffffffffffffffffffffffffffffffffff167f17307eab39ab6107e8899845ad3d59bd9653f200f220920489ca2b5937696c3183604051611d409190612f0c565b60405180910390a3505050565b611d58848484611764565b611d6484848484612142565b611da3576040517f08c379a0000000000000000000000000000000000000000000000000000000008152600401611d9a90613fec565b60405180910390fd5b50505050565b6060611db482611559565b611df3576040517f08c379a0000000000000000000000000000000000000000000000000000000008152600401611dea9061407e565b60405180910390fd5b6000600a60008481526020019081526020016000208054611e1390613547565b80601f0160208091040260200160405190810160405280929190818152602001828054611e3f90613547565b8015611e8c5780601f10611e6157610100808354040283529160200191611e8c565b820191906000526020600020905b815481529060010190602001808311611e6f57829003601f168201915b505050505090506000611e9d6122c9565b90506000815103611eb2578192505050611ef5565b600082511115611ee7578082604051602001611ecf9291906140da565b60405160208183030381529060405292505050611ef5565b611ef0846122e9565b925050505b919050565b600081600001549050919050565b6001816000016000828254019250508190555050565b611f38828260405180602001604052806000815250612390565b5050565b611f4582611559565b611f84576040517f08c379a0000000000000000000000000000000000000000000000000000000008152600401611f7b90614170565b60405180910390fd5b80600a60008481526020019081526020016000209080519060200190611fab929190612d75565b505050565b60007f80ac58cd000000000000000000000000000000000000000000000000000000007bffffffffffffffffffffffffffffffffffffffffffffffffffffffff1916827bffffffffffffffffffffffffffffffffffffffffffffffffffffffff1916148061207b57507f5b5e139f000000000000000000000000000000000000000000000000000000007bffffffffffffffffffffffffffffffffffffffffffffffffffffffff1916827bffffffffffffffffffffffffffffffffffffffffffffffffffffffff1916145b8061208b575061208a826123eb565b5b9050919050565b61209a610e3e565b156120da576040517f08c379a00000000000000000000000000000000000000000000000000000000081526004016120d190613eee565b60405180910390fd5b6120e5838383612455565b505050565b505050565b6120f881612567565b6000600a6000838152602001908152602001600020805461211890613547565b90501461213f57600a6000828152602001908152602001600020600061213e9190612dfb565b5b50565b60006121638473ffffffffffffffffffffffffffffffffffffffff16612684565b156122bc578373ffffffffffffffffffffffffffffffffffffffff1663150b7a0261218c6115c5565b8786866040518563ffffffff1660e01b81526004016121ae94939291906141e5565b6020604051808303816000875af19250505080156121ea57506040513d601f19601f820116820180604052508101906121e79190614246565b60015b61226c573d806000811461221a576040519150601f19603f3d011682016040523d82523d6000602084013e61221f565b606091505b506000815103612264576040517f08c379a000000000000000000000000000000000000000000000000000000000815260040161225b90613fec565b60405180910390fd5b805181602001fd5b63150b7a0260e01b7bffffffffffffffffffffffffffffffffffffffffffffffffffffffff1916817bffffffffffffffffffffffffffffffffffffffffffffffffffffffff1916149150506122c1565b600190505b949350505050565b60606040518060600160405280602f81526020016144e6602f9139905090565b60606122f482611559565b612333576040517f08c379a000000000000000000000000000000000000000000000000000000000815260040161232a906142e5565b60405180910390fd5b600061233d6122c9565b9050600081511161235d5760405180602001604052806000815250612388565b80612367846126a7565b6040516020016123789291906140da565b6040516020818303038152906040525b915050919050565b61239a8383612807565b6123a76000848484612142565b6123e6576040517f08c379a00000000000000000000000000000000000000000000000000000000081526004016123dd90613fec565b60405180910390fd5b505050565b60007f01ffc9a7000000000000000000000000000000000000000000000000000000007bffffffffffffffffffffffffffffffffffffffffffffffffffffffff1916827bffffffffffffffffffffffffffffffffffffffffffffffffffffffff1916149050919050565b6124608383836129e0565b600073ffffffffffffffffffffffffffffffffffffffff168373ffffffffffffffffffffffffffffffffffffffff16036124a25761249d816129e5565b6124e1565b8173ffffffffffffffffffffffffffffffffffffffff168373ffffffffffffffffffffffffffffffffffffffff16146124e0576124df8382612a2e565b5b5b600073ffffffffffffffffffffffffffffffffffffffff168273ffffffffffffffffffffffffffffffffffffffff16036125235761251e81612b9b565b612562565b8273ffffffffffffffffffffffffffffffffffffffff168273ffffffffffffffffffffffffffffffffffffffff1614612561576125608282612c6c565b5b5b505050565b600061257282610e55565b905061258081600084612092565b61258b6000836115cd565b6001600360008373ffffffffffffffffffffffffffffffffffffffff1673ffffffffffffffffffffffffffffffffffffffff16815260200190815260200160002060008282546125db9190613e02565b925050819055506002600083815260200190815260200160002060006101000a81549073ffffffffffffffffffffffffffffffffffffffff021916905581600073ffffffffffffffffffffffffffffffffffffffff168273ffffffffffffffffffffffffffffffffffffffff167fddf252ad1be2c89b69c2b068fc378daa952ba7f163c4a11628f55a4df523b3ef60405160405180910390a4612680816000846120ea565b5050565b6000808273ffffffffffffffffffffffffffffffffffffffff163b119050919050565b6060600082036126ee576040518060400160405280600181526020017f30000000000000000000000000000000000000000000000000000000000000008152509050612802565b600082905060005b6000821461272057808061270990614305565b915050600a82612719919061437c565b91506126f6565b60008167ffffffffffffffff81111561273c5761273b61322d565b5b6040519080825280601f01601f19166020018201604052801561276e5781602001600182028036833780820191505090505b5090505b600085146127fb576001826127879190613e02565b9150600a8561279691906143ad565b60306127a29190613ad2565b60f81b8183815181106127b8576127b76139e2565b5b60200101907effffffffffffffffffffffffffffffffffffffffffffffffffffffffffffff1916908160001a905350600a856127f4919061437c565b9450612772565b8093505050505b919050565b600073ffffffffffffffffffffffffffffffffffffffff168273ffffffffffffffffffffffffffffffffffffffff1603612876576040517f08c379a000000000000000000000000000000000000000000000000000000000815260040161286d9061442a565b60405180910390fd5b61287f81611559565b156128bf576040517f08c379a00000000000000000000000000000000000000000000000000000000081526004016128b690614496565b60405180910390fd5b6128cb60008383612092565b6001600360008473ffffffffffffffffffffffffffffffffffffffff1673ffffffffffffffffffffffffffffffffffffffff168152602001908152602001600020600082825461291b9190613ad2565b92505081905550816002600083815260200190815260200160002060006101000a81548173ffffffffffffffffffffffffffffffffffffffff021916908373ffffffffffffffffffffffffffffffffffffffff160217905550808273ffffffffffffffffffffffffffffffffffffffff16600073ffffffffffffffffffffffffffffffffffffffff167fddf252ad1be2c89b69c2b068fc378daa952ba7f163c4a11628f55a4df523b3ef60405160405180910390a46129dc600083836120ea565b5050565b505050565b6008805490506009600083815260200190815260200160002081905550600881908060018154018082558091505060019003906000526020600020016000909190919091505550565b60006001612a3b84610f21565b612a459190613e02565b9050600060076000848152602001908152602001600020549050818114612b2a576000600660008673ffffffffffffffffffffffffffffffffffffffff1673ffffffffffffffffffffffffffffffffffffffff168152602001908152602001600020600084815260200190815260200160002054905080600660008773ffffffffffffffffffffffffffffffffffffffff1673ffffffffffffffffffffffffffffffffffffffff168152602001908152602001600020600084815260200190815260200160002081905550816007600083815260200190815260200160002081905550505b6007600084815260200190815260200160002060009055600660008573ffffffffffffffffffffffffffffffffffffffff1673ffffffffffffffffffffffffffffffffffffffff16815260200190815260200160002060008381526020019081526020016000206000905550505050565b60006001600880549050612baf9190613e02565b9050600060096000848152602001908152602001600020549050600060088381548110612bdf57612bde6139e2565b5b906000526020600020015490508060088381548110612c0157612c006139e2565b5b906000526020600020018190555081600960008381526020019081526020016000208190555060096000858152602001908152602001600020600090556008805480612c5057612c4f6144b6565b5b6001900381819060005260206000200160009055905550505050565b6000612c7783610f21565b905081600660008573ffffffffffffffffffffffffffffffffffffffff1673ffffffffffffffffffffffffffffffffffffffff168152602001908152602001600020600083815260200190815260200160002081905550806007600084815260200190815260200160002081905550505050565b828054828255906000526020600020908101928215612d64579160200282015b82811115612d635782518260006101000a81548173ffffffffffffffffffffffffffffffffffffffff021916908373ffffffffffffffffffffffffffffffffffffffff16021790555091602001919060010190612d0b565b5b509050612d719190612e3b565b5090565b828054612d8190613547565b90600052602060002090601f016020900481019282612da35760008555612dea565b82601f10612dbc57805160ff1916838001178555612dea565b82800160010185558215612dea579182015b82811115612de9578251825591602001919060010190612dce565b5b509050612df79190612e3b565b5090565b508054612e0790613547565b6000825580601f10612e195750612e38565b601f016020900490600052602060002090810190612e379190612e3b565b5b50565b5b80821115612e54576000816000905550600101612e3c565b5090565b6000604051905090565b600080fd5b600080fd5b60007fffffffff0000000000000000000000000000000000000000000000000000000082169050919050565b612ea181612e6c565b8114612eac57600080fd5b50565b600081359050612ebe81612e98565b92915050565b600060208284031215612eda57612ed9612e62565b5b6000612ee884828501612eaf565b91505092915050565b60008115159050919050565b612f0681612ef1565b82525050565b6000602082019050612f216000830184612efd565b92915050565b600081519050919050565b600082825260208201905092915050565b60005b83811015612f61578082015181840152602081019050612f46565b83811115612f70576000848401525b50505050565b6000601f19601f8301169050919050565b6000612f9282612f27565b612f9c8185612f32565b9350612fac818560208601612f43565b612fb581612f76565b840191505092915050565b60006020820190508181036000830152612fda8184612f87565b905092915050565b6000819050919050565b612ff581612fe2565b811461300057600080fd5b50565b60008135905061301281612fec565b92915050565b60006020828403121561302e5761302d612e62565b5b600061303c84828501613003565b91505092915050565b600073ffffffffffffffffffffffffffffffffffffffff82169050919050565b600061307082613045565b9050919050565b61308081613065565b82525050565b600060208201905061309b6000830184613077565b92915050565b6130aa81613065565b81146130b557600080fd5b50565b6000813590506130c7816130a1565b92915050565b600080604083850312156130e4576130e3612e62565b5b60006130f2858286016130b8565b925050602061310385828601613003565b9150509250929050565b60006020828403121561312357613122612e62565b5b6000613131848285016130b8565b91505092915050565b61314381612fe2565b82525050565b600060208201905061315e600083018461313a565b92915050565b60008060006060848603121561317d5761317c612e62565b5b600061318b868287016130b8565b935050602061319c868287016130b8565b92505060406131ad86828701613003565b9150509250925092565b6131c081612ef1565b81146131cb57600080fd5b50565b6000813590506131dd816131b7565b92915050565b600080604083850312156131fa576131f9612e62565b5b6000613208858286016130b8565b9250506020613219858286016131ce565b9150509250929050565b600080fd5b600080fd5b7f4e487b7100000000000000000000000000000000000000000000000000000000600052604160045260246000fd5b61326582612f76565b810181811067ffffffffffffffff821117156132845761328361322d565b5b80604052505050565b6000613297612e58565b90506132a3828261325c565b919050565b600067ffffffffffffffff8211156132c3576132c261322d565b5b6132cc82612f76565b9050602081019050919050565b82818337600083830152505050565b60006132fb6132f6846132a8565b61328d565b90508281526020810184848401111561331757613316613228565b5b6133228482856132d9565b509392505050565b600082601f83011261333f5761333e613223565b5b813561334f8482602086016132e8565b91505092915050565b6000806000806080858703121561337257613371612e62565b5b6000613380878288016130b8565b9450506020613391878288016130b8565b93505060406133a287828801613003565b925050606085013567ffffffffffffffff8111156133c3576133c2612e67565b5b6133cf8782880161332a565b91505092959194509250565b600067ffffffffffffffff8211156133f6576133f561322d565b5b6133ff82612f76565b9050602081019050919050565b600061341f61341a846133db565b61328d565b90508281526020810184848401111561343b5761343a613228565b5b6134468482856132d9565b509392505050565b600082601f83011261346357613462613223565b5b813561347384826020860161340c565b91505092915050565b6000806040838503121561349357613492612e62565b5b60006134a1858286016130b8565b925050602083013567ffffffffffffffff8111156134c2576134c1612e67565b5b6134ce8582860161344e565b9150509250929050565b600080604083850312156134ef576134ee612e62565b5b60006134fd858286016130b8565b925050602061350e858286016130b8565b9150509250929050565b7f4e487b7100000000000000000000000000000000000000000000000000000000600052602260045260246000fd5b6000600282049050600182168061355f57607f821691505b60208210810361357257613571613518565b5b50919050565b7f4552433732313a20617070726f76656420717565727920666f72206e6f6e657860008201527f697374656e7420746f6b656e0000000000000000000000000000000000000000602082015250565b60006135d4602c83612f32565b91506135df82613578565b604082019050919050565b60006020820190508181036000830152613603816135c7565b9050919050565b7f4552433732313a20617070726f76616c20746f2063757272656e74206f776e6560008201527f7200000000000000000000000000000000000000000000000000000000000000602082015250565b6000613666602183612f32565b91506136718261360a565b604082019050919050565b6000602082019050818103600083015261369581613659565b9050919050565b7f4552433732313a20617070726f76652063616c6c6572206973206e6f74206f7760008201527f6e6572206e6f7220617070726f76656420666f7220616c6c0000000000000000602082015250565b60006136f8603883612f32565b91506137038261369c565b604082019050919050565b60006020820190508181036000830152613727816136eb565b9050919050565b7f4552433732313a207472616e736665722063616c6c6572206973206e6f74206f60008201527f776e6572206e6f7220617070726f766564000000000000000000000000000000602082015250565b600061378a603183612f32565b91506137958261372e565b604082019050919050565b600060208201905081810360008301526137b98161377d565b9050919050565b7f455243373231456e756d657261626c653a206f776e657220696e646578206f7560008201527f74206f6620626f756e6473000000000000000000000000000000000000000000602082015250565b600061381c602b83612f32565b9150613827826137c0565b604082019050919050565b6000602082019050818103600083015261384b8161380f565b9050919050565b7f4f776e61626c653a2063616c6c6572206973206e6f7420746865206f776e6572600082015250565b6000613888602083612f32565b915061389382613852565b602082019050919050565b600060208201905081810360008301526138b78161387b565b9050919050565b7f4552433732314275726e61626c653a2063616c6c6572206973206e6f74206f7760008201527f6e6572206e6f7220617070726f76656400000000000000000000000000000000602082015250565b600061391a603083612f32565b9150613925826138be565b604082019050919050565b600060208201905081810360008301526139498161390d565b9050919050565b7f455243373231456e756d657261626c653a20676c6f62616c20696e646578206f60008201527f7574206f6620626f756e64730000000000000000000000000000000000000000602082015250565b60006139ac602c83612f32565b91506139b782613950565b604082019050919050565b600060208201905081810360008301526139db8161399f565b9050919050565b7f4e487b7100000000000000000000000000000000000000000000000000000000600052603260045260246000fd5b7f4552433732313a206f776e657220717565727920666f72206e6f6e657869737460008201527f656e7420746f6b656e0000000000000000000000000000000000000000000000602082015250565b6000613a6d602983612f32565b9150613a7882613a11565b604082019050919050565b60006020820190508181036000830152613a9c81613a60565b9050919050565b7f4e487b7100000000000000000000000000000000000000000000000000000000600052601160045260246000fd5b6000613add82612fe2565b9150613ae883612fe2565b9250827fffffffffffffffffffffffffffffffffffffffffffffffffffffffffffffffff03821115613b1d57613b1c613aa3565b5b828201905092915050565b7f4552433732313a2062616c616e636520717565727920666f7220746865207a6560008201527f726f206164647265737300000000000000000000000000000000000000000000602082015250565b6000613b84602a83612f32565b9150613b8f82613b28565b604082019050919050565b60006020820190508181036000830152613bb381613b77565b9050919050565b7f4f776e61626c653a206e6577206f776e657220697320746865207a65726f206160008201527f6464726573730000000000000000000000000000000000000000000000000000602082015250565b6000613c16602683612f32565b9150613c2182613bba565b604082019050919050565b60006020820190508181036000830152613c4581613c09565b9050919050565b7f4552433732313a206f70657261746f7220717565727920666f72206e6f6e657860008201527f697374656e7420746f6b656e0000000000000000000000000000000000000000602082015250565b6000613ca8602c83612f32565b9150613cb382613c4c565b604082019050919050565b60006020820190508181036000830152613cd781613c9b565b9050919050565b7f4552433732313a207472616e736665722066726f6d20696e636f72726563742060008201527f6f776e6572000000000000000000000000000000000000000000000000000000602082015250565b6000613d3a602583612f32565b9150613d4582613cde565b604082019050919050565b60006020820190508181036000830152613d6981613d2d565b9050919050565b7f4552433732313a207472616e7366657220746f20746865207a65726f2061646460008201527f7265737300000000000000000000000000000000000000000000000000000000602082015250565b6000613dcc602483612f32565b9150613dd782613d70565b604082019050919050565b60006020820190508181036000830152613dfb81613dbf565b9050919050565b6000613e0d82612fe2565b9150613e1883612fe2565b925082821015613e2b57613e2a613aa3565b5b828203905092915050565b7f5061757361626c653a206e6f7420706175736564000000000000000000000000600082015250565b6000613e6c601483612f32565b9150613e7782613e36565b602082019050919050565b60006020820190508181036000830152613e9b81613e5f565b9050919050565b7f5061757361626c653a2070617573656400000000000000000000000000000000600082015250565b6000613ed8601083612f32565b9150613ee382613ea2565b602082019050919050565b60006020820190508181036000830152613f0781613ecb565b9050919050565b7f4552433732313a20617070726f766520746f2063616c6c657200000000000000600082015250565b6000613f44601983612f32565b9150613f4f82613f0e565b602082019050919050565b60006020820190508181036000830152613f7381613f37565b9050919050565b7f4552433732313a207472616e7366657220746f206e6f6e20455243373231526560008201527f63656976657220696d706c656d656e7465720000000000000000000000000000602082015250565b6000613fd6603283612f32565b9150613fe182613f7a565b604082019050919050565b6000602082019050818103600083015261400581613fc9565b9050919050565b7f45524337323155524953746f726167653a2055524920717565727920666f722060008201527f6e6f6e6578697374656e7420746f6b656e000000000000000000000000000000602082015250565b6000614068603183612f32565b91506140738261400c565b604082019050919050565b600060208201905081810360008301526140978161405b565b9050919050565b600081905092915050565b60006140b482612f27565b6140be818561409e565b93506140ce818560208601612f43565b80840191505092915050565b60006140e682856140a9565b91506140f282846140a9565b91508190509392505050565b7f45524337323155524953746f726167653a2055524920736574206f66206e6f6e60008201527f6578697374656e7420746f6b656e000000000000000000000000000000000000602082015250565b600061415a602e83612f32565b9150614165826140fe565b604082019050919050565b600060208201905081810360008301526141898161414d565b9050919050565b600081519050919050565b600082825260208201905092915050565b60006141b782614190565b6141c1818561419b565b93506141d1818560208601612f43565b6141da81612f76565b840191505092915050565b60006080820190506141fa6000830187613077565b6142076020830186613077565b614214604083018561313a565b818103606083015261422681846141ac565b905095945050505050565b60008151905061424081612e98565b92915050565b60006020828403121561425c5761425b612e62565b5b600061426a84828501614231565b91505092915050565b7f4552433732314d657461646174613a2055524920717565727920666f72206e6f60008201527f6e6578697374656e7420746f6b656e0000000000000000000000000000000000602082015250565b60006142cf602f83612f32565b91506142da82614273565b604082019050919050565b600060208201905081810360008301526142fe816142c2565b9050919050565b600061431082612fe2565b91507fffffffffffffffffffffffffffffffffffffffffffffffffffffffffffffffff820361434257614341613aa3565b5b600182019050919050565b7f4e487b7100000000000000000000000000000000000000000000000000000000600052601260045260246000fd5b600061438782612fe2565b915061439283612fe2565b9250826143a2576143a161434d565b5b828204905092915050565b60006143b882612fe2565b91506143c383612fe2565b9250826143d3576143d261434d565b5b828206905092915050565b7f4552433732313a206d696e7420746f20746865207a65726f2061646472657373600082015250565b6000614414602083612f32565b915061441f826143de565b602082019050919050565b6000602082019050818103600083015261444381614407565b9050919050565b7f4552433732313a20746f6b656e20616c7265616479206d696e74656400000000600082015250565b6000614480601c83612f32565b915061448b8261444a565b602082019050919050565b600060208201905081810360008301526144af81614473565b9050919050565b7f4e487b7100000000000000000000000000000000000000000000000000000000600052603160045260246000fdfe68747470733a2f2f6a3770647a743870757470392e7573656d6f72616c69732e636f6d3a323035332f736572766572a26469706673582212203140be12d654c2e423d790465163d720bb4524b55eeb10a4f0c2d0dd317414c864736f6c634300080d0033",
  "immutableReferences": {},
  "source": "// SPDX-License-Identifier: MIT\r\npragma solidity ^0.8.4;\r\n\r\nimport \"@openzeppelin/contracts/token/ERC721/ERC721.sol\";\r\nimport \"@openzeppelin/contracts/token/ERC721/extensions/ERC721Enumerable.sol\";\r\nimport \"@openzeppelin/contracts/token/ERC721/extensions/ERC721URIStorage.sol\";\r\nimport \"@openzeppelin/contracts/security/Pausable.sol\";\r\nimport \"@openzeppelin/contracts/access/Ownable.sol\";\r\nimport \"@openzeppelin/contracts/token/ERC721/extensions/ERC721Burnable.sol\";\r\nimport \"@openzeppelin/contracts/utils/Counters.sol\";\r\n\r\ncontract RocketTokenERC721 is ERC721, ERC721Enumerable, ERC721URIStorage, Pausable, Ownable, ERC721Burnable {\r\n    using Counters for Counters.Counter;\r\n\r\n    Counters.Counter private _tokenIdCounter;\r\n\r\n    address[] addressList;\r\n    uint public balanceReceived;\r\n    uint deployDate;\r\n\r\n    mapping(address => bool) public hasReceivedFreeNFT;\r\n\r\n    constructor() ERC721(\"RocketToken\", \"ROCKET\") {\r\n        deployDate = block.timestamp;\r\n    }\r\n\r\n    function _baseURI() internal pure override returns (string memory) {\r\n        return \"https://j7pdzt8putp9.usemoralis.com:2053/server\";\r\n    }\r\n\r\n    function pause() public onlyOwner {\r\n        _pause();\r\n    }\r\n\r\n    function unpause() public onlyOwner {\r\n        _unpause();\r\n    }\r\n\r\n    function safeMint(address to, string memory uri) public onlyOwner {\r\n        uint256 tokenId = _tokenIdCounter.current();\r\n        _tokenIdCounter.increment();\r\n        _safeMint(to, tokenId);\r\n        _setTokenURI(tokenId, uri);\r\n    }\r\n\r\n    function _beforeTokenTransfer(address from, address to, uint256 tokenId)\r\n        internal\r\n        whenNotPaused\r\n        override(ERC721, ERC721Enumerable)\r\n    {\r\n        super._beforeTokenTransfer(from, to, tokenId);\r\n    }\r\n\r\n    // The following functions are overrides required by Solidity.\r\n\r\n    function _burn(uint256 tokenId) internal override(ERC721, ERC721URIStorage) {\r\n        super._burn(tokenId);\r\n    }\r\n\r\n    function tokenURI(uint256 tokenId)\r\n        public\r\n        view\r\n        override(ERC721, ERC721URIStorage)\r\n        returns (string memory)\r\n    {\r\n        return super.tokenURI(tokenId);\r\n    }\r\n\r\n    function supportsInterface(bytes4 interfaceId)\r\n        public\r\n        view\r\n        override(ERC721, ERC721Enumerable)\r\n        returns (bool)\r\n    {\r\n        return super.supportsInterface(interfaceId);\r\n    }\r\n\r\n    function receiveMoney() public payable {\r\n        balanceReceived += msg.value;\r\n    }\r\n\r\n    function getBalance() public view returns(uint) {\r\n        return address(this).balance;\r\n    }\r\n\r\n    function withdrawMoney() public {\r\n        address payable to = payable(msg.sender);\r\n        to.transfer(getBalance());\r\n    }\r\n\r\n    function freeEligible() public onlyOwner {\r\n        addressList =  [\r\n            0xd1679bB3543e8aD195FF9f3Ac3436039bA389237,\r\n            0xF4F555ca1586C40067cd215578f123d30813De02,\r\n            0x5563D3361408D41BF172E3720C30b0e35F19A444,\r\n            0x6ffdAf0795D208c11C583C88Cb5dbd2A8955A59e\r\n        ];\r\n    }\r\n\r\n    function twentyFourHoursPassed() public returns (bool) {\r\n        return (block.timestamp >= (deployDate + 24 hours));\r\n    }\r\n\r\n    function giftToken(address receiver) public view returns (bool) {\r\n\r\n    }\r\n\r\n    //Send token once per day to the receiver\r\n    function faucet(address receiver) public {\r\n        //Check if the receiver got tokens in the last 24hours\r\n\r\n\r\n        //Update the last timestamp of the receiver\r\n\r\n\r\n        //Mint 100 new tokens to the receiver\r\n\r\n\r\n    }\r\n\r\n}\r\n",
  "sourcePath": "C:\\Users\\Troy Wever\\OneDrive\\Documents\\GitHub\\Rocket_Elevators_Blockchain\\contracts\\RocketToken.sol",
  "compiler": {
    "name": "solc",
    "version": "0.8.13+commit.abaa5c0e.Emscripten.clang"
  },
  "schemaVersion": "3.4.7",
  "updatedAt": "2022-05-04T15:27:44.879Z",
  "devdoc": {
    "kind": "dev",
    "methods": {
      "approve(address,uint256)": {
        "details": "See {IERC721-approve}."
      },
      "balanceOf(address)": {
        "details": "See {IERC721-balanceOf}."
      },
      "burn(uint256)": {
        "details": "Burns `tokenId`. See {ERC721-_burn}. Requirements: - The caller must own `tokenId` or be an approved operator."
      },
      "getApproved(uint256)": {
        "details": "See {IERC721-getApproved}."
      },
      "isApprovedForAll(address,address)": {
        "details": "See {IERC721-isApprovedForAll}."
      },
      "name()": {
        "details": "See {IERC721Metadata-name}."
      },
      "owner()": {
        "details": "Returns the address of the current owner."
      },
      "ownerOf(uint256)": {
        "details": "See {IERC721-ownerOf}."
      },
      "paused()": {
        "details": "Returns true if the contract is paused, and false otherwise."
      },
      "renounceOwnership()": {
        "details": "Leaves the contract without owner. It will not be possible to call `onlyOwner` functions anymore. Can only be called by the current owner. NOTE: Renouncing ownership will leave the contract without an owner, thereby removing any functionality that is only available to the owner."
      },
      "safeTransferFrom(address,address,uint256)": {
        "details": "See {IERC721-safeTransferFrom}."
      },
      "safeTransferFrom(address,address,uint256,bytes)": {
        "details": "See {IERC721-safeTransferFrom}."
      },
      "setApprovalForAll(address,bool)": {
        "details": "See {IERC721-setApprovalForAll}."
      },
      "symbol()": {
        "details": "See {IERC721Metadata-symbol}."
      },
      "tokenByIndex(uint256)": {
        "details": "See {IERC721Enumerable-tokenByIndex}."
      },
      "tokenOfOwnerByIndex(address,uint256)": {
        "details": "See {IERC721Enumerable-tokenOfOwnerByIndex}."
      },
      "totalSupply()": {
        "details": "See {IERC721Enumerable-totalSupply}."
      },
      "transferFrom(address,address,uint256)": {
        "details": "See {IERC721-transferFrom}."
      },
      "transferOwnership(address)": {
        "details": "Transfers ownership of the contract to a new account (`newOwner`). Can only be called by the current owner."
      }
    },
    "version": 1
  },
  "userdoc": {
    "kind": "user",
    "methods": {},
    "version": 1
  }
}