{
  "contractName": "RocketToken",
  "abi": [
    {
      "inputs": [],
      "stateMutability": "nonpayable",
      "type": "constructor"
    },
    {
      "anonymous": false,
      "inputs": [
        {
          "indexed": true,
          "internalType": "address",
          "name": "owner",
          "type": "address"
        },
        {
          "indexed": true,
          "internalType": "address",
          "name": "approved",
          "type": "address"
        },
        {
          "indexed": true,
          "internalType": "uint256",
          "name": "tokenId",
          "type": "uint256"
        }
      ],
      "name": "Approval",
      "type": "event"
    },
    {
      "anonymous": false,
      "inputs": [
        {
          "indexed": true,
          "internalType": "address",
          "name": "owner",
          "type": "address"
        },
        {
          "indexed": true,
          "internalType": "address",
          "name": "operator",
          "type": "address"
        },
        {
          "indexed": false,
          "internalType": "bool",
          "name": "approved",
          "type": "bool"
        }
      ],
      "name": "ApprovalForAll",
      "type": "event"
    },
    {
      "anonymous": false,
      "inputs": [
        {
          "indexed": true,
          "internalType": "address",
          "name": "previousOwner",
          "type": "address"
        },
        {
          "indexed": true,
          "internalType": "address",
          "name": "newOwner",
          "type": "address"
        }
      ],
      "name": "OwnershipTransferred",
      "type": "event"
    },
    {
      "anonymous": false,
      "inputs": [
        {
          "indexed": false,
          "internalType": "address",
          "name": "account",
          "type": "address"
        }
      ],
      "name": "Paused",
      "type": "event"
    },
    {
      "anonymous": false,
      "inputs": [
        {
          "indexed": true,
          "internalType": "address",
          "name": "from",
          "type": "address"
        },
        {
          "indexed": true,
          "internalType": "address",
          "name": "to",
          "type": "address"
        },
        {
          "indexed": true,
          "internalType": "uint256",
          "name": "tokenId",
          "type": "uint256"
        }
      ],
      "name": "Transfer",
      "type": "event"
    },
    {
      "anonymous": false,
      "inputs": [
        {
          "indexed": false,
          "internalType": "address",
          "name": "account",
          "type": "address"
        }
      ],
      "name": "Unpaused",
      "type": "event"
    },
    {
      "inputs": [
        {
          "internalType": "address",
          "name": "to",
          "type": "address"
        },
        {
          "internalType": "uint256",
          "name": "tokenId",
          "type": "uint256"
        }
      ],
      "name": "approve",
      "outputs": [],
      "stateMutability": "nonpayable",
      "type": "function"
    },
    {
      "inputs": [
        {
          "internalType": "address",
          "name": "owner",
          "type": "address"
        }
      ],
      "name": "balanceOf",
      "outputs": [
        {
          "internalType": "uint256",
          "name": "",
          "type": "uint256"
        }
      ],
      "stateMutability": "view",
      "type": "function"
    },
    {
      "inputs": [],
      "name": "balanceReceived",
      "outputs": [
        {
          "internalType": "uint256",
          "name": "",
          "type": "uint256"
        }
      ],
      "stateMutability": "view",
      "type": "function"
    },
    {
      "inputs": [
        {
          "internalType": "uint256",
          "name": "tokenId",
          "type": "uint256"
        }
      ],
      "name": "burn",
      "outputs": [],
      "stateMutability": "nonpayable",
      "type": "function"
    },
    {
      "inputs": [
        {
          "internalType": "uint256",
          "name": "tokenId",
          "type": "uint256"
        }
      ],
      "name": "getApproved",
      "outputs": [
        {
          "internalType": "address",
          "name": "",
          "type": "address"
        }
      ],
      "stateMutability": "view",
      "type": "function"
    },
    {
      "inputs": [
        {
          "internalType": "address",
          "name": "",
          "type": "address"
        }
      ],
      "name": "hasReceivedFreeNFT",
      "outputs": [
        {
          "internalType": "bool",
          "name": "",
          "type": "bool"
        }
      ],
      "stateMutability": "view",
      "type": "function"
    },
    {
      "inputs": [
        {
          "internalType": "address",
          "name": "owner",
          "type": "address"
        },
        {
          "internalType": "address",
          "name": "operator",
          "type": "address"
        }
      ],
      "name": "isApprovedForAll",
      "outputs": [
        {
          "internalType": "bool",
          "name": "",
          "type": "bool"
        }
      ],
      "stateMutability": "view",
      "type": "function"
    },
    {
      "inputs": [],
      "name": "name",
      "outputs": [
        {
          "internalType": "string",
          "name": "",
          "type": "string"
        }
      ],
      "stateMutability": "view",
      "type": "function"
    },
    {
      "inputs": [],
      "name": "owner",
      "outputs": [
        {
          "internalType": "address",
          "name": "",
          "type": "address"
        }
      ],
      "stateMutability": "view",
      "type": "function"
    },
    {
      "inputs": [
        {
          "internalType": "uint256",
          "name": "tokenId",
          "type": "uint256"
        }
      ],
      "name": "ownerOf",
      "outputs": [
        {
          "internalType": "address",
          "name": "",
          "type": "address"
        }
      ],
      "stateMutability": "view",
      "type": "function"
    },
    {
      "inputs": [],
      "name": "paused",
      "outputs": [
        {
          "internalType": "bool",
          "name": "",
          "type": "bool"
        }
      ],
      "stateMutability": "view",
      "type": "function"
    },
    {
      "inputs": [],
      "name": "renounceOwnership",
      "outputs": [],
      "stateMutability": "nonpayable",
      "type": "function"
    },
    {
      "inputs": [
        {
          "internalType": "address",
          "name": "from",
          "type": "address"
        },
        {
          "internalType": "address",
          "name": "to",
          "type": "address"
        },
        {
          "internalType": "uint256",
          "name": "tokenId",
          "type": "uint256"
        }
      ],
      "name": "safeTransferFrom",
      "outputs": [],
      "stateMutability": "nonpayable",
      "type": "function"
    },
    {
      "inputs": [
        {
          "internalType": "address",
          "name": "from",
          "type": "address"
        },
        {
          "internalType": "address",
          "name": "to",
          "type": "address"
        },
        {
          "internalType": "uint256",
          "name": "tokenId",
          "type": "uint256"
        },
        {
          "internalType": "bytes",
          "name": "_data",
          "type": "bytes"
        }
      ],
      "name": "safeTransferFrom",
      "outputs": [],
      "stateMutability": "nonpayable",
      "type": "function"
    },
    {
      "inputs": [
        {
          "internalType": "address",
          "name": "operator",
          "type": "address"
        },
        {
          "internalType": "bool",
          "name": "approved",
          "type": "bool"
        }
      ],
      "name": "setApprovalForAll",
      "outputs": [],
      "stateMutability": "nonpayable",
      "type": "function"
    },
    {
      "inputs": [],
      "name": "symbol",
      "outputs": [
        {
          "internalType": "string",
          "name": "",
          "type": "string"
        }
      ],
      "stateMutability": "view",
      "type": "function"
    },
    {
      "inputs": [
        {
          "internalType": "uint256",
          "name": "index",
          "type": "uint256"
        }
      ],
      "name": "tokenByIndex",
      "outputs": [
        {
          "internalType": "uint256",
          "name": "",
          "type": "uint256"
        }
      ],
      "stateMutability": "view",
      "type": "function"
    },
    {
      "inputs": [
        {
          "internalType": "address",
          "name": "owner",
          "type": "address"
        },
        {
          "internalType": "uint256",
          "name": "index",
          "type": "uint256"
        }
      ],
      "name": "tokenOfOwnerByIndex",
      "outputs": [
        {
          "internalType": "uint256",
          "name": "",
          "type": "uint256"
        }
      ],
      "stateMutability": "view",
      "type": "function"
    },
    {
      "inputs": [],
      "name": "totalSupply",
      "outputs": [
        {
          "internalType": "uint256",
          "name": "",
          "type": "uint256"
        }
      ],
      "stateMutability": "view",
      "type": "function"
    },
    {
      "inputs": [
        {
          "internalType": "address",
          "name": "from",
          "type": "address"
        },
        {
          "internalType": "address",
          "name": "to",
          "type": "address"
        },
        {
          "internalType": "uint256",
          "name": "tokenId",
          "type": "uint256"
        }
      ],
      "name": "transferFrom",
      "outputs": [],
      "stateMutability": "nonpayable",
      "type": "function"
    },
    {
      "inputs": [
        {
          "internalType": "address",
          "name": "newOwner",
          "type": "address"
        }
      ],
      "name": "transferOwnership",
      "outputs": [],
      "stateMutability": "nonpayable",
      "type": "function"
    },
    {
      "inputs": [],
      "name": "pause",
      "outputs": [],
      "stateMutability": "nonpayable",
      "type": "function"
    },
    {
      "inputs": [],
      "name": "unpause",
      "outputs": [],
      "stateMutability": "nonpayable",
      "type": "function"
    },
    {
      "inputs": [
        {
          "internalType": "address",
          "name": "to",
          "type": "address"
        },
        {
          "internalType": "string",
          "name": "uri",
          "type": "string"
        }
      ],
      "name": "safeMint",
      "outputs": [],
      "stateMutability": "nonpayable",
      "type": "function"
    },
    {
      "inputs": [
        {
          "internalType": "uint256",
          "name": "tokenId",
          "type": "uint256"
        }
      ],
      "name": "tokenURI",
      "outputs": [
        {
          "internalType": "string",
          "name": "",
          "type": "string"
        }
      ],
      "stateMutability": "view",
      "type": "function"
    },
    {
      "inputs": [
        {
          "internalType": "bytes4",
          "name": "interfaceId",
          "type": "bytes4"
        }
      ],
      "name": "supportsInterface",
      "outputs": [
        {
          "internalType": "bool",
          "name": "",
          "type": "bool"
        }
      ],
      "stateMutability": "view",
      "type": "function"
    },
    {
      "inputs": [],
      "name": "receiveMoney",
      "outputs": [],
      "stateMutability": "payable",
      "type": "function"
    },
    {
      "inputs": [],
      "name": "getBalance",
      "outputs": [
        {
          "internalType": "uint256",
          "name": "",
          "type": "uint256"
        }
      ],
      "stateMutability": "view",
      "type": "function"
    },
    {
      "inputs": [],
      "name": "withdrawMoney",
      "outputs": [],
      "stateMutability": "nonpayable",
      "type": "function"
    },
    {
      "inputs": [],
      "name": "freeEligible",
      "outputs": [],
      "stateMutability": "nonpayable",
      "type": "function"
    },
    {
      "inputs": [
        {
          "internalType": "address",
          "name": "_address",
          "type": "address"
        }
      ],
      "name": "checkNFT",
      "outputs": [
        {
          "internalType": "bool",
          "name": "",
          "type": "bool"
        }
      ],
      "stateMutability": "view",
      "type": "function"
    },
    {
      "inputs": [
        {
          "internalType": "address",
          "name": "receiver",
          "type": "address"
        }
      ],
      "name": "NFTGift",
      "outputs": [],
      "stateMutability": "nonpayable",
      "type": "function"
    },
    {
      "inputs": [
        {
          "internalType": "address",
          "name": "to",
          "type": "address"
        },
        {
          "internalType": "string",
          "name": "uri",
          "type": "string"
        }
      ],
      "name": "mintROCKET_ERC20",
      "outputs": [
        {
          "internalType": "uint256",
          "name": "",
          "type": "uint256"
        }
      ],
      "stateMutability": "nonpayable",
      "type": "function"
    }
  ],
  "bytecode": "0x6080604052735b38da6a701c568545dcfcb03fcb875f56beddc4600d60006101000a81548173ffffffffffffffffffffffffffffffffffffffff021916908373ffffffffffffffffffffffffffffffffffffffff1602179055503480156200006657600080fd5b506040518060400160405280600b81526020017f526f636b6574546f6b656e0000000000000000000000000000000000000000008152506040518060400160405280600681526020017f524f434b455400000000000000000000000000000000000000000000000000008152508160009080519060200190620000eb92919062000216565b5080600190805190602001906200010492919062000216565b5050506000600b60006101000a81548160ff02191690831515021790555062000142620001366200014860201b60201c565b6200015060201b60201c565b6200032a565b600033905090565b6000600b60019054906101000a900473ffffffffffffffffffffffffffffffffffffffff16905081600b60016101000a81548173ffffffffffffffffffffffffffffffffffffffff021916908373ffffffffffffffffffffffffffffffffffffffff1602179055508173ffffffffffffffffffffffffffffffffffffffff168173ffffffffffffffffffffffffffffffffffffffff167f8be0079c531659141344cd1fd0a4f28419497f9722a3daafe3b4186f6b6457e060405160405180910390a35050565b8280546200022490620002f5565b90600052602060002090601f01602090048101928262000248576000855562000294565b82601f106200026357805160ff191683800117855562000294565b8280016001018555821562000294579182015b828111156200029357825182559160200191906001019062000276565b5b509050620002a39190620002a7565b5090565b5b80821115620002c2576000816000905550600101620002a8565b5090565b7f4e487b7100000000000000000000000000000000000000000000000000000000600052602260045260246000fd5b600060028204905060018216806200030e57607f821691505b602082108103620003245762000323620002c6565b5b50919050565b614830806200033a6000396000f3fe6080604052600436106101ee5760003560e01c80636352211e1161010d578063ac446002116100a0578063c87b56dd1161006f578063c87b56dd146106b8578063d204c45e146106f5578063e985e9c51461071e578063f2fde38b1461075b578063f917916d14610784576101ee565b8063ac446002146105fe578063b88d4fde14610615578063ba8c2ace1461063e578063bb3294b31461067b576101ee565b80638456cb59116100dc5780638456cb59146105685780638da5cb5b1461057f57806395d89b41146105aa578063a22cb465146105d5576101ee565b80636352211e146104cd5780636d26ec181461050a57806370a0823114610514578063715018a614610551576101ee565b80632f745c59116101855780634e2f567c116101545780634e2f567c146104235780634f6ccce71461043a57806352a90c42146104775780635c975abb146104a2576101ee565b80632f745c591461037d5780633f4ba83a146103ba57806342842e0e146103d157806342966c68146103fa576101ee565b80630c751cdb116101c15780630c751cdb146102c157806312065fe0146102fe57806318160ddd1461032957806323b872dd14610354576101ee565b806301ffc9a7146101f357806306fdde0314610230578063081812fc1461025b578063095ea7b314610298575b600080fd5b3480156101ff57600080fd5b5061021a600480360381019061021591906131aa565b6107ad565b60405161022791906131f2565b60405180910390f35b34801561023c57600080fd5b506102456107bf565b60405161025291906132a6565b60405180910390f35b34801561026757600080fd5b50610282600480360381019061027d91906132fe565b610851565b60405161028f919061336c565b60405180910390f35b3480156102a457600080fd5b506102bf60048036038101906102ba91906133b3565b6108d6565b005b3480156102cd57600080fd5b506102e860048036038101906102e391906133f3565b6109ed565b6040516102f591906131f2565b60405180910390f35b34801561030a57600080fd5b50610313610a0d565b604051610320919061342f565b60405180910390f35b34801561033557600080fd5b5061033e610a15565b60405161034b919061342f565b60405180910390f35b34801561036057600080fd5b5061037b6004803603810190610376919061344a565b610a22565b005b34801561038957600080fd5b506103a4600480360381019061039f91906133b3565b610a82565b6040516103b1919061342f565b60405180910390f35b3480156103c657600080fd5b506103cf610b27565b005b3480156103dd57600080fd5b506103f860048036038101906103f3919061344a565b610bad565b005b34801561040657600080fd5b50610421600480360381019061041c91906132fe565b610bcd565b005b34801561042f57600080fd5b50610438610c29565b005b34801561044657600080fd5b50610461600480360381019061045c91906132fe565b610dd9565b60405161046e919061342f565b60405180910390f35b34801561048357600080fd5b5061048c610e4a565b604051610499919061342f565b60405180910390f35b3480156104ae57600080fd5b506104b7610e50565b6040516104c491906131f2565b60405180910390f35b3480156104d957600080fd5b506104f460048036038101906104ef91906132fe565b610e67565b604051610501919061336c565b60405180910390f35b610512610f18565b005b34801561052057600080fd5b5061053b600480360381019061053691906133f3565b610f33565b604051610548919061342f565b60405180910390f35b34801561055d57600080fd5b50610566610fea565b005b34801561057457600080fd5b5061057d611072565b005b34801561058b57600080fd5b506105946110f8565b6040516105a1919061336c565b60405180910390f35b3480156105b657600080fd5b506105bf611122565b6040516105cc91906132a6565b60405180910390f35b3480156105e157600080fd5b506105fc60048036038101906105f791906134c9565b6111b4565b005b34801561060a57600080fd5b506106136111ca565b005b34801561062157600080fd5b5061063c6004803603810190610637919061363e565b611220565b005b34801561064a57600080fd5b50610665600480360381019061066091906133f3565b611282565b60405161067291906131f2565b60405180910390f35b34801561068757600080fd5b506106a2600480360381019061069d9190613762565b611354565b6040516106af919061342f565b60405180910390f35b3480156106c457600080fd5b506106df60048036038101906106da91906132fe565b611408565b6040516106ec91906132a6565b60405180910390f35b34801561070157600080fd5b5061071c60048036038101906107179190613762565b61141a565b005b34801561072a57600080fd5b50610745600480360381019061074091906137be565b6114c7565b60405161075291906131f2565b60405180910390f35b34801561076757600080fd5b50610782600480360381019061077d91906133f3565b61155b565b005b34801561079057600080fd5b506107ab60048036038101906107a691906133f3565b611652565b005b60006107b8826117c5565b9050919050565b6060600080546107ce9061382d565b80601f01602080910402602001604051908101604052809291908181526020018280546107fa9061382d565b80156108475780601f1061081c57610100808354040283529160200191610847565b820191906000526020600020905b81548152906001019060200180831161082a57829003601f168201915b5050505050905090565b600061085c8261183f565b61089b576040517f08c379a0000000000000000000000000000000000000000000000000000000008152600401610892906138d0565b60405180910390fd5b6004600083815260200190815260200160002060009054906101000a900473ffffffffffffffffffffffffffffffffffffffff169050919050565b60006108e182610e67565b90508073ffffffffffffffffffffffffffffffffffffffff168373ffffffffffffffffffffffffffffffffffffffff1603610951576040517f08c379a000000000000000000000000000000000000000000000000000000000815260040161094890613962565b60405180910390fd5b8073ffffffffffffffffffffffffffffffffffffffff166109706118ab565b73ffffffffffffffffffffffffffffffffffffffff16148061099f575061099e816109996118ab565b6114c7565b5b6109de576040517f08c379a00000000000000000000000000000000000000000000000000000000081526004016109d5906139f4565b60405180910390fd5b6109e883836118b3565b505050565b60116020528060005260406000206000915054906101000a900460ff1681565b600047905090565b6000600880549050905090565b610a33610a2d6118ab565b8261196c565b610a72576040517f08c379a0000000000000000000000000000000000000000000000000000000008152600401610a6990613a86565b60405180910390fd5b610a7d838383611a4a565b505050565b6000610a8d83610f33565b8210610ace576040517f08c379a0000000000000000000000000000000000000000000000000000000008152600401610ac590613b18565b60405180910390fd5b600660008473ffffffffffffffffffffffffffffffffffffffff1673ffffffffffffffffffffffffffffffffffffffff168152602001908152602001600020600083815260200190815260200160002054905092915050565b610b2f6118ab565b73ffffffffffffffffffffffffffffffffffffffff16610b4d6110f8565b73ffffffffffffffffffffffffffffffffffffffff1614610ba3576040517f08c379a0000000000000000000000000000000000000000000000000000000008152600401610b9a90613b84565b60405180910390fd5b610bab611cb0565b565b610bc883838360405180602001604052806000815250611220565b505050565b610bde610bd86118ab565b8261196c565b610c1d576040517f08c379a0000000000000000000000000000000000000000000000000000000008152600401610c1490613c16565b60405180910390fd5b610c2681611d52565b50565b610c316118ab565b73ffffffffffffffffffffffffffffffffffffffff16610c4f6110f8565b73ffffffffffffffffffffffffffffffffffffffff1614610ca5576040517f08c379a0000000000000000000000000000000000000000000000000000000008152600401610c9c90613b84565b60405180910390fd5b604051806080016040528073d1679bb3543e8ad195ff9f3ac3436039ba38923773ffffffffffffffffffffffffffffffffffffffff1673ffffffffffffffffffffffffffffffffffffffff16815260200173f4f555ca1586c40067cd215578f123d30813de0273ffffffffffffffffffffffffffffffffffffffff1673ffffffffffffffffffffffffffffffffffffffff168152602001735563d3361408d41bf172e3720c30b0e35f19a44473ffffffffffffffffffffffffffffffffffffffff1673ffffffffffffffffffffffffffffffffffffffff168152602001736ffdaf0795d208c11c583c88cb5dbd2a8955a59e73ffffffffffffffffffffffffffffffffffffffff1673ffffffffffffffffffffffffffffffffffffffff16815250600e906004610dd6929190612fd1565b50565b6000610de3610a15565b8210610e24576040517f08c379a0000000000000000000000000000000000000000000000000000000008152600401610e1b90613ca8565b60405180910390fd5b60088281548110610e3857610e37613cc8565b5b90600052602060002001549050919050565b600f5481565b6000600b60009054906101000a900460ff16905090565b6000806002600084815260200190815260200160002060009054906101000a900473ffffffffffffffffffffffffffffffffffffffff169050600073ffffffffffffffffffffffffffffffffffffffff168173ffffffffffffffffffffffffffffffffffffffff1603610f0f576040517f08c379a0000000000000000000000000000000000000000000000000000000008152600401610f0690613d69565b60405180910390fd5b80915050919050565b34600f6000828254610f2a9190613db8565b92505081905550565b60008073ffffffffffffffffffffffffffffffffffffffff168273ffffffffffffffffffffffffffffffffffffffff1603610fa3576040517f08c379a0000000000000000000000000000000000000000000000000000000008152600401610f9a90613e80565b60405180910390fd5b600360008373ffffffffffffffffffffffffffffffffffffffff1673ffffffffffffffffffffffffffffffffffffffff168152602001908152602001600020549050919050565b610ff26118ab565b73ffffffffffffffffffffffffffffffffffffffff166110106110f8565b73ffffffffffffffffffffffffffffffffffffffff1614611066576040517f08c379a000000000000000000000000000000000000000000000000000000000815260040161105d90613b84565b60405180910390fd5b6110706000611d5e565b565b61107a6118ab565b73ffffffffffffffffffffffffffffffffffffffff166110986110f8565b73ffffffffffffffffffffffffffffffffffffffff16146110ee576040517f08c379a00000000000000000000000000000000000000000000000000000000081526004016110e590613b84565b60405180910390fd5b6110f6611e24565b565b6000600b60019054906101000a900473ffffffffffffffffffffffffffffffffffffffff16905090565b6060600180546111319061382d565b80601f016020809104026020016040519081016040528092919081815260200182805461115d9061382d565b80156111aa5780601f1061117f576101008083540402835291602001916111aa565b820191906000526020600020905b81548152906001019060200180831161118d57829003601f168201915b5050505050905090565b6111c66111bf6118ab565b8383611ec7565b5050565b60003390508073ffffffffffffffffffffffffffffffffffffffff166108fc6111f1610a0d565b9081150290604051600060405180830381858888f1935050505015801561121c573d6000803e3d6000fd5b5050565b61123161122b6118ab565b8361196c565b611270576040517f08c379a000000000000000000000000000000000000000000000000000000000815260040161126790613a86565b60405180910390fd5b61127c84848484612033565b50505050565b600061128c6118ab565b73ffffffffffffffffffffffffffffffffffffffff166112aa6110f8565b73ffffffffffffffffffffffffffffffffffffffff1614611300576040517f08c379a00000000000000000000000000000000000000000000000000000000081526004016112f790613b84565b60405180910390fd5b601160008373ffffffffffffffffffffffffffffffffffffffff1673ffffffffffffffffffffffffffffffffffffffff16815260200190815260200160002060009054906101000a900460ff169050919050565b600061135e6118ab565b73ffffffffffffffffffffffffffffffffffffffff1661137c6110f8565b73ffffffffffffffffffffffffffffffffffffffff16146113d2576040517f08c379a00000000000000000000000000000000000000000000000000000000081526004016113c990613b84565b60405180910390fd5b60006113de600c61208f565b90506113ea600c61209d565b6113f484826120b3565b6113fe818461228c565b8091505092915050565b606061141382612300565b9050919050565b6114226118ab565b73ffffffffffffffffffffffffffffffffffffffff166114406110f8565b73ffffffffffffffffffffffffffffffffffffffff1614611496576040517f08c379a000000000000000000000000000000000000000000000000000000000815260040161148d90613b84565b60405180910390fd5b60006114a2600c61208f565b90506114ae600c61209d565b6114b88382612451565b6114c2818361228c565b505050565b6000600560008473ffffffffffffffffffffffffffffffffffffffff1673ffffffffffffffffffffffffffffffffffffffff16815260200190815260200160002060008373ffffffffffffffffffffffffffffffffffffffff1673ffffffffffffffffffffffffffffffffffffffff16815260200190815260200160002060009054906101000a900460ff16905092915050565b6115636118ab565b73ffffffffffffffffffffffffffffffffffffffff166115816110f8565b73ffffffffffffffffffffffffffffffffffffffff16146115d7576040517f08c379a00000000000000000000000000000000000000000000000000000000081526004016115ce90613b84565b60405180910390fd5b600073ffffffffffffffffffffffffffffffffffffffff168173ffffffffffffffffffffffffffffffffffffffff1603611646576040517f08c379a000000000000000000000000000000000000000000000000000000000815260040161163d90613f12565b60405180910390fd5b61164f81611d5e565b50565b61165a610c29565b60005b600e805490508110156117c157600e818154811061167e5761167d613cc8565b5b9060005260206000200160009054906101000a900473ffffffffffffffffffffffffffffffffffffffff1673ffffffffffffffffffffffffffffffffffffffff168273ffffffffffffffffffffffffffffffffffffffff1614801561172d5750601160008373ffffffffffffffffffffffffffffffffffffffff1673ffffffffffffffffffffffffffffffffffffffff16815260200190815260200160002060009054906101000a900460ff16155b156117ae5761174b826040518060200160405280600081525061141a565b611755600c61209d565b6001601160008473ffffffffffffffffffffffffffffffffffffffff1673ffffffffffffffffffffffffffffffffffffffff16815260200190815260200160002060006101000a81548160ff0219169083151502179055505b80806117b990613f32565b91505061165d565b5050565b60007f780e9d63000000000000000000000000000000000000000000000000000000007bffffffffffffffffffffffffffffffffffffffffffffffffffffffff1916827bffffffffffffffffffffffffffffffffffffffffffffffffffffffff1916148061183857506118378261246f565b5b9050919050565b60008073ffffffffffffffffffffffffffffffffffffffff166002600084815260200190815260200160002060009054906101000a900473ffffffffffffffffffffffffffffffffffffffff1673ffffffffffffffffffffffffffffffffffffffff1614159050919050565b600033905090565b816004600083815260200190815260200160002060006101000a81548173ffffffffffffffffffffffffffffffffffffffff021916908373ffffffffffffffffffffffffffffffffffffffff160217905550808273ffffffffffffffffffffffffffffffffffffffff1661192683610e67565b73ffffffffffffffffffffffffffffffffffffffff167f8c5be1e5ebec7d5bd14f71427d1e84f3dd0314c0f7b2291e5b200ac8c7c3b92560405160405180910390a45050565b60006119778261183f565b6119b6576040517f08c379a00000000000000000000000000000000000000000000000000000000081526004016119ad90613fec565b60405180910390fd5b60006119c183610e67565b90508073ffffffffffffffffffffffffffffffffffffffff168473ffffffffffffffffffffffffffffffffffffffff161480611a035750611a0281856114c7565b5b80611a4157508373ffffffffffffffffffffffffffffffffffffffff16611a2984610851565b73ffffffffffffffffffffffffffffffffffffffff16145b91505092915050565b8273ffffffffffffffffffffffffffffffffffffffff16611a6a82610e67565b73ffffffffffffffffffffffffffffffffffffffff1614611ac0576040517f08c379a0000000000000000000000000000000000000000000000000000000008152600401611ab79061407e565b60405180910390fd5b600073ffffffffffffffffffffffffffffffffffffffff168273ffffffffffffffffffffffffffffffffffffffff1603611b2f576040517f08c379a0000000000000000000000000000000000000000000000000000000008152600401611b2690614110565b60405180910390fd5b611b3a838383612551565b611b456000826118b3565b6001600360008573ffffffffffffffffffffffffffffffffffffffff1673ffffffffffffffffffffffffffffffffffffffff1681526020019081526020016000206000828254611b959190614130565b925050819055506001600360008473ffffffffffffffffffffffffffffffffffffffff1673ffffffffffffffffffffffffffffffffffffffff1681526020019081526020016000206000828254611bec9190613db8565b92505081905550816002600083815260200190815260200160002060006101000a81548173ffffffffffffffffffffffffffffffffffffffff021916908373ffffffffffffffffffffffffffffffffffffffff160217905550808273ffffffffffffffffffffffffffffffffffffffff168473ffffffffffffffffffffffffffffffffffffffff167fddf252ad1be2c89b69c2b068fc378daa952ba7f163c4a11628f55a4df523b3ef60405160405180910390a4611cab8383836125a9565b505050565b611cb8610e50565b611cf7576040517f08c379a0000000000000000000000000000000000000000000000000000000008152600401611cee906141b0565b60405180910390fd5b6000600b60006101000a81548160ff0219169083151502179055507f5db9ee0a495bf2e6ff9c91a7834c1ba4fdd244a5e8aa4e537bd38aeae4b073aa611d3b6118ab565b604051611d48919061336c565b60405180910390a1565b611d5b816125ae565b50565b6000600b60019054906101000a900473ffffffffffffffffffffffffffffffffffffffff16905081600b60016101000a81548173ffffffffffffffffffffffffffffffffffffffff021916908373ffffffffffffffffffffffffffffffffffffffff1602179055508173ffffffffffffffffffffffffffffffffffffffff168173ffffffffffffffffffffffffffffffffffffffff167f8be0079c531659141344cd1fd0a4f28419497f9722a3daafe3b4186f6b6457e060405160405180910390a35050565b611e2c610e50565b15611e6c576040517f08c379a0000000000000000000000000000000000000000000000000000000008152600401611e639061421c565b60405180910390fd5b6001600b60006101000a81548160ff0219169083151502179055507f62e78cea01bee320cd4e420270b5ea74000d11b0c9f74754ebdbfc544b05a258611eb06118ab565b604051611ebd919061336c565b60405180910390a1565b8173ffffffffffffffffffffffffffffffffffffffff168373ffffffffffffffffffffffffffffffffffffffff1603611f35576040517f08c379a0000000000000000000000000000000000000000000000000000000008152600401611f2c90614288565b60405180910390fd5b80600560008573ffffffffffffffffffffffffffffffffffffffff1673ffffffffffffffffffffffffffffffffffffffff16815260200190815260200160002060008473ffffffffffffffffffffffffffffffffffffffff1673ffffffffffffffffffffffffffffffffffffffff16815260200190815260200160002060006101000a81548160ff0219169083151502179055508173ffffffffffffffffffffffffffffffffffffffff168373ffffffffffffffffffffffffffffffffffffffff167f17307eab39ab6107e8899845ad3d59bd9653f200f220920489ca2b5937696c318360405161202691906131f2565b60405180910390a3505050565b61203e848484611a4a565b61204a84848484612601565b612089576040517f08c379a00000000000000000000000000000000000000000000000000000000081526004016120809061431a565b60405180910390fd5b50505050565b600081600001549050919050565b6001816000016000828254019250508190555050565b600073ffffffffffffffffffffffffffffffffffffffff168273ffffffffffffffffffffffffffffffffffffffff1603612122576040517f08c379a000000000000000000000000000000000000000000000000000000000815260040161211990614386565b60405180910390fd5b61212b8161183f565b1561216b576040517f08c379a0000000000000000000000000000000000000000000000000000000008152600401612162906143f2565b60405180910390fd5b61217760008383612551565b6001600360008473ffffffffffffffffffffffffffffffffffffffff1673ffffffffffffffffffffffffffffffffffffffff16815260200190815260200160002060008282546121c79190613db8565b92505081905550816002600083815260200190815260200160002060006101000a81548173ffffffffffffffffffffffffffffffffffffffff021916908373ffffffffffffffffffffffffffffffffffffffff160217905550808273ffffffffffffffffffffffffffffffffffffffff16600073ffffffffffffffffffffffffffffffffffffffff167fddf252ad1be2c89b69c2b068fc378daa952ba7f163c4a11628f55a4df523b3ef60405160405180910390a4612288600083836125a9565b5050565b6122958261183f565b6122d4576040517f08c379a00000000000000000000000000000000000000000000000000000000081526004016122cb90614484565b60405180910390fd5b80600a600084815260200190815260200160002090805190602001906122fb92919061305b565b505050565b606061230b8261183f565b61234a576040517f08c379a000000000000000000000000000000000000000000000000000000000815260040161234190614516565b60405180910390fd5b6000600a6000848152602001908152602001600020805461236a9061382d565b80601f01602080910402602001604051908101604052809291908181526020018280546123969061382d565b80156123e35780601f106123b8576101008083540402835291602001916123e3565b820191906000526020600020905b8154815290600101906020018083116123c657829003601f168201915b5050505050905060006123f4612788565b9050600081510361240957819250505061244c565b60008251111561243e578082604051602001612426929190614572565b6040516020818303038152906040529250505061244c565b612447846127a8565b925050505b919050565b61246b82826040518060200160405280600081525061284f565b5050565b60007f80ac58cd000000000000000000000000000000000000000000000000000000007bffffffffffffffffffffffffffffffffffffffffffffffffffffffff1916827bffffffffffffffffffffffffffffffffffffffffffffffffffffffff1916148061253a57507f5b5e139f000000000000000000000000000000000000000000000000000000007bffffffffffffffffffffffffffffffffffffffffffffffffffffffff1916827bffffffffffffffffffffffffffffffffffffffffffffffffffffffff1916145b8061254a5750612549826128aa565b5b9050919050565b612559610e50565b15612599576040517f08c379a00000000000000000000000000000000000000000000000000000000081526004016125909061421c565b60405180910390fd5b6125a4838383612914565b505050565b505050565b6125b781612a26565b6000600a600083815260200190815260200160002080546125d79061382d565b9050146125fe57600a600082815260200190815260200160002060006125fd91906130e1565b5b50565b60006126228473ffffffffffffffffffffffffffffffffffffffff16612b43565b1561277b578373ffffffffffffffffffffffffffffffffffffffff1663150b7a0261264b6118ab565b8786866040518563ffffffff1660e01b815260040161266d94939291906145eb565b6020604051808303816000875af19250505080156126a957506040513d601f19601f820116820180604052508101906126a6919061464c565b60015b61272b573d80600081146126d9576040519150601f19603f3d011682016040523d82523d6000602084013e6126de565b606091505b506000815103612723576040517f08c379a000000000000000000000000000000000000000000000000000000000815260040161271a9061431a565b60405180910390fd5b805181602001fd5b63150b7a0260e01b7bffffffffffffffffffffffffffffffffffffffffffffffffffffffff1916817bffffffffffffffffffffffffffffffffffffffffffffffffffffffff191614915050612780565b600190505b949350505050565b60606040518060600160405280602f81526020016147cc602f9139905090565b60606127b38261183f565b6127f2576040517f08c379a00000000000000000000000000000000000000000000000000000000081526004016127e9906146eb565b60405180910390fd5b60006127fc612788565b9050600081511161281c5760405180602001604052806000815250612847565b8061282684612b66565b604051602001612837929190614572565b6040516020818303038152906040525b915050919050565b61285983836120b3565b6128666000848484612601565b6128a5576040517f08c379a000000000000000000000000000000000000000000000000000000000815260040161289c9061431a565b60405180910390fd5b505050565b60007f01ffc9a7000000000000000000000000000000000000000000000000000000007bffffffffffffffffffffffffffffffffffffffffffffffffffffffff1916827bffffffffffffffffffffffffffffffffffffffffffffffffffffffff1916149050919050565b61291f838383612cc6565b600073ffffffffffffffffffffffffffffffffffffffff168373ffffffffffffffffffffffffffffffffffffffff16036129615761295c81612ccb565b6129a0565b8173ffffffffffffffffffffffffffffffffffffffff168373ffffffffffffffffffffffffffffffffffffffff161461299f5761299e8382612d14565b5b5b600073ffffffffffffffffffffffffffffffffffffffff168273ffffffffffffffffffffffffffffffffffffffff16036129e2576129dd81612e81565b612a21565b8273ffffffffffffffffffffffffffffffffffffffff168273ffffffffffffffffffffffffffffffffffffffff1614612a2057612a1f8282612f52565b5b5b505050565b6000612a3182610e67565b9050612a3f81600084612551565b612a4a6000836118b3565b6001600360008373ffffffffffffffffffffffffffffffffffffffff1673ffffffffffffffffffffffffffffffffffffffff1681526020019081526020016000206000828254612a9a9190614130565b925050819055506002600083815260200190815260200160002060006101000a81549073ffffffffffffffffffffffffffffffffffffffff021916905581600073ffffffffffffffffffffffffffffffffffffffff168273ffffffffffffffffffffffffffffffffffffffff167fddf252ad1be2c89b69c2b068fc378daa952ba7f163c4a11628f55a4df523b3ef60405160405180910390a4612b3f816000846125a9565b5050565b6000808273ffffffffffffffffffffffffffffffffffffffff163b119050919050565b606060008203612bad576040518060400160405280600181526020017f30000000000000000000000000000000000000000000000000000000000000008152509050612cc1565b600082905060005b60008214612bdf578080612bc890613f32565b915050600a82612bd8919061473a565b9150612bb5565b60008167ffffffffffffffff811115612bfb57612bfa613513565b5b6040519080825280601f01601f191660200182016040528015612c2d5781602001600182028036833780820191505090505b5090505b60008514612cba57600182612c469190614130565b9150600a85612c55919061476b565b6030612c619190613db8565b60f81b818381518110612c7757612c76613cc8565b5b60200101907effffffffffffffffffffffffffffffffffffffffffffffffffffffffffffff1916908160001a905350600a85612cb3919061473a565b9450612c31565b8093505050505b919050565b505050565b6008805490506009600083815260200190815260200160002081905550600881908060018154018082558091505060019003906000526020600020016000909190919091505550565b60006001612d2184610f33565b612d2b9190614130565b9050600060076000848152602001908152602001600020549050818114612e10576000600660008673ffffffffffffffffffffffffffffffffffffffff1673ffffffffffffffffffffffffffffffffffffffff168152602001908152602001600020600084815260200190815260200160002054905080600660008773ffffffffffffffffffffffffffffffffffffffff1673ffffffffffffffffffffffffffffffffffffffff168152602001908152602001600020600084815260200190815260200160002081905550816007600083815260200190815260200160002081905550505b6007600084815260200190815260200160002060009055600660008573ffffffffffffffffffffffffffffffffffffffff1673ffffffffffffffffffffffffffffffffffffffff16815260200190815260200160002060008381526020019081526020016000206000905550505050565b60006001600880549050612e959190614130565b9050600060096000848152602001908152602001600020549050600060088381548110612ec557612ec4613cc8565b5b906000526020600020015490508060088381548110612ee757612ee6613cc8565b5b906000526020600020018190555081600960008381526020019081526020016000208190555060096000858152602001908152602001600020600090556008805480612f3657612f3561479c565b5b6001900381819060005260206000200160009055905550505050565b6000612f5d83610f33565b905081600660008573ffffffffffffffffffffffffffffffffffffffff1673ffffffffffffffffffffffffffffffffffffffff168152602001908152602001600020600083815260200190815260200160002081905550806007600084815260200190815260200160002081905550505050565b82805482825590600052602060002090810192821561304a579160200282015b828111156130495782518260006101000a81548173ffffffffffffffffffffffffffffffffffffffff021916908373ffffffffffffffffffffffffffffffffffffffff16021790555091602001919060010190612ff1565b5b5090506130579190613121565b5090565b8280546130679061382d565b90600052602060002090601f01602090048101928261308957600085556130d0565b82601f106130a257805160ff19168380011785556130d0565b828001600101855582156130d0579182015b828111156130cf5782518255916020019190600101906130b4565b5b5090506130dd9190613121565b5090565b5080546130ed9061382d565b6000825580601f106130ff575061311e565b601f01602090049060005260206000209081019061311d9190613121565b5b50565b5b8082111561313a576000816000905550600101613122565b5090565b6000604051905090565b600080fd5b600080fd5b60007fffffffff0000000000000000000000000000000000000000000000000000000082169050919050565b61318781613152565b811461319257600080fd5b50565b6000813590506131a48161317e565b92915050565b6000602082840312156131c0576131bf613148565b5b60006131ce84828501613195565b91505092915050565b60008115159050919050565b6131ec816131d7565b82525050565b600060208201905061320760008301846131e3565b92915050565b600081519050919050565b600082825260208201905092915050565b60005b8381101561324757808201518184015260208101905061322c565b83811115613256576000848401525b50505050565b6000601f19601f8301169050919050565b60006132788261320d565b6132828185613218565b9350613292818560208601613229565b61329b8161325c565b840191505092915050565b600060208201905081810360008301526132c0818461326d565b905092915050565b6000819050919050565b6132db816132c8565b81146132e657600080fd5b50565b6000813590506132f8816132d2565b92915050565b60006020828403121561331457613313613148565b5b6000613322848285016132e9565b91505092915050565b600073ffffffffffffffffffffffffffffffffffffffff82169050919050565b60006133568261332b565b9050919050565b6133668161334b565b82525050565b6000602082019050613381600083018461335d565b92915050565b6133908161334b565b811461339b57600080fd5b50565b6000813590506133ad81613387565b92915050565b600080604083850312156133ca576133c9613148565b5b60006133d88582860161339e565b92505060206133e9858286016132e9565b9150509250929050565b60006020828403121561340957613408613148565b5b60006134178482850161339e565b91505092915050565b613429816132c8565b82525050565b60006020820190506134446000830184613420565b92915050565b60008060006060848603121561346357613462613148565b5b60006134718682870161339e565b93505060206134828682870161339e565b9250506040613493868287016132e9565b9150509250925092565b6134a6816131d7565b81146134b157600080fd5b50565b6000813590506134c38161349d565b92915050565b600080604083850312156134e0576134df613148565b5b60006134ee8582860161339e565b92505060206134ff858286016134b4565b9150509250929050565b600080fd5b600080fd5b7f4e487b7100000000000000000000000000000000000000000000000000000000600052604160045260246000fd5b61354b8261325c565b810181811067ffffffffffffffff8211171561356a57613569613513565b5b80604052505050565b600061357d61313e565b90506135898282613542565b919050565b600067ffffffffffffffff8211156135a9576135a8613513565b5b6135b28261325c565b9050602081019050919050565b82818337600083830152505050565b60006135e16135dc8461358e565b613573565b9050828152602081018484840111156135fd576135fc61350e565b5b6136088482856135bf565b509392505050565b600082601f83011261362557613624613509565b5b81356136358482602086016135ce565b91505092915050565b6000806000806080858703121561365857613657613148565b5b60006136668782880161339e565b94505060206136778782880161339e565b9350506040613688878288016132e9565b925050606085013567ffffffffffffffff8111156136a9576136a861314d565b5b6136b587828801613610565b91505092959194509250565b600067ffffffffffffffff8211156136dc576136db613513565b5b6136e58261325c565b9050602081019050919050565b6000613705613700846136c1565b613573565b9050828152602081018484840111156137215761372061350e565b5b61372c8482856135bf565b509392505050565b600082601f83011261374957613748613509565b5b81356137598482602086016136f2565b91505092915050565b6000806040838503121561377957613778613148565b5b60006137878582860161339e565b925050602083013567ffffffffffffffff8111156137a8576137a761314d565b5b6137b485828601613734565b9150509250929050565b600080604083850312156137d5576137d4613148565b5b60006137e38582860161339e565b92505060206137f48582860161339e565b9150509250929050565b7f4e487b7100000000000000000000000000000000000000000000000000000000600052602260045260246000fd5b6000600282049050600182168061384557607f821691505b602082108103613858576138576137fe565b5b50919050565b7f4552433732313a20617070726f76656420717565727920666f72206e6f6e657860008201527f697374656e7420746f6b656e0000000000000000000000000000000000000000602082015250565b60006138ba602c83613218565b91506138c58261385e565b604082019050919050565b600060208201905081810360008301526138e9816138ad565b9050919050565b7f4552433732313a20617070726f76616c20746f2063757272656e74206f776e6560008201527f7200000000000000000000000000000000000000000000000000000000000000602082015250565b600061394c602183613218565b9150613957826138f0565b604082019050919050565b6000602082019050818103600083015261397b8161393f565b9050919050565b7f4552433732313a20617070726f76652063616c6c6572206973206e6f74206f7760008201527f6e6572206e6f7220617070726f76656420666f7220616c6c0000000000000000602082015250565b60006139de603883613218565b91506139e982613982565b604082019050919050565b60006020820190508181036000830152613a0d816139d1565b9050919050565b7f4552433732313a207472616e736665722063616c6c6572206973206e6f74206f60008201527f776e6572206e6f7220617070726f766564000000000000000000000000000000602082015250565b6000613a70603183613218565b9150613a7b82613a14565b604082019050919050565b60006020820190508181036000830152613a9f81613a63565b9050919050565b7f455243373231456e756d657261626c653a206f776e657220696e646578206f7560008201527f74206f6620626f756e6473000000000000000000000000000000000000000000602082015250565b6000613b02602b83613218565b9150613b0d82613aa6565b604082019050919050565b60006020820190508181036000830152613b3181613af5565b9050919050565b7f4f776e61626c653a2063616c6c6572206973206e6f7420746865206f776e6572600082015250565b6000613b6e602083613218565b9150613b7982613b38565b602082019050919050565b60006020820190508181036000830152613b9d81613b61565b9050919050565b7f4552433732314275726e61626c653a2063616c6c6572206973206e6f74206f7760008201527f6e6572206e6f7220617070726f76656400000000000000000000000000000000602082015250565b6000613c00603083613218565b9150613c0b82613ba4565b604082019050919050565b60006020820190508181036000830152613c2f81613bf3565b9050919050565b7f455243373231456e756d657261626c653a20676c6f62616c20696e646578206f60008201527f7574206f6620626f756e64730000000000000000000000000000000000000000602082015250565b6000613c92602c83613218565b9150613c9d82613c36565b604082019050919050565b60006020820190508181036000830152613cc181613c85565b9050919050565b7f4e487b7100000000000000000000000000000000000000000000000000000000600052603260045260246000fd5b7f4552433732313a206f776e657220717565727920666f72206e6f6e657869737460008201527f656e7420746f6b656e0000000000000000000000000000000000000000000000602082015250565b6000613d53602983613218565b9150613d5e82613cf7565b604082019050919050565b60006020820190508181036000830152613d8281613d46565b9050919050565b7f4e487b7100000000000000000000000000000000000000000000000000000000600052601160045260246000fd5b6000613dc3826132c8565b9150613dce836132c8565b9250827fffffffffffffffffffffffffffffffffffffffffffffffffffffffffffffffff03821115613e0357613e02613d89565b5b828201905092915050565b7f4552433732313a2062616c616e636520717565727920666f7220746865207a6560008201527f726f206164647265737300000000000000000000000000000000000000000000602082015250565b6000613e6a602a83613218565b9150613e7582613e0e565b604082019050919050565b60006020820190508181036000830152613e9981613e5d565b9050919050565b7f4f776e61626c653a206e6577206f776e657220697320746865207a65726f206160008201527f6464726573730000000000000000000000000000000000000000000000000000602082015250565b6000613efc602683613218565b9150613f0782613ea0565b604082019050919050565b60006020820190508181036000830152613f2b81613eef565b9050919050565b6000613f3d826132c8565b91507fffffffffffffffffffffffffffffffffffffffffffffffffffffffffffffffff8203613f6f57613f6e613d89565b5b600182019050919050565b7f4552433732313a206f70657261746f7220717565727920666f72206e6f6e657860008201527f697374656e7420746f6b656e0000000000000000000000000000000000000000602082015250565b6000613fd6602c83613218565b9150613fe182613f7a565b604082019050919050565b6000602082019050818103600083015261400581613fc9565b9050919050565b7f4552433732313a207472616e736665722066726f6d20696e636f72726563742060008201527f6f776e6572000000000000000000000000000000000000000000000000000000602082015250565b6000614068602583613218565b91506140738261400c565b604082019050919050565b600060208201905081810360008301526140978161405b565b9050919050565b7f4552433732313a207472616e7366657220746f20746865207a65726f2061646460008201527f7265737300000000000000000000000000000000000000000000000000000000602082015250565b60006140fa602483613218565b91506141058261409e565b604082019050919050565b60006020820190508181036000830152614129816140ed565b9050919050565b600061413b826132c8565b9150614146836132c8565b92508282101561415957614158613d89565b5b828203905092915050565b7f5061757361626c653a206e6f7420706175736564000000000000000000000000600082015250565b600061419a601483613218565b91506141a582614164565b602082019050919050565b600060208201905081810360008301526141c98161418d565b9050919050565b7f5061757361626c653a2070617573656400000000000000000000000000000000600082015250565b6000614206601083613218565b9150614211826141d0565b602082019050919050565b60006020820190508181036000830152614235816141f9565b9050919050565b7f4552433732313a20617070726f766520746f2063616c6c657200000000000000600082015250565b6000614272601983613218565b915061427d8261423c565b602082019050919050565b600060208201905081810360008301526142a181614265565b9050919050565b7f4552433732313a207472616e7366657220746f206e6f6e20455243373231526560008201527f63656976657220696d706c656d656e7465720000000000000000000000000000602082015250565b6000614304603283613218565b915061430f826142a8565b604082019050919050565b60006020820190508181036000830152614333816142f7565b9050919050565b7f4552433732313a206d696e7420746f20746865207a65726f2061646472657373600082015250565b6000614370602083613218565b915061437b8261433a565b602082019050919050565b6000602082019050818103600083015261439f81614363565b9050919050565b7f4552433732313a20746f6b656e20616c7265616479206d696e74656400000000600082015250565b60006143dc601c83613218565b91506143e7826143a6565b602082019050919050565b6000602082019050818103600083015261440b816143cf565b9050919050565b7f45524337323155524953746f726167653a2055524920736574206f66206e6f6e60008201527f6578697374656e7420746f6b656e000000000000000000000000000000000000602082015250565b600061446e602e83613218565b915061447982614412565b604082019050919050565b6000602082019050818103600083015261449d81614461565b9050919050565b7f45524337323155524953746f726167653a2055524920717565727920666f722060008201527f6e6f6e6578697374656e7420746f6b656e000000000000000000000000000000602082015250565b6000614500603183613218565b915061450b826144a4565b604082019050919050565b6000602082019050818103600083015261452f816144f3565b9050919050565b600081905092915050565b600061454c8261320d565b6145568185614536565b9350614566818560208601613229565b80840191505092915050565b600061457e8285614541565b915061458a8284614541565b91508190509392505050565b600081519050919050565b600082825260208201905092915050565b60006145bd82614596565b6145c781856145a1565b93506145d7818560208601613229565b6145e08161325c565b840191505092915050565b6000608082019050614600600083018761335d565b61460d602083018661335d565b61461a6040830185613420565b818103606083015261462c81846145b2565b905095945050505050565b6000815190506146468161317e565b92915050565b60006020828403121561466257614661613148565b5b600061467084828501614637565b91505092915050565b7f4552433732314d657461646174613a2055524920717565727920666f72206e6f60008201527f6e6578697374656e7420746f6b656e0000000000000000000000000000000000602082015250565b60006146d5602f83613218565b91506146e082614679565b604082019050919050565b60006020820190508181036000830152614704816146c8565b9050919050565b7f4e487b7100000000000000000000000000000000000000000000000000000000600052601260045260246000fd5b6000614745826132c8565b9150614750836132c8565b9250826147605761475f61470b565b5b828204905092915050565b6000614776826132c8565b9150614781836132c8565b9250826147915761479061470b565b5b828206905092915050565b7f4e487b7100000000000000000000000000000000000000000000000000000000600052603160045260246000fdfe68747470733a2f2f6a3770647a743870757470392e7573656d6f72616c69732e636f6d3a323035332f736572766572a2646970667358221220153c29773f00865d8dac2eb53e4a94e9d092cf19e3102690efeec2012387c22664736f6c634300080d0033",
  "immutableReferences": {},
  "source": "// SPDX-License-Identifier: MIT\r\npragma solidity ^0.8.4;\r\n\r\nimport \"@openzeppelin/contracts/token/ERC721/ERC721.sol\";\r\nimport \"@openzeppelin/contracts/token/ERC721/extensions/ERC721Enumerable.sol\";\r\nimport \"@openzeppelin/contracts/token/ERC721/extensions/ERC721URIStorage.sol\";\r\nimport \"@openzeppelin/contracts/security/Pausable.sol\";\r\nimport \"@openzeppelin/contracts/access/Ownable.sol\";\r\nimport \"@openzeppelin/contracts/token/ERC721/extensions/ERC721Burnable.sol\";\r\nimport \"@openzeppelin/contracts/utils/Counters.sol\";\r\nimport \"@openzeppelin/contracts/token/ERC721/extensions/IERC721Metadata.sol\";\r\n\r\ncontract RocketToken is ERC721, ERC721Enumerable, ERC721URIStorage, Pausable, Ownable, ERC721Burnable {\r\n    using Counters for Counters.Counter;\r\n\r\n    Counters.Counter private _tokenIdCounter;\r\n\r\n    address RocketTokenERC20Address = 0x5B38Da6a701c568545dCfcB03FcB875f56beddC4;\r\n    address[] addressList;\r\n    uint public balanceReceived;\r\n    uint deployDate;\r\n\r\n    mapping(address => bool) public hasReceivedFreeNFT;\r\n\r\n    constructor() ERC721(\"RocketToken\", \"ROCKET\") {\r\n    }\r\n\r\n    function _baseURI() internal pure override returns (string memory) {\r\n        return \"https://j7pdzt8putp9.usemoralis.com:2053/server\";\r\n    }\r\n\r\n\r\n    function pause() public onlyOwner {\r\n        _pause();\r\n    }\r\n\r\n    function unpause() public onlyOwner {\r\n        _unpause();\r\n    }\r\n\r\n    function safeMint(address to, string memory uri) public onlyOwner {\r\n        uint256 tokenId = _tokenIdCounter.current();\r\n        _tokenIdCounter.increment();\r\n        _safeMint(to, tokenId);\r\n        _setTokenURI(tokenId, uri);\r\n    }\r\n\r\n    function _beforeTokenTransfer(address from, address to, uint256 tokenId)\r\n        internal\r\n        whenNotPaused\r\n        override(ERC721, ERC721Enumerable)\r\n    {\r\n        super._beforeTokenTransfer(from, to, tokenId);\r\n    }\r\n\r\n    // The following functions are overrides required by Solidity.\r\n\r\n    function _burn(uint256 tokenId) internal override(ERC721, ERC721URIStorage) {\r\n        super._burn(tokenId);\r\n    }\r\n\r\n    function tokenURI(uint256 tokenId)\r\n        public\r\n        view\r\n        override(ERC721, ERC721URIStorage)\r\n        returns (string memory)\r\n    {\r\n        return super.tokenURI(tokenId);\r\n    }\r\n\r\n    function supportsInterface(bytes4 interfaceId)\r\n        public\r\n        view\r\n        override(ERC721, ERC721Enumerable)\r\n        returns (bool)\r\n    {\r\n        return super.supportsInterface(interfaceId);\r\n    }\r\n\r\n    function receiveMoney() public payable {\r\n        balanceReceived += msg.value;\r\n    }\r\n\r\n    function getBalance() public view returns(uint) {\r\n        return address(this).balance;\r\n    }\r\n\r\n    function withdrawMoney() public {\r\n        address payable to = payable(msg.sender);\r\n        to.transfer(getBalance());\r\n    }\r\n\r\n    function freeEligible() public onlyOwner {\r\n        addressList =  [\r\n            0xd1679bB3543e8aD195FF9f3Ac3436039bA389237,\r\n            0xF4F555ca1586C40067cd215578f123d30813De02,\r\n            0x5563D3361408D41BF172E3720C30b0e35F19A444,\r\n            0x6ffdAf0795D208c11C583C88Cb5dbd2A8955A59e\r\n        ];\r\n    }\r\n\r\n    function checkNFT(address _address) public view onlyOwner returns(bool) {\r\n        return hasReceivedFreeNFT[_address];\r\n    }\r\n\r\n    // Send free token to those that haven't received one yet\r\n    function NFTGift(address receiver) public {\r\n        //Grab list of eligible addresses, check if the receiver got token already\r\n        freeEligible();\r\n        for (uint i = 0; i < addressList.length; i++) {\r\n            if (receiver == addressList[i] && !hasReceivedFreeNFT[receiver]) {\r\n                //Mint 1 new token to the receiver\r\n                safeMint(receiver, \"\");\r\n                _tokenIdCounter.increment();\r\n                hasReceivedFreeNFT[receiver] = true;\r\n            }\r\n        }\r\n    }\r\n\r\n    function mintROCKET_ERC20(address to, string memory uri)\r\n        public onlyOwner\r\n        returns (uint256)\r\n    {\r\n        uint256 tokenId = _tokenIdCounter.current();\r\n        _tokenIdCounter.increment();\r\n\r\n        _mint(to, tokenId);\r\n        _setTokenURI(tokenId, uri);\r\n\r\n        return tokenId;\r\n    }\r\n}",
  "sourcePath": "C:\\Users\\Troy Wever\\OneDrive\\Documents\\GitHub\\Rocket_Elevators_Blockchain\\contracts\\RocketToken.sol",
  "compiler": {
    "name": "solc",
    "version": "0.8.13+commit.abaa5c0e.Emscripten.clang"
  },
  "schemaVersion": "3.4.7",
  "updatedAt": "2022-05-08T19:18:32.365Z",
  "devdoc": {
    "kind": "dev",
    "methods": {
      "approve(address,uint256)": {
        "details": "See {IERC721-approve}."
      },
      "balanceOf(address)": {
        "details": "See {IERC721-balanceOf}."
      },
      "burn(uint256)": {
        "details": "Burns `tokenId`. See {ERC721-_burn}. Requirements: - The caller must own `tokenId` or be an approved operator."
      },
      "getApproved(uint256)": {
        "details": "See {IERC721-getApproved}."
      },
      "isApprovedForAll(address,address)": {
        "details": "See {IERC721-isApprovedForAll}."
      },
      "name()": {
        "details": "See {IERC721Metadata-name}."
      },
      "owner()": {
        "details": "Returns the address of the current owner."
      },
      "ownerOf(uint256)": {
        "details": "See {IERC721-ownerOf}."
      },
      "paused()": {
        "details": "Returns true if the contract is paused, and false otherwise."
      },
      "renounceOwnership()": {
        "details": "Leaves the contract without owner. It will not be possible to call `onlyOwner` functions anymore. Can only be called by the current owner. NOTE: Renouncing ownership will leave the contract without an owner, thereby removing any functionality that is only available to the owner."
      },
      "safeTransferFrom(address,address,uint256)": {
        "details": "See {IERC721-safeTransferFrom}."
      },
      "safeTransferFrom(address,address,uint256,bytes)": {
        "details": "See {IERC721-safeTransferFrom}."
      },
      "setApprovalForAll(address,bool)": {
        "details": "See {IERC721-setApprovalForAll}."
      },
      "symbol()": {
        "details": "See {IERC721Metadata-symbol}."
      },
      "tokenByIndex(uint256)": {
        "details": "See {IERC721Enumerable-tokenByIndex}."
      },
      "tokenOfOwnerByIndex(address,uint256)": {
        "details": "See {IERC721Enumerable-tokenOfOwnerByIndex}."
      },
      "totalSupply()": {
        "details": "See {IERC721Enumerable-totalSupply}."
      },
      "transferFrom(address,address,uint256)": {
        "details": "See {IERC721-transferFrom}."
      },
      "transferOwnership(address)": {
        "details": "Transfers ownership of the contract to a new account (`newOwner`). Can only be called by the current owner."
      }
    },
    "version": 1
  },
  "userdoc": {
    "kind": "user",
    "methods": {},
    "version": 1
  }
}