{
  "contractName": "RocketToken",
  "abi": [
    {
      "inputs": [],
      "stateMutability": "nonpayable",
      "type": "constructor"
    },
    {
      "anonymous": false,
      "inputs": [
        {
          "indexed": true,
          "internalType": "address",
          "name": "owner",
          "type": "address"
        },
        {
          "indexed": true,
          "internalType": "address",
          "name": "approved",
          "type": "address"
        },
        {
          "indexed": true,
          "internalType": "uint256",
          "name": "tokenId",
          "type": "uint256"
        }
      ],
      "name": "Approval",
      "type": "event"
    },
    {
      "anonymous": false,
      "inputs": [
        {
          "indexed": true,
          "internalType": "address",
          "name": "owner",
          "type": "address"
        },
        {
          "indexed": true,
          "internalType": "address",
          "name": "operator",
          "type": "address"
        },
        {
          "indexed": false,
          "internalType": "bool",
          "name": "approved",
          "type": "bool"
        }
      ],
      "name": "ApprovalForAll",
      "type": "event"
    },
    {
      "anonymous": false,
      "inputs": [
        {
          "indexed": true,
          "internalType": "address",
          "name": "previousOwner",
          "type": "address"
        },
        {
          "indexed": true,
          "internalType": "address",
          "name": "newOwner",
          "type": "address"
        }
      ],
      "name": "OwnershipTransferred",
      "type": "event"
    },
    {
      "anonymous": false,
      "inputs": [
        {
          "indexed": false,
          "internalType": "address",
          "name": "account",
          "type": "address"
        }
      ],
      "name": "Paused",
      "type": "event"
    },
    {
      "anonymous": false,
      "inputs": [
        {
          "indexed": true,
          "internalType": "address",
          "name": "from",
          "type": "address"
        },
        {
          "indexed": true,
          "internalType": "address",
          "name": "to",
          "type": "address"
        },
        {
          "indexed": true,
          "internalType": "uint256",
          "name": "tokenId",
          "type": "uint256"
        }
      ],
      "name": "Transfer",
      "type": "event"
    },
    {
      "anonymous": false,
      "inputs": [
        {
          "indexed": false,
          "internalType": "address",
          "name": "account",
          "type": "address"
        }
      ],
      "name": "Unpaused",
      "type": "event"
    },
    {
      "inputs": [
        {
          "internalType": "address",
          "name": "to",
          "type": "address"
        },
        {
          "internalType": "uint256",
          "name": "tokenId",
          "type": "uint256"
        }
      ],
      "name": "approve",
      "outputs": [],
      "stateMutability": "nonpayable",
      "type": "function"
    },
    {
      "inputs": [
        {
          "internalType": "address",
          "name": "owner",
          "type": "address"
        }
      ],
      "name": "balanceOf",
      "outputs": [
        {
          "internalType": "uint256",
          "name": "",
          "type": "uint256"
        }
      ],
      "stateMutability": "view",
      "type": "function",
      "constant": true
    },
    {
      "inputs": [],
      "name": "balanceReceived",
      "outputs": [
        {
          "internalType": "uint256",
          "name": "",
          "type": "uint256"
        }
      ],
      "stateMutability": "view",
      "type": "function",
      "constant": true
    },
    {
      "inputs": [
        {
          "internalType": "uint256",
          "name": "tokenId",
          "type": "uint256"
        }
      ],
      "name": "burn",
      "outputs": [],
      "stateMutability": "nonpayable",
      "type": "function"
    },
    {
      "inputs": [
        {
          "internalType": "uint256",
          "name": "tokenId",
          "type": "uint256"
        }
      ],
      "name": "getApproved",
      "outputs": [
        {
          "internalType": "address",
          "name": "",
          "type": "address"
        }
      ],
      "stateMutability": "view",
      "type": "function",
      "constant": true
    },
    {
      "inputs": [
        {
          "internalType": "address",
          "name": "",
          "type": "address"
        }
      ],
      "name": "hasReceivedFreeNFT",
      "outputs": [
        {
          "internalType": "bool",
          "name": "",
          "type": "bool"
        }
      ],
      "stateMutability": "view",
      "type": "function",
      "constant": true
    },
    {
      "inputs": [
        {
          "internalType": "address",
          "name": "owner",
          "type": "address"
        },
        {
          "internalType": "address",
          "name": "operator",
          "type": "address"
        }
      ],
      "name": "isApprovedForAll",
      "outputs": [
        {
          "internalType": "bool",
          "name": "",
          "type": "bool"
        }
      ],
      "stateMutability": "view",
      "type": "function",
      "constant": true
    },
    {
      "inputs": [],
      "name": "name",
      "outputs": [
        {
          "internalType": "string",
          "name": "",
          "type": "string"
        }
      ],
      "stateMutability": "view",
      "type": "function",
      "constant": true
    },
    {
      "inputs": [],
      "name": "owner",
      "outputs": [
        {
          "internalType": "address",
          "name": "",
          "type": "address"
        }
      ],
      "stateMutability": "view",
      "type": "function",
      "constant": true
    },
    {
      "inputs": [
        {
          "internalType": "uint256",
          "name": "tokenId",
          "type": "uint256"
        }
      ],
      "name": "ownerOf",
      "outputs": [
        {
          "internalType": "address",
          "name": "",
          "type": "address"
        }
      ],
      "stateMutability": "view",
      "type": "function",
      "constant": true
    },
    {
      "inputs": [],
      "name": "paused",
      "outputs": [
        {
          "internalType": "bool",
          "name": "",
          "type": "bool"
        }
      ],
      "stateMutability": "view",
      "type": "function",
      "constant": true
    },
    {
      "inputs": [],
      "name": "renounceOwnership",
      "outputs": [],
      "stateMutability": "nonpayable",
      "type": "function"
    },
    {
      "inputs": [
        {
          "internalType": "address",
          "name": "from",
          "type": "address"
        },
        {
          "internalType": "address",
          "name": "to",
          "type": "address"
        },
        {
          "internalType": "uint256",
          "name": "tokenId",
          "type": "uint256"
        }
      ],
      "name": "safeTransferFrom",
      "outputs": [],
      "stateMutability": "nonpayable",
      "type": "function"
    },
    {
      "inputs": [
        {
          "internalType": "address",
          "name": "from",
          "type": "address"
        },
        {
          "internalType": "address",
          "name": "to",
          "type": "address"
        },
        {
          "internalType": "uint256",
          "name": "tokenId",
          "type": "uint256"
        },
        {
          "internalType": "bytes",
          "name": "_data",
          "type": "bytes"
        }
      ],
      "name": "safeTransferFrom",
      "outputs": [],
      "stateMutability": "nonpayable",
      "type": "function"
    },
    {
      "inputs": [
        {
          "internalType": "address",
          "name": "operator",
          "type": "address"
        },
        {
          "internalType": "bool",
          "name": "approved",
          "type": "bool"
        }
      ],
      "name": "setApprovalForAll",
      "outputs": [],
      "stateMutability": "nonpayable",
      "type": "function"
    },
    {
      "inputs": [],
      "name": "symbol",
      "outputs": [
        {
          "internalType": "string",
          "name": "",
          "type": "string"
        }
      ],
      "stateMutability": "view",
      "type": "function",
      "constant": true
    },
    {
      "inputs": [
        {
          "internalType": "uint256",
          "name": "index",
          "type": "uint256"
        }
      ],
      "name": "tokenByIndex",
      "outputs": [
        {
          "internalType": "uint256",
          "name": "",
          "type": "uint256"
        }
      ],
      "stateMutability": "view",
      "type": "function",
      "constant": true
    },
    {
      "inputs": [
        {
          "internalType": "address",
          "name": "owner",
          "type": "address"
        },
        {
          "internalType": "uint256",
          "name": "index",
          "type": "uint256"
        }
      ],
      "name": "tokenOfOwnerByIndex",
      "outputs": [
        {
          "internalType": "uint256",
          "name": "",
          "type": "uint256"
        }
      ],
      "stateMutability": "view",
      "type": "function",
      "constant": true
    },
    {
      "inputs": [],
      "name": "totalSupply",
      "outputs": [
        {
          "internalType": "uint256",
          "name": "",
          "type": "uint256"
        }
      ],
      "stateMutability": "view",
      "type": "function",
      "constant": true
    },
    {
      "inputs": [
        {
          "internalType": "address",
          "name": "from",
          "type": "address"
        },
        {
          "internalType": "address",
          "name": "to",
          "type": "address"
        },
        {
          "internalType": "uint256",
          "name": "tokenId",
          "type": "uint256"
        }
      ],
      "name": "transferFrom",
      "outputs": [],
      "stateMutability": "nonpayable",
      "type": "function"
    },
    {
      "inputs": [
        {
          "internalType": "address",
          "name": "newOwner",
          "type": "address"
        }
      ],
      "name": "transferOwnership",
      "outputs": [],
      "stateMutability": "nonpayable",
      "type": "function"
    },
    {
      "inputs": [],
      "name": "pause",
      "outputs": [],
      "stateMutability": "nonpayable",
      "type": "function"
    },
    {
      "inputs": [],
      "name": "unpause",
      "outputs": [],
      "stateMutability": "nonpayable",
      "type": "function"
    },
    {
      "inputs": [
        {
          "internalType": "address",
          "name": "to",
          "type": "address"
        },
        {
          "internalType": "string",
          "name": "uri",
          "type": "string"
        }
      ],
      "name": "safeMint",
      "outputs": [],
      "stateMutability": "nonpayable",
      "type": "function"
    },
    {
      "inputs": [
        {
          "internalType": "uint256",
          "name": "tokenId",
          "type": "uint256"
        }
      ],
      "name": "tokenURI",
      "outputs": [
        {
          "internalType": "string",
          "name": "",
          "type": "string"
        }
      ],
      "stateMutability": "view",
      "type": "function",
      "constant": true
    },
    {
      "inputs": [
        {
          "internalType": "bytes4",
          "name": "interfaceId",
          "type": "bytes4"
        }
      ],
      "name": "supportsInterface",
      "outputs": [
        {
          "internalType": "bool",
          "name": "",
          "type": "bool"
        }
      ],
      "stateMutability": "view",
      "type": "function",
      "constant": true
    },
    {
      "inputs": [],
      "name": "receiveMoney",
      "outputs": [],
      "stateMutability": "payable",
      "type": "function",
      "payable": true
    },
    {
      "inputs": [],
      "name": "getBalance",
      "outputs": [
        {
          "internalType": "uint256",
          "name": "",
          "type": "uint256"
        }
      ],
      "stateMutability": "view",
      "type": "function",
      "constant": true
    },
    {
      "inputs": [],
      "name": "withdrawMoney",
      "outputs": [],
      "stateMutability": "nonpayable",
      "type": "function"
    },
    {
      "inputs": [],
      "name": "freeEligible",
      "outputs": [],
      "stateMutability": "nonpayable",
      "type": "function"
    },
    {
      "inputs": [
        {
          "internalType": "address",
          "name": "_address",
          "type": "address"
        }
      ],
      "name": "checkNFT",
      "outputs": [
        {
          "internalType": "bool",
          "name": "",
          "type": "bool"
        }
      ],
      "stateMutability": "view",
      "type": "function",
      "constant": true
    },
    {
      "inputs": [
        {
          "internalType": "address",
          "name": "receiver",
          "type": "address"
        }
      ],
      "name": "NFTGift",
      "outputs": [],
      "stateMutability": "nonpayable",
      "type": "function"
    }
  ],
  "bytecode": "0x60806040523480156200001157600080fd5b506040518060400160405280600b81526020017f526f636b6574546f6b656e0000000000000000000000000000000000000000008152506040518060400160405280600681526020017f524f434b45540000000000000000000000000000000000000000000000000000815250816000908051906020019062000096929190620001c1565b508060019080519060200190620000af929190620001c1565b5050506000600b60006101000a81548160ff021916908315150217905550620000ed620000e1620000f360201b60201c565b620000fb60201b60201c565b620002d5565b600033905090565b6000600b60019054906101000a900473ffffffffffffffffffffffffffffffffffffffff16905081600b60016101000a81548173ffffffffffffffffffffffffffffffffffffffff021916908373ffffffffffffffffffffffffffffffffffffffff1602179055508173ffffffffffffffffffffffffffffffffffffffff168173ffffffffffffffffffffffffffffffffffffffff167f8be0079c531659141344cd1fd0a4f28419497f9722a3daafe3b4186f6b6457e060405160405180910390a35050565b828054620001cf90620002a0565b90600052602060002090601f016020900481019282620001f357600085556200023f565b82601f106200020e57805160ff19168380011785556200023f565b828001600101855582156200023f579182015b828111156200023e57825182559160200191906001019062000221565b5b5090506200024e919062000252565b5090565b5b808211156200026d57600081600090555060010162000253565b5090565b7f4e487b7100000000000000000000000000000000000000000000000000000000600052602260045260246000fd5b60006002820490506001821680620002b957607f821691505b602082108103620002cf57620002ce62000271565b5b50919050565b61473480620002e56000396000f3fe6080604052600436106101e35760003560e01c80636352211e11610102578063ac44600211610095578063d204c45e11610064578063d204c45e146106ad578063e985e9c5146106d6578063f2fde38b14610713578063f917916d1461073c576101e3565b8063ac446002146105f3578063b88d4fde1461060a578063ba8c2ace14610633578063c87b56dd14610670576101e3565b80638456cb59116100d15780638456cb591461055d5780638da5cb5b1461057457806395d89b411461059f578063a22cb465146105ca576101e3565b80636352211e146104c25780636d26ec18146104ff57806370a0823114610509578063715018a614610546576101e3565b80632f745c591161017a5780634e2f567c116101495780634e2f567c146104185780634f6ccce71461042f57806352a90c421461046c5780635c975abb14610497576101e3565b80632f745c59146103725780633f4ba83a146103af57806342842e0e146103c657806342966c68146103ef576101e3565b80630c751cdb116101b65780630c751cdb146102b657806312065fe0146102f357806318160ddd1461031e57806323b872dd14610349576101e3565b806301ffc9a7146101e857806306fdde0314610225578063081812fc14610250578063095ea7b31461028d575b600080fd5b3480156101f457600080fd5b5061020f600480360381019061020a91906130ae565b610765565b60405161021c91906130f6565b60405180910390f35b34801561023157600080fd5b5061023a610777565b60405161024791906131aa565b60405180910390f35b34801561025c57600080fd5b5061027760048036038101906102729190613202565b610809565b6040516102849190613270565b60405180910390f35b34801561029957600080fd5b506102b460048036038101906102af91906132b7565b61088e565b005b3480156102c257600080fd5b506102dd60048036038101906102d891906132f7565b6109a5565b6040516102ea91906130f6565b60405180910390f35b3480156102ff57600080fd5b506103086109c5565b6040516103159190613333565b60405180910390f35b34801561032a57600080fd5b506103336109cd565b6040516103409190613333565b60405180910390f35b34801561035557600080fd5b50610370600480360381019061036b919061334e565b6109da565b005b34801561037e57600080fd5b50610399600480360381019061039491906132b7565b610a3a565b6040516103a69190613333565b60405180910390f35b3480156103bb57600080fd5b506103c4610adf565b005b3480156103d257600080fd5b506103ed60048036038101906103e8919061334e565b610b65565b005b3480156103fb57600080fd5b5061041660048036038101906104119190613202565b610b85565b005b34801561042457600080fd5b5061042d610be1565b005b34801561043b57600080fd5b5061045660048036038101906104519190613202565b610d91565b6040516104639190613333565b60405180910390f35b34801561047857600080fd5b50610481610e02565b60405161048e9190613333565b60405180910390f35b3480156104a357600080fd5b506104ac610e08565b6040516104b991906130f6565b60405180910390f35b3480156104ce57600080fd5b506104e960048036038101906104e49190613202565b610e1f565b6040516104f69190613270565b60405180910390f35b610507610ed0565b005b34801561051557600080fd5b50610530600480360381019061052b91906132f7565b610eeb565b60405161053d9190613333565b60405180910390f35b34801561055257600080fd5b5061055b610fa2565b005b34801561056957600080fd5b5061057261102a565b005b34801561058057600080fd5b506105896110b0565b6040516105969190613270565b60405180910390f35b3480156105ab57600080fd5b506105b46110da565b6040516105c191906131aa565b60405180910390f35b3480156105d657600080fd5b506105f160048036038101906105ec91906133cd565b61116c565b005b3480156105ff57600080fd5b50610608611182565b005b34801561061657600080fd5b50610631600480360381019061062c9190613542565b6111d8565b005b34801561063f57600080fd5b5061065a600480360381019061065591906132f7565b61123a565b60405161066791906130f6565b60405180910390f35b34801561067c57600080fd5b5061069760048036038101906106929190613202565b61130c565b6040516106a491906131aa565b60405180910390f35b3480156106b957600080fd5b506106d460048036038101906106cf9190613666565b61131e565b005b3480156106e257600080fd5b506106fd60048036038101906106f891906136c2565b6113cb565b60405161070a91906130f6565b60405180910390f35b34801561071f57600080fd5b5061073a600480360381019061073591906132f7565b61145f565b005b34801561074857600080fd5b50610763600480360381019061075e91906132f7565b611556565b005b6000610770826116c9565b9050919050565b60606000805461078690613731565b80601f01602080910402602001604051908101604052809291908181526020018280546107b290613731565b80156107ff5780601f106107d4576101008083540402835291602001916107ff565b820191906000526020600020905b8154815290600101906020018083116107e257829003601f168201915b5050505050905090565b600061081482611743565b610853576040517f08c379a000000000000000000000000000000000000000000000000000000000815260040161084a906137d4565b60405180910390fd5b6004600083815260200190815260200160002060009054906101000a900473ffffffffffffffffffffffffffffffffffffffff169050919050565b600061089982610e1f565b90508073ffffffffffffffffffffffffffffffffffffffff168373ffffffffffffffffffffffffffffffffffffffff1603610909576040517f08c379a000000000000000000000000000000000000000000000000000000000815260040161090090613866565b60405180910390fd5b8073ffffffffffffffffffffffffffffffffffffffff166109286117af565b73ffffffffffffffffffffffffffffffffffffffff1614806109575750610956816109516117af565b6113cb565b5b610996576040517f08c379a000000000000000000000000000000000000000000000000000000000815260040161098d906138f8565b60405180910390fd5b6109a083836117b7565b505050565b60106020528060005260406000206000915054906101000a900460ff1681565b600047905090565b6000600880549050905090565b6109eb6109e56117af565b82611870565b610a2a576040517f08c379a0000000000000000000000000000000000000000000000000000000008152600401610a219061398a565b60405180910390fd5b610a3583838361194e565b505050565b6000610a4583610eeb565b8210610a86576040517f08c379a0000000000000000000000000000000000000000000000000000000008152600401610a7d90613a1c565b60405180910390fd5b600660008473ffffffffffffffffffffffffffffffffffffffff1673ffffffffffffffffffffffffffffffffffffffff168152602001908152602001600020600083815260200190815260200160002054905092915050565b610ae76117af565b73ffffffffffffffffffffffffffffffffffffffff16610b056110b0565b73ffffffffffffffffffffffffffffffffffffffff1614610b5b576040517f08c379a0000000000000000000000000000000000000000000000000000000008152600401610b5290613a88565b60405180910390fd5b610b63611bb4565b565b610b80838383604051806020016040528060008152506111d8565b505050565b610b96610b906117af565b82611870565b610bd5576040517f08c379a0000000000000000000000000000000000000000000000000000000008152600401610bcc90613b1a565b60405180910390fd5b610bde81611c56565b50565b610be96117af565b73ffffffffffffffffffffffffffffffffffffffff16610c076110b0565b73ffffffffffffffffffffffffffffffffffffffff1614610c5d576040517f08c379a0000000000000000000000000000000000000000000000000000000008152600401610c5490613a88565b60405180910390fd5b604051806080016040528073d1679bb3543e8ad195ff9f3ac3436039ba38923773ffffffffffffffffffffffffffffffffffffffff1673ffffffffffffffffffffffffffffffffffffffff16815260200173f4f555ca1586c40067cd215578f123d30813de0273ffffffffffffffffffffffffffffffffffffffff1673ffffffffffffffffffffffffffffffffffffffff168152602001735563d3361408d41bf172e3720c30b0e35f19a44473ffffffffffffffffffffffffffffffffffffffff1673ffffffffffffffffffffffffffffffffffffffff168152602001736ffdaf0795d208c11c583c88cb5dbd2a8955a59e73ffffffffffffffffffffffffffffffffffffffff1673ffffffffffffffffffffffffffffffffffffffff16815250600d906004610d8e929190612ed5565b50565b6000610d9b6109cd565b8210610ddc576040517f08c379a0000000000000000000000000000000000000000000000000000000008152600401610dd390613bac565b60405180910390fd5b60088281548110610df057610def613bcc565b5b90600052602060002001549050919050565b600e5481565b6000600b60009054906101000a900460ff16905090565b6000806002600084815260200190815260200160002060009054906101000a900473ffffffffffffffffffffffffffffffffffffffff169050600073ffffffffffffffffffffffffffffffffffffffff168173ffffffffffffffffffffffffffffffffffffffff1603610ec7576040517f08c379a0000000000000000000000000000000000000000000000000000000008152600401610ebe90613c6d565b60405180910390fd5b80915050919050565b34600e6000828254610ee29190613cbc565b92505081905550565b60008073ffffffffffffffffffffffffffffffffffffffff168273ffffffffffffffffffffffffffffffffffffffff1603610f5b576040517f08c379a0000000000000000000000000000000000000000000000000000000008152600401610f5290613d84565b60405180910390fd5b600360008373ffffffffffffffffffffffffffffffffffffffff1673ffffffffffffffffffffffffffffffffffffffff168152602001908152602001600020549050919050565b610faa6117af565b73ffffffffffffffffffffffffffffffffffffffff16610fc86110b0565b73ffffffffffffffffffffffffffffffffffffffff161461101e576040517f08c379a000000000000000000000000000000000000000000000000000000000815260040161101590613a88565b60405180910390fd5b6110286000611c62565b565b6110326117af565b73ffffffffffffffffffffffffffffffffffffffff166110506110b0565b73ffffffffffffffffffffffffffffffffffffffff16146110a6576040517f08c379a000000000000000000000000000000000000000000000000000000000815260040161109d90613a88565b60405180910390fd5b6110ae611d28565b565b6000600b60019054906101000a900473ffffffffffffffffffffffffffffffffffffffff16905090565b6060600180546110e990613731565b80601f016020809104026020016040519081016040528092919081815260200182805461111590613731565b80156111625780601f1061113757610100808354040283529160200191611162565b820191906000526020600020905b81548152906001019060200180831161114557829003601f168201915b5050505050905090565b61117e6111776117af565b8383611dcb565b5050565b60003390508073ffffffffffffffffffffffffffffffffffffffff166108fc6111a96109c5565b9081150290604051600060405180830381858888f193505050501580156111d4573d6000803e3d6000fd5b5050565b6111e96111e36117af565b83611870565b611228576040517f08c379a000000000000000000000000000000000000000000000000000000000815260040161121f9061398a565b60405180910390fd5b61123484848484611f37565b50505050565b60006112446117af565b73ffffffffffffffffffffffffffffffffffffffff166112626110b0565b73ffffffffffffffffffffffffffffffffffffffff16146112b8576040517f08c379a00000000000000000000000000000000000000000000000000000000081526004016112af90613a88565b60405180910390fd5b601060008373ffffffffffffffffffffffffffffffffffffffff1673ffffffffffffffffffffffffffffffffffffffff16815260200190815260200160002060009054906101000a900460ff169050919050565b606061131782611f93565b9050919050565b6113266117af565b73ffffffffffffffffffffffffffffffffffffffff166113446110b0565b73ffffffffffffffffffffffffffffffffffffffff161461139a576040517f08c379a000000000000000000000000000000000000000000000000000000000815260040161139190613a88565b60405180910390fd5b60006113a6600c6120e4565b90506113b2600c6120f2565b6113bc8382612108565b6113c68183612126565b505050565b6000600560008473ffffffffffffffffffffffffffffffffffffffff1673ffffffffffffffffffffffffffffffffffffffff16815260200190815260200160002060008373ffffffffffffffffffffffffffffffffffffffff1673ffffffffffffffffffffffffffffffffffffffff16815260200190815260200160002060009054906101000a900460ff16905092915050565b6114676117af565b73ffffffffffffffffffffffffffffffffffffffff166114856110b0565b73ffffffffffffffffffffffffffffffffffffffff16146114db576040517f08c379a00000000000000000000000000000000000000000000000000000000081526004016114d290613a88565b60405180910390fd5b600073ffffffffffffffffffffffffffffffffffffffff168173ffffffffffffffffffffffffffffffffffffffff160361154a576040517f08c379a000000000000000000000000000000000000000000000000000000000815260040161154190613e16565b60405180910390fd5b61155381611c62565b50565b61155e610be1565b60005b600d805490508110156116c557600d818154811061158257611581613bcc565b5b9060005260206000200160009054906101000a900473ffffffffffffffffffffffffffffffffffffffff1673ffffffffffffffffffffffffffffffffffffffff168273ffffffffffffffffffffffffffffffffffffffff161480156116315750601060008373ffffffffffffffffffffffffffffffffffffffff1673ffffffffffffffffffffffffffffffffffffffff16815260200190815260200160002060009054906101000a900460ff16155b156116b25761164f826040518060200160405280600081525061131e565b611659600c6120f2565b6001601060008473ffffffffffffffffffffffffffffffffffffffff1673ffffffffffffffffffffffffffffffffffffffff16815260200190815260200160002060006101000a81548160ff0219169083151502179055505b80806116bd90613e36565b915050611561565b5050565b60007f780e9d63000000000000000000000000000000000000000000000000000000007bffffffffffffffffffffffffffffffffffffffffffffffffffffffff1916827bffffffffffffffffffffffffffffffffffffffffffffffffffffffff1916148061173c575061173b8261219a565b5b9050919050565b60008073ffffffffffffffffffffffffffffffffffffffff166002600084815260200190815260200160002060009054906101000a900473ffffffffffffffffffffffffffffffffffffffff1673ffffffffffffffffffffffffffffffffffffffff1614159050919050565b600033905090565b816004600083815260200190815260200160002060006101000a81548173ffffffffffffffffffffffffffffffffffffffff021916908373ffffffffffffffffffffffffffffffffffffffff160217905550808273ffffffffffffffffffffffffffffffffffffffff1661182a83610e1f565b73ffffffffffffffffffffffffffffffffffffffff167f8c5be1e5ebec7d5bd14f71427d1e84f3dd0314c0f7b2291e5b200ac8c7c3b92560405160405180910390a45050565b600061187b82611743565b6118ba576040517f08c379a00000000000000000000000000000000000000000000000000000000081526004016118b190613ef0565b60405180910390fd5b60006118c583610e1f565b90508073ffffffffffffffffffffffffffffffffffffffff168473ffffffffffffffffffffffffffffffffffffffff161480611907575061190681856113cb565b5b8061194557508373ffffffffffffffffffffffffffffffffffffffff1661192d84610809565b73ffffffffffffffffffffffffffffffffffffffff16145b91505092915050565b8273ffffffffffffffffffffffffffffffffffffffff1661196e82610e1f565b73ffffffffffffffffffffffffffffffffffffffff16146119c4576040517f08c379a00000000000000000000000000000000000000000000000000000000081526004016119bb90613f82565b60405180910390fd5b600073ffffffffffffffffffffffffffffffffffffffff168273ffffffffffffffffffffffffffffffffffffffff1603611a33576040517f08c379a0000000000000000000000000000000000000000000000000000000008152600401611a2a90614014565b60405180910390fd5b611a3e83838361227c565b611a496000826117b7565b6001600360008573ffffffffffffffffffffffffffffffffffffffff1673ffffffffffffffffffffffffffffffffffffffff1681526020019081526020016000206000828254611a999190614034565b925050819055506001600360008473ffffffffffffffffffffffffffffffffffffffff1673ffffffffffffffffffffffffffffffffffffffff1681526020019081526020016000206000828254611af09190613cbc565b92505081905550816002600083815260200190815260200160002060006101000a81548173ffffffffffffffffffffffffffffffffffffffff021916908373ffffffffffffffffffffffffffffffffffffffff160217905550808273ffffffffffffffffffffffffffffffffffffffff168473ffffffffffffffffffffffffffffffffffffffff167fddf252ad1be2c89b69c2b068fc378daa952ba7f163c4a11628f55a4df523b3ef60405160405180910390a4611baf8383836122d4565b505050565b611bbc610e08565b611bfb576040517f08c379a0000000000000000000000000000000000000000000000000000000008152600401611bf2906140b4565b60405180910390fd5b6000600b60006101000a81548160ff0219169083151502179055507f5db9ee0a495bf2e6ff9c91a7834c1ba4fdd244a5e8aa4e537bd38aeae4b073aa611c3f6117af565b604051611c4c9190613270565b60405180910390a1565b611c5f816122d9565b50565b6000600b60019054906101000a900473ffffffffffffffffffffffffffffffffffffffff16905081600b60016101000a81548173ffffffffffffffffffffffffffffffffffffffff021916908373ffffffffffffffffffffffffffffffffffffffff1602179055508173ffffffffffffffffffffffffffffffffffffffff168173ffffffffffffffffffffffffffffffffffffffff167f8be0079c531659141344cd1fd0a4f28419497f9722a3daafe3b4186f6b6457e060405160405180910390a35050565b611d30610e08565b15611d70576040517f08c379a0000000000000000000000000000000000000000000000000000000008152600401611d6790614120565b60405180910390fd5b6001600b60006101000a81548160ff0219169083151502179055507f62e78cea01bee320cd4e420270b5ea74000d11b0c9f74754ebdbfc544b05a258611db46117af565b604051611dc19190613270565b60405180910390a1565b8173ffffffffffffffffffffffffffffffffffffffff168373ffffffffffffffffffffffffffffffffffffffff1603611e39576040517f08c379a0000000000000000000000000000000000000000000000000000000008152600401611e309061418c565b60405180910390fd5b80600560008573ffffffffffffffffffffffffffffffffffffffff1673ffffffffffffffffffffffffffffffffffffffff16815260200190815260200160002060008473ffffffffffffffffffffffffffffffffffffffff1673ffffffffffffffffffffffffffffffffffffffff16815260200190815260200160002060006101000a81548160ff0219169083151502179055508173ffffffffffffffffffffffffffffffffffffffff168373ffffffffffffffffffffffffffffffffffffffff167f17307eab39ab6107e8899845ad3d59bd9653f200f220920489ca2b5937696c3183604051611f2a91906130f6565b60405180910390a3505050565b611f4284848461194e565b611f4e8484848461232c565b611f8d576040517f08c379a0000000000000000000000000000000000000000000000000000000008152600401611f849061421e565b60405180910390fd5b50505050565b6060611f9e82611743565b611fdd576040517f08c379a0000000000000000000000000000000000000000000000000000000008152600401611fd4906142b0565b60405180910390fd5b6000600a60008481526020019081526020016000208054611ffd90613731565b80601f016020809104026020016040519081016040528092919081815260200182805461202990613731565b80156120765780601f1061204b57610100808354040283529160200191612076565b820191906000526020600020905b81548152906001019060200180831161205957829003601f168201915b5050505050905060006120876124b3565b9050600081510361209c5781925050506120df565b6000825111156120d15780826040516020016120b992919061430c565b604051602081830303815290604052925050506120df565b6120da846124d3565b925050505b919050565b600081600001549050919050565b6001816000016000828254019250508190555050565b61212282826040518060200160405280600081525061257a565b5050565b61212f82611743565b61216e576040517f08c379a0000000000000000000000000000000000000000000000000000000008152600401612165906143a2565b60405180910390fd5b80600a60008481526020019081526020016000209080519060200190612195929190612f5f565b505050565b60007f80ac58cd000000000000000000000000000000000000000000000000000000007bffffffffffffffffffffffffffffffffffffffffffffffffffffffff1916827bffffffffffffffffffffffffffffffffffffffffffffffffffffffff1916148061226557507f5b5e139f000000000000000000000000000000000000000000000000000000007bffffffffffffffffffffffffffffffffffffffffffffffffffffffff1916827bffffffffffffffffffffffffffffffffffffffffffffffffffffffff1916145b806122755750612274826125d5565b5b9050919050565b612284610e08565b156122c4576040517f08c379a00000000000000000000000000000000000000000000000000000000081526004016122bb90614120565b60405180910390fd5b6122cf83838361263f565b505050565b505050565b6122e281612751565b6000600a6000838152602001908152602001600020805461230290613731565b90501461232957600a600082815260200190815260200160002060006123289190612fe5565b5b50565b600061234d8473ffffffffffffffffffffffffffffffffffffffff1661286e565b156124a6578373ffffffffffffffffffffffffffffffffffffffff1663150b7a026123766117af565b8786866040518563ffffffff1660e01b81526004016123989493929190614417565b6020604051808303816000875af19250505080156123d457506040513d601f19601f820116820180604052508101906123d19190614478565b60015b612456573d8060008114612404576040519150601f19603f3d011682016040523d82523d6000602084013e612409565b606091505b50600081510361244e576040517f08c379a00000000000000000000000000000000000000000000000000000000081526004016124459061421e565b60405180910390fd5b805181602001fd5b63150b7a0260e01b7bffffffffffffffffffffffffffffffffffffffffffffffffffffffff1916817bffffffffffffffffffffffffffffffffffffffffffffffffffffffff1916149150506124ab565b600190505b949350505050565b60606040518060600160405280602f81526020016146d0602f9139905090565b60606124de82611743565b61251d576040517f08c379a000000000000000000000000000000000000000000000000000000000815260040161251490614517565b60405180910390fd5b60006125276124b3565b905060008151116125475760405180602001604052806000815250612572565b8061255184612891565b60405160200161256292919061430c565b6040516020818303038152906040525b915050919050565b61258483836129f1565b612591600084848461232c565b6125d0576040517f08c379a00000000000000000000000000000000000000000000000000000000081526004016125c79061421e565b60405180910390fd5b505050565b60007f01ffc9a7000000000000000000000000000000000000000000000000000000007bffffffffffffffffffffffffffffffffffffffffffffffffffffffff1916827bffffffffffffffffffffffffffffffffffffffffffffffffffffffff1916149050919050565b61264a838383612bca565b600073ffffffffffffffffffffffffffffffffffffffff168373ffffffffffffffffffffffffffffffffffffffff160361268c5761268781612bcf565b6126cb565b8173ffffffffffffffffffffffffffffffffffffffff168373ffffffffffffffffffffffffffffffffffffffff16146126ca576126c98382612c18565b5b5b600073ffffffffffffffffffffffffffffffffffffffff168273ffffffffffffffffffffffffffffffffffffffff160361270d5761270881612d85565b61274c565b8273ffffffffffffffffffffffffffffffffffffffff168273ffffffffffffffffffffffffffffffffffffffff161461274b5761274a8282612e56565b5b5b505050565b600061275c82610e1f565b905061276a8160008461227c565b6127756000836117b7565b6001600360008373ffffffffffffffffffffffffffffffffffffffff1673ffffffffffffffffffffffffffffffffffffffff16815260200190815260200160002060008282546127c59190614034565b925050819055506002600083815260200190815260200160002060006101000a81549073ffffffffffffffffffffffffffffffffffffffff021916905581600073ffffffffffffffffffffffffffffffffffffffff168273ffffffffffffffffffffffffffffffffffffffff167fddf252ad1be2c89b69c2b068fc378daa952ba7f163c4a11628f55a4df523b3ef60405160405180910390a461286a816000846122d4565b5050565b6000808273ffffffffffffffffffffffffffffffffffffffff163b119050919050565b6060600082036128d8576040518060400160405280600181526020017f300000000000000000000000000000000000000000000000000000000000000081525090506129ec565b600082905060005b6000821461290a5780806128f390613e36565b915050600a826129039190614566565b91506128e0565b60008167ffffffffffffffff81111561292657612925613417565b5b6040519080825280601f01601f1916602001820160405280156129585781602001600182028036833780820191505090505b5090505b600085146129e5576001826129719190614034565b9150600a856129809190614597565b603061298c9190613cbc565b60f81b8183815181106129a2576129a1613bcc565b5b60200101907effffffffffffffffffffffffffffffffffffffffffffffffffffffffffffff1916908160001a905350600a856129de9190614566565b945061295c565b8093505050505b919050565b600073ffffffffffffffffffffffffffffffffffffffff168273ffffffffffffffffffffffffffffffffffffffff1603612a60576040517f08c379a0000000000000000000000000000000000000000000000000000000008152600401612a5790614614565b60405180910390fd5b612a6981611743565b15612aa9576040517f08c379a0000000000000000000000000000000000000000000000000000000008152600401612aa090614680565b60405180910390fd5b612ab56000838361227c565b6001600360008473ffffffffffffffffffffffffffffffffffffffff1673ffffffffffffffffffffffffffffffffffffffff1681526020019081526020016000206000828254612b059190613cbc565b92505081905550816002600083815260200190815260200160002060006101000a81548173ffffffffffffffffffffffffffffffffffffffff021916908373ffffffffffffffffffffffffffffffffffffffff160217905550808273ffffffffffffffffffffffffffffffffffffffff16600073ffffffffffffffffffffffffffffffffffffffff167fddf252ad1be2c89b69c2b068fc378daa952ba7f163c4a11628f55a4df523b3ef60405160405180910390a4612bc6600083836122d4565b5050565b505050565b6008805490506009600083815260200190815260200160002081905550600881908060018154018082558091505060019003906000526020600020016000909190919091505550565b60006001612c2584610eeb565b612c2f9190614034565b9050600060076000848152602001908152602001600020549050818114612d14576000600660008673ffffffffffffffffffffffffffffffffffffffff1673ffffffffffffffffffffffffffffffffffffffff168152602001908152602001600020600084815260200190815260200160002054905080600660008773ffffffffffffffffffffffffffffffffffffffff1673ffffffffffffffffffffffffffffffffffffffff168152602001908152602001600020600084815260200190815260200160002081905550816007600083815260200190815260200160002081905550505b6007600084815260200190815260200160002060009055600660008573ffffffffffffffffffffffffffffffffffffffff1673ffffffffffffffffffffffffffffffffffffffff16815260200190815260200160002060008381526020019081526020016000206000905550505050565b60006001600880549050612d999190614034565b9050600060096000848152602001908152602001600020549050600060088381548110612dc957612dc8613bcc565b5b906000526020600020015490508060088381548110612deb57612dea613bcc565b5b906000526020600020018190555081600960008381526020019081526020016000208190555060096000858152602001908152602001600020600090556008805480612e3a57612e396146a0565b5b6001900381819060005260206000200160009055905550505050565b6000612e6183610eeb565b905081600660008573ffffffffffffffffffffffffffffffffffffffff1673ffffffffffffffffffffffffffffffffffffffff168152602001908152602001600020600083815260200190815260200160002081905550806007600084815260200190815260200160002081905550505050565b828054828255906000526020600020908101928215612f4e579160200282015b82811115612f4d5782518260006101000a81548173ffffffffffffffffffffffffffffffffffffffff021916908373ffffffffffffffffffffffffffffffffffffffff16021790555091602001919060010190612ef5565b5b509050612f5b9190613025565b5090565b828054612f6b90613731565b90600052602060002090601f016020900481019282612f8d5760008555612fd4565b82601f10612fa657805160ff1916838001178555612fd4565b82800160010185558215612fd4579182015b82811115612fd3578251825591602001919060010190612fb8565b5b509050612fe19190613025565b5090565b508054612ff190613731565b6000825580601f106130035750613022565b601f0160209004906000526020600020908101906130219190613025565b5b50565b5b8082111561303e576000816000905550600101613026565b5090565b6000604051905090565b600080fd5b600080fd5b60007fffffffff0000000000000000000000000000000000000000000000000000000082169050919050565b61308b81613056565b811461309657600080fd5b50565b6000813590506130a881613082565b92915050565b6000602082840312156130c4576130c361304c565b5b60006130d284828501613099565b91505092915050565b60008115159050919050565b6130f0816130db565b82525050565b600060208201905061310b60008301846130e7565b92915050565b600081519050919050565b600082825260208201905092915050565b60005b8381101561314b578082015181840152602081019050613130565b8381111561315a576000848401525b50505050565b6000601f19601f8301169050919050565b600061317c82613111565b613186818561311c565b935061319681856020860161312d565b61319f81613160565b840191505092915050565b600060208201905081810360008301526131c48184613171565b905092915050565b6000819050919050565b6131df816131cc565b81146131ea57600080fd5b50565b6000813590506131fc816131d6565b92915050565b6000602082840312156132185761321761304c565b5b6000613226848285016131ed565b91505092915050565b600073ffffffffffffffffffffffffffffffffffffffff82169050919050565b600061325a8261322f565b9050919050565b61326a8161324f565b82525050565b60006020820190506132856000830184613261565b92915050565b6132948161324f565b811461329f57600080fd5b50565b6000813590506132b18161328b565b92915050565b600080604083850312156132ce576132cd61304c565b5b60006132dc858286016132a2565b92505060206132ed858286016131ed565b9150509250929050565b60006020828403121561330d5761330c61304c565b5b600061331b848285016132a2565b91505092915050565b61332d816131cc565b82525050565b60006020820190506133486000830184613324565b92915050565b6000806000606084860312156133675761336661304c565b5b6000613375868287016132a2565b9350506020613386868287016132a2565b9250506040613397868287016131ed565b9150509250925092565b6133aa816130db565b81146133b557600080fd5b50565b6000813590506133c7816133a1565b92915050565b600080604083850312156133e4576133e361304c565b5b60006133f2858286016132a2565b9250506020613403858286016133b8565b9150509250929050565b600080fd5b600080fd5b7f4e487b7100000000000000000000000000000000000000000000000000000000600052604160045260246000fd5b61344f82613160565b810181811067ffffffffffffffff8211171561346e5761346d613417565b5b80604052505050565b6000613481613042565b905061348d8282613446565b919050565b600067ffffffffffffffff8211156134ad576134ac613417565b5b6134b682613160565b9050602081019050919050565b82818337600083830152505050565b60006134e56134e084613492565b613477565b90508281526020810184848401111561350157613500613412565b5b61350c8482856134c3565b509392505050565b600082601f8301126135295761352861340d565b5b81356135398482602086016134d2565b91505092915050565b6000806000806080858703121561355c5761355b61304c565b5b600061356a878288016132a2565b945050602061357b878288016132a2565b935050604061358c878288016131ed565b925050606085013567ffffffffffffffff8111156135ad576135ac613051565b5b6135b987828801613514565b91505092959194509250565b600067ffffffffffffffff8211156135e0576135df613417565b5b6135e982613160565b9050602081019050919050565b6000613609613604846135c5565b613477565b90508281526020810184848401111561362557613624613412565b5b6136308482856134c3565b509392505050565b600082601f83011261364d5761364c61340d565b5b813561365d8482602086016135f6565b91505092915050565b6000806040838503121561367d5761367c61304c565b5b600061368b858286016132a2565b925050602083013567ffffffffffffffff8111156136ac576136ab613051565b5b6136b885828601613638565b9150509250929050565b600080604083850312156136d9576136d861304c565b5b60006136e7858286016132a2565b92505060206136f8858286016132a2565b9150509250929050565b7f4e487b7100000000000000000000000000000000000000000000000000000000600052602260045260246000fd5b6000600282049050600182168061374957607f821691505b60208210810361375c5761375b613702565b5b50919050565b7f4552433732313a20617070726f76656420717565727920666f72206e6f6e657860008201527f697374656e7420746f6b656e0000000000000000000000000000000000000000602082015250565b60006137be602c8361311c565b91506137c982613762565b604082019050919050565b600060208201905081810360008301526137ed816137b1565b9050919050565b7f4552433732313a20617070726f76616c20746f2063757272656e74206f776e6560008201527f7200000000000000000000000000000000000000000000000000000000000000602082015250565b600061385060218361311c565b915061385b826137f4565b604082019050919050565b6000602082019050818103600083015261387f81613843565b9050919050565b7f4552433732313a20617070726f76652063616c6c6572206973206e6f74206f7760008201527f6e6572206e6f7220617070726f76656420666f7220616c6c0000000000000000602082015250565b60006138e260388361311c565b91506138ed82613886565b604082019050919050565b60006020820190508181036000830152613911816138d5565b9050919050565b7f4552433732313a207472616e736665722063616c6c6572206973206e6f74206f60008201527f776e6572206e6f7220617070726f766564000000000000000000000000000000602082015250565b600061397460318361311c565b915061397f82613918565b604082019050919050565b600060208201905081810360008301526139a381613967565b9050919050565b7f455243373231456e756d657261626c653a206f776e657220696e646578206f7560008201527f74206f6620626f756e6473000000000000000000000000000000000000000000602082015250565b6000613a06602b8361311c565b9150613a11826139aa565b604082019050919050565b60006020820190508181036000830152613a35816139f9565b9050919050565b7f4f776e61626c653a2063616c6c6572206973206e6f7420746865206f776e6572600082015250565b6000613a7260208361311c565b9150613a7d82613a3c565b602082019050919050565b60006020820190508181036000830152613aa181613a65565b9050919050565b7f4552433732314275726e61626c653a2063616c6c6572206973206e6f74206f7760008201527f6e6572206e6f7220617070726f76656400000000000000000000000000000000602082015250565b6000613b0460308361311c565b9150613b0f82613aa8565b604082019050919050565b60006020820190508181036000830152613b3381613af7565b9050919050565b7f455243373231456e756d657261626c653a20676c6f62616c20696e646578206f60008201527f7574206f6620626f756e64730000000000000000000000000000000000000000602082015250565b6000613b96602c8361311c565b9150613ba182613b3a565b604082019050919050565b60006020820190508181036000830152613bc581613b89565b9050919050565b7f4e487b7100000000000000000000000000000000000000000000000000000000600052603260045260246000fd5b7f4552433732313a206f776e657220717565727920666f72206e6f6e657869737460008201527f656e7420746f6b656e0000000000000000000000000000000000000000000000602082015250565b6000613c5760298361311c565b9150613c6282613bfb565b604082019050919050565b60006020820190508181036000830152613c8681613c4a565b9050919050565b7f4e487b7100000000000000000000000000000000000000000000000000000000600052601160045260246000fd5b6000613cc7826131cc565b9150613cd2836131cc565b9250827fffffffffffffffffffffffffffffffffffffffffffffffffffffffffffffffff03821115613d0757613d06613c8d565b5b828201905092915050565b7f4552433732313a2062616c616e636520717565727920666f7220746865207a6560008201527f726f206164647265737300000000000000000000000000000000000000000000602082015250565b6000613d6e602a8361311c565b9150613d7982613d12565b604082019050919050565b60006020820190508181036000830152613d9d81613d61565b9050919050565b7f4f776e61626c653a206e6577206f776e657220697320746865207a65726f206160008201527f6464726573730000000000000000000000000000000000000000000000000000602082015250565b6000613e0060268361311c565b9150613e0b82613da4565b604082019050919050565b60006020820190508181036000830152613e2f81613df3565b9050919050565b6000613e41826131cc565b91507fffffffffffffffffffffffffffffffffffffffffffffffffffffffffffffffff8203613e7357613e72613c8d565b5b600182019050919050565b7f4552433732313a206f70657261746f7220717565727920666f72206e6f6e657860008201527f697374656e7420746f6b656e0000000000000000000000000000000000000000602082015250565b6000613eda602c8361311c565b9150613ee582613e7e565b604082019050919050565b60006020820190508181036000830152613f0981613ecd565b9050919050565b7f4552433732313a207472616e736665722066726f6d20696e636f72726563742060008201527f6f776e6572000000000000000000000000000000000000000000000000000000602082015250565b6000613f6c60258361311c565b9150613f7782613f10565b604082019050919050565b60006020820190508181036000830152613f9b81613f5f565b9050919050565b7f4552433732313a207472616e7366657220746f20746865207a65726f2061646460008201527f7265737300000000000000000000000000000000000000000000000000000000602082015250565b6000613ffe60248361311c565b915061400982613fa2565b604082019050919050565b6000602082019050818103600083015261402d81613ff1565b9050919050565b600061403f826131cc565b915061404a836131cc565b92508282101561405d5761405c613c8d565b5b828203905092915050565b7f5061757361626c653a206e6f7420706175736564000000000000000000000000600082015250565b600061409e60148361311c565b91506140a982614068565b602082019050919050565b600060208201905081810360008301526140cd81614091565b9050919050565b7f5061757361626c653a2070617573656400000000000000000000000000000000600082015250565b600061410a60108361311c565b9150614115826140d4565b602082019050919050565b60006020820190508181036000830152614139816140fd565b9050919050565b7f4552433732313a20617070726f766520746f2063616c6c657200000000000000600082015250565b600061417660198361311c565b915061418182614140565b602082019050919050565b600060208201905081810360008301526141a581614169565b9050919050565b7f4552433732313a207472616e7366657220746f206e6f6e20455243373231526560008201527f63656976657220696d706c656d656e7465720000000000000000000000000000602082015250565b600061420860328361311c565b9150614213826141ac565b604082019050919050565b60006020820190508181036000830152614237816141fb565b9050919050565b7f45524337323155524953746f726167653a2055524920717565727920666f722060008201527f6e6f6e6578697374656e7420746f6b656e000000000000000000000000000000602082015250565b600061429a60318361311c565b91506142a58261423e565b604082019050919050565b600060208201905081810360008301526142c98161428d565b9050919050565b600081905092915050565b60006142e682613111565b6142f081856142d0565b935061430081856020860161312d565b80840191505092915050565b600061431882856142db565b915061432482846142db565b91508190509392505050565b7f45524337323155524953746f726167653a2055524920736574206f66206e6f6e60008201527f6578697374656e7420746f6b656e000000000000000000000000000000000000602082015250565b600061438c602e8361311c565b915061439782614330565b604082019050919050565b600060208201905081810360008301526143bb8161437f565b9050919050565b600081519050919050565b600082825260208201905092915050565b60006143e9826143c2565b6143f381856143cd565b935061440381856020860161312d565b61440c81613160565b840191505092915050565b600060808201905061442c6000830187613261565b6144396020830186613261565b6144466040830185613324565b818103606083015261445881846143de565b905095945050505050565b60008151905061447281613082565b92915050565b60006020828403121561448e5761448d61304c565b5b600061449c84828501614463565b91505092915050565b7f4552433732314d657461646174613a2055524920717565727920666f72206e6f60008201527f6e6578697374656e7420746f6b656e0000000000000000000000000000000000602082015250565b6000614501602f8361311c565b915061450c826144a5565b604082019050919050565b60006020820190508181036000830152614530816144f4565b9050919050565b7f4e487b7100000000000000000000000000000000000000000000000000000000600052601260045260246000fd5b6000614571826131cc565b915061457c836131cc565b92508261458c5761458b614537565b5b828204905092915050565b60006145a2826131cc565b91506145ad836131cc565b9250826145bd576145bc614537565b5b828206905092915050565b7f4552433732313a206d696e7420746f20746865207a65726f2061646472657373600082015250565b60006145fe60208361311c565b9150614609826145c8565b602082019050919050565b6000602082019050818103600083015261462d816145f1565b9050919050565b7f4552433732313a20746f6b656e20616c7265616479206d696e74656400000000600082015250565b600061466a601c8361311c565b915061467582614634565b602082019050919050565b600060208201905081810360008301526146998161465d565b9050919050565b7f4e487b7100000000000000000000000000000000000000000000000000000000600052603160045260246000fdfe68747470733a2f2f6a3770647a743870757470392e7573656d6f72616c69732e636f6d3a323035332f736572766572a2646970667358221220a257697d359e3e650540d108270347cf230f23ce5d1f28ce4d8a788ecee9017164736f6c634300080d0033",
  "immutableReferences": {},
  "source": "// SPDX-License-Identifier: MIT\r\npragma solidity ^0.8.4;\r\n\r\nimport \"@openzeppelin/contracts/token/ERC721/ERC721.sol\";\r\nimport \"@openzeppelin/contracts/token/ERC721/extensions/ERC721Enumerable.sol\";\r\nimport \"@openzeppelin/contracts/token/ERC721/extensions/ERC721URIStorage.sol\";\r\nimport \"@openzeppelin/contracts/security/Pausable.sol\";\r\nimport \"@openzeppelin/contracts/access/Ownable.sol\";\r\nimport \"@openzeppelin/contracts/token/ERC721/extensions/ERC721Burnable.sol\";\r\nimport \"@openzeppelin/contracts/utils/Counters.sol\";\r\nimport \"@openzeppelin/contracts/token/ERC721/extensions/IERC721Metadata.sol\";\r\n\r\ncontract RocketToken is ERC721, ERC721Enumerable, ERC721URIStorage, Pausable, Ownable, ERC721Burnable {\r\n    using Counters for Counters.Counter;\r\n\r\n    Counters.Counter private _tokenIdCounter;\r\n\r\n    address[] addressList;\r\n    uint public balanceReceived;\r\n    uint deployDate;\r\n\r\n    mapping(address => bool) public hasReceivedFreeNFT;\r\n\r\n    constructor() ERC721(\"RocketToken\", \"ROCKET\") {\r\n    }\r\n\r\n    function _baseURI() internal pure override returns (string memory) {\r\n        return \"https://j7pdzt8putp9.usemoralis.com:2053/server\";\r\n    }\r\n\r\n\r\n    function pause() public onlyOwner {\r\n        _pause();\r\n    }\r\n\r\n    function unpause() public onlyOwner {\r\n        _unpause();\r\n    }\r\n\r\n    function safeMint(address to, string memory uri) public onlyOwner {\r\n        uint256 tokenId = _tokenIdCounter.current();\r\n        _tokenIdCounter.increment();\r\n        _safeMint(to, tokenId);\r\n        _setTokenURI(tokenId, uri);\r\n    }\r\n\r\n    function _beforeTokenTransfer(address from, address to, uint256 tokenId)\r\n        internal\r\n        whenNotPaused\r\n        override(ERC721, ERC721Enumerable)\r\n    {\r\n        super._beforeTokenTransfer(from, to, tokenId);\r\n    }\r\n\r\n    // The following functions are overrides required by Solidity.\r\n\r\n    function _burn(uint256 tokenId) internal override(ERC721, ERC721URIStorage) {\r\n        super._burn(tokenId);\r\n    }\r\n\r\n    function tokenURI(uint256 tokenId)\r\n        public\r\n        view\r\n        override(ERC721, ERC721URIStorage)\r\n        returns (string memory)\r\n    {\r\n        return super.tokenURI(tokenId);\r\n    }\r\n\r\n    function supportsInterface(bytes4 interfaceId)\r\n        public\r\n        view\r\n        override(ERC721, ERC721Enumerable)\r\n        returns (bool)\r\n    {\r\n        return super.supportsInterface(interfaceId);\r\n    }\r\n\r\n    function receiveMoney() public payable {\r\n        balanceReceived += msg.value;\r\n    }\r\n\r\n    function getBalance() public view returns(uint) {\r\n        return address(this).balance;\r\n    }\r\n\r\n    function withdrawMoney() public {\r\n        address payable to = payable(msg.sender);\r\n        to.transfer(getBalance());\r\n    }\r\n\r\n    function freeEligible() public onlyOwner {\r\n        addressList =  [\r\n            0xd1679bB3543e8aD195FF9f3Ac3436039bA389237,\r\n            0xF4F555ca1586C40067cd215578f123d30813De02,\r\n            0x5563D3361408D41BF172E3720C30b0e35F19A444,\r\n            0x6ffdAf0795D208c11C583C88Cb5dbd2A8955A59e\r\n        ];\r\n    }\r\n\r\n    function checkNFT(address _address) public view onlyOwner returns(bool) {\r\n        return hasReceivedFreeNFT[_address];\r\n    }\r\n\r\n    // Send free token to those that haven't received one yet\r\n    function NFTGift(address receiver) public {\r\n        //Grab list of eligible addresses, check if the receiver got token already\r\n        freeEligible();\r\n        for (uint i = 0; i < addressList.length; i++) {\r\n            if (receiver == addressList[i] && !hasReceivedFreeNFT[receiver]) {\r\n                //Mint 1 new token to the receiver\r\n                safeMint(receiver, \"\");\r\n                _tokenIdCounter.increment();\r\n                hasReceivedFreeNFT[receiver] = true;\r\n            }\r\n        }\r\n    }\r\n}",
  "sourcePath": "C:\\Users\\Troy Wever\\OneDrive\\Documents\\GitHub\\Rocket_Elevators_Blockchain\\contracts\\RocketToken.sol",
  "compiler": {
    "name": "solc",
    "version": "0.8.13+commit.abaa5c0e.Emscripten.clang"
  },
  "schemaVersion": "3.4.7",
  "updatedAt": "2022-05-06T19:22:33.533Z",
  "networkType": "ethereum",
  "devdoc": {
    "kind": "dev",
    "methods": {
      "approve(address,uint256)": {
        "details": "See {IERC721-approve}."
      },
      "balanceOf(address)": {
        "details": "See {IERC721-balanceOf}."
      },
      "burn(uint256)": {
        "details": "Burns `tokenId`. See {ERC721-_burn}. Requirements: - The caller must own `tokenId` or be an approved operator."
      },
      "getApproved(uint256)": {
        "details": "See {IERC721-getApproved}."
      },
      "isApprovedForAll(address,address)": {
        "details": "See {IERC721-isApprovedForAll}."
      },
      "name()": {
        "details": "See {IERC721Metadata-name}."
      },
      "owner()": {
        "details": "Returns the address of the current owner."
      },
      "ownerOf(uint256)": {
        "details": "See {IERC721-ownerOf}."
      },
      "paused()": {
        "details": "Returns true if the contract is paused, and false otherwise."
      },
      "renounceOwnership()": {
        "details": "Leaves the contract without owner. It will not be possible to call `onlyOwner` functions anymore. Can only be called by the current owner. NOTE: Renouncing ownership will leave the contract without an owner, thereby removing any functionality that is only available to the owner."
      },
      "safeTransferFrom(address,address,uint256)": {
        "details": "See {IERC721-safeTransferFrom}."
      },
      "safeTransferFrom(address,address,uint256,bytes)": {
        "details": "See {IERC721-safeTransferFrom}."
      },
      "setApprovalForAll(address,bool)": {
        "details": "See {IERC721-setApprovalForAll}."
      },
      "symbol()": {
        "details": "See {IERC721Metadata-symbol}."
      },
      "tokenByIndex(uint256)": {
        "details": "See {IERC721Enumerable-tokenByIndex}."
      },
      "tokenOfOwnerByIndex(address,uint256)": {
        "details": "See {IERC721Enumerable-tokenOfOwnerByIndex}."
      },
      "totalSupply()": {
        "details": "See {IERC721Enumerable-totalSupply}."
      },
      "transferFrom(address,address,uint256)": {
        "details": "See {IERC721-transferFrom}."
      },
      "transferOwnership(address)": {
        "details": "Transfers ownership of the contract to a new account (`newOwner`). Can only be called by the current owner."
      }
    },
    "version": 1
  },
  "userdoc": {
    "kind": "user",
    "methods": {},
    "version": 1
  }
}