{
  "contractName": "RocketToken",
  "abi": [
    {
      "inputs": [],
      "stateMutability": "nonpayable",
      "type": "constructor"
    },
    {
      "anonymous": false,
      "inputs": [
        {
          "indexed": true,
          "internalType": "address",
          "name": "owner",
          "type": "address"
        },
        {
          "indexed": true,
          "internalType": "address",
          "name": "spender",
          "type": "address"
        },
        {
          "indexed": false,
          "internalType": "uint256",
          "name": "value",
          "type": "uint256"
        }
      ],
      "name": "Approval",
      "type": "event"
    },
    {
      "anonymous": false,
      "inputs": [
        {
          "indexed": true,
          "internalType": "address",
          "name": "previousOwner",
          "type": "address"
        },
        {
          "indexed": true,
          "internalType": "address",
          "name": "newOwner",
          "type": "address"
        }
      ],
      "name": "OwnershipTransferred",
      "type": "event"
    },
    {
      "anonymous": false,
      "inputs": [
        {
          "indexed": false,
          "internalType": "address",
          "name": "account",
          "type": "address"
        }
      ],
      "name": "Paused",
      "type": "event"
    },
    {
      "anonymous": false,
      "inputs": [
        {
          "indexed": true,
          "internalType": "address",
          "name": "from",
          "type": "address"
        },
        {
          "indexed": true,
          "internalType": "address",
          "name": "to",
          "type": "address"
        },
        {
          "indexed": false,
          "internalType": "uint256",
          "name": "value",
          "type": "uint256"
        }
      ],
      "name": "Transfer",
      "type": "event"
    },
    {
      "anonymous": false,
      "inputs": [
        {
          "indexed": false,
          "internalType": "address",
          "name": "account",
          "type": "address"
        }
      ],
      "name": "Unpaused",
      "type": "event"
    },
    {
      "inputs": [],
      "name": "DOMAIN_SEPARATOR",
      "outputs": [
        {
          "internalType": "bytes32",
          "name": "",
          "type": "bytes32"
        }
      ],
      "stateMutability": "view",
      "type": "function",
      "constant": true
    },
    {
      "inputs": [
        {
          "internalType": "address",
          "name": "owner",
          "type": "address"
        },
        {
          "internalType": "address",
          "name": "spender",
          "type": "address"
        }
      ],
      "name": "allowance",
      "outputs": [
        {
          "internalType": "uint256",
          "name": "",
          "type": "uint256"
        }
      ],
      "stateMutability": "view",
      "type": "function",
      "constant": true
    },
    {
      "inputs": [
        {
          "internalType": "address",
          "name": "spender",
          "type": "address"
        },
        {
          "internalType": "uint256",
          "name": "amount",
          "type": "uint256"
        }
      ],
      "name": "approve",
      "outputs": [
        {
          "internalType": "bool",
          "name": "",
          "type": "bool"
        }
      ],
      "stateMutability": "nonpayable",
      "type": "function"
    },
    {
      "inputs": [
        {
          "internalType": "address",
          "name": "account",
          "type": "address"
        }
      ],
      "name": "balanceOf",
      "outputs": [
        {
          "internalType": "uint256",
          "name": "",
          "type": "uint256"
        }
      ],
      "stateMutability": "view",
      "type": "function",
      "constant": true
    },
    {
      "inputs": [
        {
          "internalType": "uint256",
          "name": "amount",
          "type": "uint256"
        }
      ],
      "name": "burn",
      "outputs": [],
      "stateMutability": "nonpayable",
      "type": "function"
    },
    {
      "inputs": [
        {
          "internalType": "address",
          "name": "account",
          "type": "address"
        },
        {
          "internalType": "uint256",
          "name": "amount",
          "type": "uint256"
        }
      ],
      "name": "burnFrom",
      "outputs": [],
      "stateMutability": "nonpayable",
      "type": "function"
    },
    {
      "inputs": [],
      "name": "decimals",
      "outputs": [
        {
          "internalType": "uint8",
          "name": "",
          "type": "uint8"
        }
      ],
      "stateMutability": "view",
      "type": "function",
      "constant": true
    },
    {
      "inputs": [
        {
          "internalType": "address",
          "name": "spender",
          "type": "address"
        },
        {
          "internalType": "uint256",
          "name": "subtractedValue",
          "type": "uint256"
        }
      ],
      "name": "decreaseAllowance",
      "outputs": [
        {
          "internalType": "bool",
          "name": "",
          "type": "bool"
        }
      ],
      "stateMutability": "nonpayable",
      "type": "function"
    },
    {
      "inputs": [
        {
          "internalType": "address",
          "name": "spender",
          "type": "address"
        },
        {
          "internalType": "uint256",
          "name": "addedValue",
          "type": "uint256"
        }
      ],
      "name": "increaseAllowance",
      "outputs": [
        {
          "internalType": "bool",
          "name": "",
          "type": "bool"
        }
      ],
      "stateMutability": "nonpayable",
      "type": "function"
    },
    {
      "inputs": [],
      "name": "name",
      "outputs": [
        {
          "internalType": "string",
          "name": "",
          "type": "string"
        }
      ],
      "stateMutability": "view",
      "type": "function",
      "constant": true
    },
    {
      "inputs": [
        {
          "internalType": "address",
          "name": "owner",
          "type": "address"
        }
      ],
      "name": "nonces",
      "outputs": [
        {
          "internalType": "uint256",
          "name": "",
          "type": "uint256"
        }
      ],
      "stateMutability": "view",
      "type": "function",
      "constant": true
    },
    {
      "inputs": [],
      "name": "owner",
      "outputs": [
        {
          "internalType": "address",
          "name": "",
          "type": "address"
        }
      ],
      "stateMutability": "view",
      "type": "function",
      "constant": true
    },
    {
      "inputs": [],
      "name": "paused",
      "outputs": [
        {
          "internalType": "bool",
          "name": "",
          "type": "bool"
        }
      ],
      "stateMutability": "view",
      "type": "function",
      "constant": true
    },
    {
      "inputs": [
        {
          "internalType": "address",
          "name": "owner",
          "type": "address"
        },
        {
          "internalType": "address",
          "name": "spender",
          "type": "address"
        },
        {
          "internalType": "uint256",
          "name": "value",
          "type": "uint256"
        },
        {
          "internalType": "uint256",
          "name": "deadline",
          "type": "uint256"
        },
        {
          "internalType": "uint8",
          "name": "v",
          "type": "uint8"
        },
        {
          "internalType": "bytes32",
          "name": "r",
          "type": "bytes32"
        },
        {
          "internalType": "bytes32",
          "name": "s",
          "type": "bytes32"
        }
      ],
      "name": "permit",
      "outputs": [],
      "stateMutability": "nonpayable",
      "type": "function"
    },
    {
      "inputs": [],
      "name": "renounceOwnership",
      "outputs": [],
      "stateMutability": "nonpayable",
      "type": "function"
    },
    {
      "inputs": [],
      "name": "symbol",
      "outputs": [
        {
          "internalType": "string",
          "name": "",
          "type": "string"
        }
      ],
      "stateMutability": "view",
      "type": "function",
      "constant": true
    },
    {
      "inputs": [],
      "name": "totalSupply",
      "outputs": [
        {
          "internalType": "uint256",
          "name": "",
          "type": "uint256"
        }
      ],
      "stateMutability": "view",
      "type": "function",
      "constant": true
    },
    {
      "inputs": [
        {
          "internalType": "address",
          "name": "to",
          "type": "address"
        },
        {
          "internalType": "uint256",
          "name": "amount",
          "type": "uint256"
        }
      ],
      "name": "transfer",
      "outputs": [
        {
          "internalType": "bool",
          "name": "",
          "type": "bool"
        }
      ],
      "stateMutability": "nonpayable",
      "type": "function"
    },
    {
      "inputs": [
        {
          "internalType": "address",
          "name": "from",
          "type": "address"
        },
        {
          "internalType": "address",
          "name": "to",
          "type": "address"
        },
        {
          "internalType": "uint256",
          "name": "amount",
          "type": "uint256"
        }
      ],
      "name": "transferFrom",
      "outputs": [
        {
          "internalType": "bool",
          "name": "",
          "type": "bool"
        }
      ],
      "stateMutability": "nonpayable",
      "type": "function"
    },
    {
      "inputs": [
        {
          "internalType": "address",
          "name": "newOwner",
          "type": "address"
        }
      ],
      "name": "transferOwnership",
      "outputs": [],
      "stateMutability": "nonpayable",
      "type": "function"
    },
    {
      "inputs": [],
      "name": "pause",
      "outputs": [],
      "stateMutability": "nonpayable",
      "type": "function"
    },
    {
      "inputs": [],
      "name": "unpause",
      "outputs": [],
      "stateMutability": "nonpayable",
      "type": "function"
    },
    {
      "inputs": [
        {
          "internalType": "address",
          "name": "to",
          "type": "address"
        },
        {
          "internalType": "uint256",
          "name": "amount",
          "type": "uint256"
        }
      ],
      "name": "mint",
      "outputs": [],
      "stateMutability": "nonpayable",
      "type": "function"
    }
  ],
  "bytecode": "0x6101406040523480156200001257600080fd5b506040518060400160405280600b81526020017f526f636b6574546f6b656e000000000000000000000000000000000000000000815250806040518060400160405280600181526020017f31000000000000000000000000000000000000000000000000000000000000008152506040518060400160405280600b81526020017f526f636b6574546f6b656e0000000000000000000000000000000000000000008152506040518060400160405280600681526020017f524f434b455400000000000000000000000000000000000000000000000000008152508160039080519060200190620001049291906200053c565b5080600490805190602001906200011d9291906200053c565b5050506000600560006101000a81548160ff0219169083151502179055506200015b6200014f6200022960201b60201c565b6200023160201b60201c565b60008280519060200120905060008280519060200120905060007f8b73c3c69bb8fe3d512ecc4cf759cc79239f7b179b0ffacaa9a75d522b39400f90508260e081815250508161010081815250504660a08181525050620001c4818484620002f760201b60201c565b608081815250503073ffffffffffffffffffffffffffffffffffffffff1660c08173ffffffffffffffffffffffffffffffffffffffff16815250508061012081815250505050505050506200022333620186a06200033360201b60201c565b620008c6565b600033905090565b6000600560019054906101000a900473ffffffffffffffffffffffffffffffffffffffff16905081600560016101000a81548173ffffffffffffffffffffffffffffffffffffffff021916908373ffffffffffffffffffffffffffffffffffffffff1602179055508173ffffffffffffffffffffffffffffffffffffffff168173ffffffffffffffffffffffffffffffffffffffff167f8be0079c531659141344cd1fd0a4f28419497f9722a3daafe3b4186f6b6457e060405160405180910390a35050565b600083838346306040516020016200031495949392919062000667565b6040516020818303038152906040528051906020012090509392505050565b600073ffffffffffffffffffffffffffffffffffffffff168273ffffffffffffffffffffffffffffffffffffffff1603620003a5576040517f08c379a00000000000000000000000000000000000000000000000000000000081526004016200039c9062000725565b60405180910390fd5b620003b960008383620004ab60201b60201c565b8060026000828254620003cd919062000776565b92505081905550806000808473ffffffffffffffffffffffffffffffffffffffff1673ffffffffffffffffffffffffffffffffffffffff168152602001908152602001600020600082825462000424919062000776565b925050819055508173ffffffffffffffffffffffffffffffffffffffff16600073ffffffffffffffffffffffffffffffffffffffff167fddf252ad1be2c89b69c2b068fc378daa952ba7f163c4a11628f55a4df523b3ef836040516200048b9190620007d3565b60405180910390a3620004a7600083836200051b60201b60201c565b5050565b620004bb6200052060201b60201c565b15620004fe576040517f08c379a0000000000000000000000000000000000000000000000000000000008152600401620004f59062000840565b60405180910390fd5b620005168383836200053760201b62000ca21760201c565b505050565b505050565b6000600560009054906101000a900460ff16905090565b505050565b8280546200054a9062000891565b90600052602060002090601f0160209004810192826200056e5760008555620005ba565b82601f106200058957805160ff1916838001178555620005ba565b82800160010185558215620005ba579182015b82811115620005b95782518255916020019190600101906200059c565b5b509050620005c99190620005cd565b5090565b5b80821115620005e8576000816000905550600101620005ce565b5090565b6000819050919050565b6200060181620005ec565b82525050565b6000819050919050565b6200061c8162000607565b82525050565b600073ffffffffffffffffffffffffffffffffffffffff82169050919050565b60006200064f8262000622565b9050919050565b620006618162000642565b82525050565b600060a0820190506200067e6000830188620005f6565b6200068d6020830187620005f6565b6200069c6040830186620005f6565b620006ab606083018562000611565b620006ba608083018462000656565b9695505050505050565b600082825260208201905092915050565b7f45524332303a206d696e7420746f20746865207a65726f206164647265737300600082015250565b60006200070d601f83620006c4565b91506200071a82620006d5565b602082019050919050565b600060208201905081810360008301526200074081620006fe565b9050919050565b7f4e487b7100000000000000000000000000000000000000000000000000000000600052601160045260246000fd5b6000620007838262000607565b9150620007908362000607565b9250827fffffffffffffffffffffffffffffffffffffffffffffffffffffffffffffffff03821115620007c857620007c762000747565b5b828201905092915050565b6000602082019050620007ea600083018462000611565b92915050565b7f5061757361626c653a2070617573656400000000000000000000000000000000600082015250565b600062000828601083620006c4565b91506200083582620007f0565b602082019050919050565b600060208201905081810360008301526200085b8162000819565b9050919050565b7f4e487b7100000000000000000000000000000000000000000000000000000000600052602260045260246000fd5b60006002820490506001821680620008aa57607f821691505b602082108103620008c057620008bf62000862565b5b50919050565b60805160a05160c05160e0516101005161012051612dee620009166000396000611231015260006112730152600061125201526000611187015260006111dd015260006112060152612dee6000f3fe608060405234801561001057600080fd5b506004361061014d5760003560e01c806370a08231116100c357806395d89b411161007c57806395d89b4114610368578063a457c2d714610386578063a9059cbb146103b6578063d505accf146103e6578063dd62ed3e14610402578063f2fde38b146104325761014d565b806370a08231146102ba578063715018a6146102ea57806379cc6790146102f45780637ecebe00146103105780638456cb59146103405780638da5cb5b1461034a5761014d565b80633644e515116101155780633644e5151461020c578063395093511461022a5780633f4ba83a1461025a57806340c10f191461026457806342966c68146102805780635c975abb1461029c5761014d565b806306fdde0314610152578063095ea7b31461017057806318160ddd146101a057806323b872dd146101be578063313ce567146101ee575b600080fd5b61015a61044e565b6040516101679190611cdf565b60405180910390f35b61018a60048036038101906101859190611d9a565b6104e0565b6040516101979190611df5565b60405180910390f35b6101a8610503565b6040516101b59190611e1f565b60405180910390f35b6101d860048036038101906101d39190611e3a565b61050d565b6040516101e59190611df5565b60405180910390f35b6101f661053c565b6040516102039190611ea9565b60405180910390f35b610214610545565b6040516102219190611edd565b60405180910390f35b610244600480360381019061023f9190611d9a565b610554565b6040516102519190611df5565b60405180910390f35b61026261058b565b005b61027e60048036038101906102799190611d9a565b610611565b005b61029a60048036038101906102959190611ef8565b61069b565b005b6102a46106af565b6040516102b19190611df5565b60405180910390f35b6102d460048036038101906102cf9190611f25565b6106c6565b6040516102e19190611e1f565b60405180910390f35b6102f261070e565b005b61030e60048036038101906103099190611d9a565b610796565b005b61032a60048036038101906103259190611f25565b6107b6565b6040516103379190611e1f565b60405180910390f35b610348610806565b005b61035261088c565b60405161035f9190611f61565b60405180910390f35b6103706108b6565b60405161037d9190611cdf565b60405180910390f35b6103a0600480360381019061039b9190611d9a565b610948565b6040516103ad9190611df5565b60405180910390f35b6103d060048036038101906103cb9190611d9a565b6109bf565b6040516103dd9190611df5565b60405180910390f35b61040060048036038101906103fb9190611fd4565b6109e2565b005b61041c60048036038101906104179190612076565b610b24565b6040516104299190611e1f565b60405180910390f35b61044c60048036038101906104479190611f25565b610bab565b005b60606003805461045d906120e5565b80601f0160208091040260200160405190810160405280929190818152602001828054610489906120e5565b80156104d65780601f106104ab576101008083540402835291602001916104d6565b820191906000526020600020905b8154815290600101906020018083116104b957829003601f168201915b5050505050905090565b6000806104eb610ca7565b90506104f8818585610caf565b600191505092915050565b6000600254905090565b600080610518610ca7565b9050610525858285610e78565b610530858585610f04565b60019150509392505050565b60006012905090565b600061054f611183565b905090565b60008061055f610ca7565b90506105808185856105718589610b24565b61057b9190612145565b610caf565b600191505092915050565b610593610ca7565b73ffffffffffffffffffffffffffffffffffffffff166105b161088c565b73ffffffffffffffffffffffffffffffffffffffff1614610607576040517f08c379a00000000000000000000000000000000000000000000000000000000081526004016105fe906121e7565b60405180910390fd5b61060f61129d565b565b610619610ca7565b73ffffffffffffffffffffffffffffffffffffffff1661063761088c565b73ffffffffffffffffffffffffffffffffffffffff161461068d576040517f08c379a0000000000000000000000000000000000000000000000000000000008152600401610684906121e7565b60405180910390fd5b610697828261133f565b5050565b6106ac6106a6610ca7565b8261149e565b50565b6000600560009054906101000a900460ff16905090565b60008060008373ffffffffffffffffffffffffffffffffffffffff1673ffffffffffffffffffffffffffffffffffffffff168152602001908152602001600020549050919050565b610716610ca7565b73ffffffffffffffffffffffffffffffffffffffff1661073461088c565b73ffffffffffffffffffffffffffffffffffffffff161461078a576040517f08c379a0000000000000000000000000000000000000000000000000000000008152600401610781906121e7565b60405180910390fd5b6107946000611674565b565b6107a8826107a2610ca7565b83610e78565b6107b2828261149e565b5050565b60006107ff600660008473ffffffffffffffffffffffffffffffffffffffff1673ffffffffffffffffffffffffffffffffffffffff16815260200190815260200160002061173a565b9050919050565b61080e610ca7565b73ffffffffffffffffffffffffffffffffffffffff1661082c61088c565b73ffffffffffffffffffffffffffffffffffffffff1614610882576040517f08c379a0000000000000000000000000000000000000000000000000000000008152600401610879906121e7565b60405180910390fd5b61088a611748565b565b6000600560019054906101000a900473ffffffffffffffffffffffffffffffffffffffff16905090565b6060600480546108c5906120e5565b80601f01602080910402602001604051908101604052809291908181526020018280546108f1906120e5565b801561093e5780601f106109135761010080835404028352916020019161093e565b820191906000526020600020905b81548152906001019060200180831161092157829003601f168201915b5050505050905090565b600080610953610ca7565b905060006109618286610b24565b9050838110156109a6576040517f08c379a000000000000000000000000000000000000000000000000000000000815260040161099d90612279565b60405180910390fd5b6109b38286868403610caf565b60019250505092915050565b6000806109ca610ca7565b90506109d7818585610f04565b600191505092915050565b83421115610a25576040517f08c379a0000000000000000000000000000000000000000000000000000000008152600401610a1c906122e5565b60405180910390fd5b60007f6e71edae12b1b97f4d1f60370fef10105fa2faae0126114a169c64845d6126c9888888610a548c6117eb565b89604051602001610a6a96959493929190612305565b6040516020818303038152906040528051906020012090506000610a8d82611849565b90506000610a9d82878787611863565b90508973ffffffffffffffffffffffffffffffffffffffff168173ffffffffffffffffffffffffffffffffffffffff1614610b0d576040517f08c379a0000000000000000000000000000000000000000000000000000000008152600401610b04906123b2565b60405180910390fd5b610b188a8a8a610caf565b50505050505050505050565b6000600160008473ffffffffffffffffffffffffffffffffffffffff1673ffffffffffffffffffffffffffffffffffffffff16815260200190815260200160002060008373ffffffffffffffffffffffffffffffffffffffff1673ffffffffffffffffffffffffffffffffffffffff16815260200190815260200160002054905092915050565b610bb3610ca7565b73ffffffffffffffffffffffffffffffffffffffff16610bd161088c565b73ffffffffffffffffffffffffffffffffffffffff1614610c27576040517f08c379a0000000000000000000000000000000000000000000000000000000008152600401610c1e906121e7565b60405180910390fd5b600073ffffffffffffffffffffffffffffffffffffffff168173ffffffffffffffffffffffffffffffffffffffff1603610c96576040517f08c379a0000000000000000000000000000000000000000000000000000000008152600401610c8d90612444565b60405180910390fd5b610c9f81611674565b50565b505050565b600033905090565b600073ffffffffffffffffffffffffffffffffffffffff168373ffffffffffffffffffffffffffffffffffffffff1603610d1e576040517f08c379a0000000000000000000000000000000000000000000000000000000008152600401610d15906124d6565b60405180910390fd5b600073ffffffffffffffffffffffffffffffffffffffff168273ffffffffffffffffffffffffffffffffffffffff1603610d8d576040517f08c379a0000000000000000000000000000000000000000000000000000000008152600401610d8490612568565b60405180910390fd5b80600160008573ffffffffffffffffffffffffffffffffffffffff1673ffffffffffffffffffffffffffffffffffffffff16815260200190815260200160002060008473ffffffffffffffffffffffffffffffffffffffff1673ffffffffffffffffffffffffffffffffffffffff168152602001908152602001600020819055508173ffffffffffffffffffffffffffffffffffffffff168373ffffffffffffffffffffffffffffffffffffffff167f8c5be1e5ebec7d5bd14f71427d1e84f3dd0314c0f7b2291e5b200ac8c7c3b92583604051610e6b9190611e1f565b60405180910390a3505050565b6000610e848484610b24565b90507fffffffffffffffffffffffffffffffffffffffffffffffffffffffffffffffff8114610efe5781811015610ef0576040517f08c379a0000000000000000000000000000000000000000000000000000000008152600401610ee7906125d4565b60405180910390fd5b610efd8484848403610caf565b5b50505050565b600073ffffffffffffffffffffffffffffffffffffffff168373ffffffffffffffffffffffffffffffffffffffff1603610f73576040517f08c379a0000000000000000000000000000000000000000000000000000000008152600401610f6a90612666565b60405180910390fd5b600073ffffffffffffffffffffffffffffffffffffffff168273ffffffffffffffffffffffffffffffffffffffff1603610fe2576040517f08c379a0000000000000000000000000000000000000000000000000000000008152600401610fd9906126f8565b60405180910390fd5b610fed83838361188e565b60008060008573ffffffffffffffffffffffffffffffffffffffff1673ffffffffffffffffffffffffffffffffffffffff16815260200190815260200160002054905081811015611073576040517f08c379a000000000000000000000000000000000000000000000000000000000815260040161106a9061278a565b60405180910390fd5b8181036000808673ffffffffffffffffffffffffffffffffffffffff1673ffffffffffffffffffffffffffffffffffffffff16815260200190815260200160002081905550816000808573ffffffffffffffffffffffffffffffffffffffff1673ffffffffffffffffffffffffffffffffffffffff16815260200190815260200160002060008282546111069190612145565b925050819055508273ffffffffffffffffffffffffffffffffffffffff168473ffffffffffffffffffffffffffffffffffffffff167fddf252ad1be2c89b69c2b068fc378daa952ba7f163c4a11628f55a4df523b3ef8460405161116a9190611e1f565b60405180910390a361117d8484846118e6565b50505050565b60007f000000000000000000000000000000000000000000000000000000000000000073ffffffffffffffffffffffffffffffffffffffff163073ffffffffffffffffffffffffffffffffffffffff161480156111ff57507f000000000000000000000000000000000000000000000000000000000000000046145b1561122c577f0000000000000000000000000000000000000000000000000000000000000000905061129a565b6112977f00000000000000000000000000000000000000000000000000000000000000007f00000000000000000000000000000000000000000000000000000000000000007f00000000000000000000000000000000000000000000000000000000000000006118eb565b90505b90565b6112a56106af565b6112e4576040517f08c379a00000000000000000000000000000000000000000000000000000000081526004016112db906127f6565b60405180910390fd5b6000600560006101000a81548160ff0219169083151502179055507f5db9ee0a495bf2e6ff9c91a7834c1ba4fdd244a5e8aa4e537bd38aeae4b073aa611328610ca7565b6040516113359190611f61565b60405180910390a1565b600073ffffffffffffffffffffffffffffffffffffffff168273ffffffffffffffffffffffffffffffffffffffff16036113ae576040517f08c379a00000000000000000000000000000000000000000000000000000000081526004016113a590612862565b60405180910390fd5b6113ba6000838361188e565b80600260008282546113cc9190612145565b92505081905550806000808473ffffffffffffffffffffffffffffffffffffffff1673ffffffffffffffffffffffffffffffffffffffff16815260200190815260200160002060008282546114219190612145565b925050819055508173ffffffffffffffffffffffffffffffffffffffff16600073ffffffffffffffffffffffffffffffffffffffff167fddf252ad1be2c89b69c2b068fc378daa952ba7f163c4a11628f55a4df523b3ef836040516114869190611e1f565b60405180910390a361149a600083836118e6565b5050565b600073ffffffffffffffffffffffffffffffffffffffff168273ffffffffffffffffffffffffffffffffffffffff160361150d576040517f08c379a0000000000000000000000000000000000000000000000000000000008152600401611504906128f4565b60405180910390fd5b6115198260008361188e565b60008060008473ffffffffffffffffffffffffffffffffffffffff1673ffffffffffffffffffffffffffffffffffffffff1681526020019081526020016000205490508181101561159f576040517f08c379a000000000000000000000000000000000000000000000000000000000815260040161159690612986565b60405180910390fd5b8181036000808573ffffffffffffffffffffffffffffffffffffffff1673ffffffffffffffffffffffffffffffffffffffff1681526020019081526020016000208190555081600260008282546115f691906129a6565b92505081905550600073ffffffffffffffffffffffffffffffffffffffff168373ffffffffffffffffffffffffffffffffffffffff167fddf252ad1be2c89b69c2b068fc378daa952ba7f163c4a11628f55a4df523b3ef8460405161165b9190611e1f565b60405180910390a361166f836000846118e6565b505050565b6000600560019054906101000a900473ffffffffffffffffffffffffffffffffffffffff16905081600560016101000a81548173ffffffffffffffffffffffffffffffffffffffff021916908373ffffffffffffffffffffffffffffffffffffffff1602179055508173ffffffffffffffffffffffffffffffffffffffff168173ffffffffffffffffffffffffffffffffffffffff167f8be0079c531659141344cd1fd0a4f28419497f9722a3daafe3b4186f6b6457e060405160405180910390a35050565b600081600001549050919050565b6117506106af565b15611790576040517f08c379a000000000000000000000000000000000000000000000000000000000815260040161178790612a26565b60405180910390fd5b6001600560006101000a81548160ff0219169083151502179055507f62e78cea01bee320cd4e420270b5ea74000d11b0c9f74754ebdbfc544b05a2586117d4610ca7565b6040516117e19190611f61565b60405180910390a1565b600080600660008473ffffffffffffffffffffffffffffffffffffffff1673ffffffffffffffffffffffffffffffffffffffff16815260200190815260200160002090506118388161173a565b915061184381611925565b50919050565b600061185c611856611183565b8361193b565b9050919050565b60008060006118748787878761196e565b9150915061188181611a7a565b8192505050949350505050565b6118966106af565b156118d6576040517f08c379a00000000000000000000000000000000000000000000000000000000081526004016118cd90612a26565b60405180910390fd5b6118e1838383610ca2565b505050565b505050565b60008383834630604051602001611906959493929190612a46565b6040516020818303038152906040528051906020012090509392505050565b6001816000016000828254019250508190555050565b60008282604051602001611950929190612b11565b60405160208183030381529060405280519060200120905092915050565b6000807f7fffffffffffffffffffffffffffffff5d576e7357a4501ddfe92f46681b20a08360001c11156119a9576000600391509150611a71565b601b8560ff16141580156119c15750601c8560ff1614155b156119d3576000600491509150611a71565b6000600187878787604051600081526020016040526040516119f89493929190612b48565b6020604051602081039080840390855afa158015611a1a573d6000803e3d6000fd5b505050602060405103519050600073ffffffffffffffffffffffffffffffffffffffff168173ffffffffffffffffffffffffffffffffffffffff1603611a6857600060019250925050611a71565b80600092509250505b94509492505050565b60006004811115611a8e57611a8d612b8d565b5b816004811115611aa157611aa0612b8d565b5b0315611c435760016004811115611abb57611aba612b8d565b5b816004811115611ace57611acd612b8d565b5b03611b0e576040517f08c379a0000000000000000000000000000000000000000000000000000000008152600401611b0590612c08565b60405180910390fd5b60026004811115611b2257611b21612b8d565b5b816004811115611b3557611b34612b8d565b5b03611b75576040517f08c379a0000000000000000000000000000000000000000000000000000000008152600401611b6c90612c74565b60405180910390fd5b60036004811115611b8957611b88612b8d565b5b816004811115611b9c57611b9b612b8d565b5b03611bdc576040517f08c379a0000000000000000000000000000000000000000000000000000000008152600401611bd390612d06565b60405180910390fd5b600480811115611bef57611bee612b8d565b5b816004811115611c0257611c01612b8d565b5b03611c42576040517f08c379a0000000000000000000000000000000000000000000000000000000008152600401611c3990612d98565b60405180910390fd5b5b50565b600081519050919050565b600082825260208201905092915050565b60005b83811015611c80578082015181840152602081019050611c65565b83811115611c8f576000848401525b50505050565b6000601f19601f8301169050919050565b6000611cb182611c46565b611cbb8185611c51565b9350611ccb818560208601611c62565b611cd481611c95565b840191505092915050565b60006020820190508181036000830152611cf98184611ca6565b905092915050565b600080fd5b600073ffffffffffffffffffffffffffffffffffffffff82169050919050565b6000611d3182611d06565b9050919050565b611d4181611d26565b8114611d4c57600080fd5b50565b600081359050611d5e81611d38565b92915050565b6000819050919050565b611d7781611d64565b8114611d8257600080fd5b50565b600081359050611d9481611d6e565b92915050565b60008060408385031215611db157611db0611d01565b5b6000611dbf85828601611d4f565b9250506020611dd085828601611d85565b9150509250929050565b60008115159050919050565b611def81611dda565b82525050565b6000602082019050611e0a6000830184611de6565b92915050565b611e1981611d64565b82525050565b6000602082019050611e346000830184611e10565b92915050565b600080600060608486031215611e5357611e52611d01565b5b6000611e6186828701611d4f565b9350506020611e7286828701611d4f565b9250506040611e8386828701611d85565b9150509250925092565b600060ff82169050919050565b611ea381611e8d565b82525050565b6000602082019050611ebe6000830184611e9a565b92915050565b6000819050919050565b611ed781611ec4565b82525050565b6000602082019050611ef26000830184611ece565b92915050565b600060208284031215611f0e57611f0d611d01565b5b6000611f1c84828501611d85565b91505092915050565b600060208284031215611f3b57611f3a611d01565b5b6000611f4984828501611d4f565b91505092915050565b611f5b81611d26565b82525050565b6000602082019050611f766000830184611f52565b92915050565b611f8581611e8d565b8114611f9057600080fd5b50565b600081359050611fa281611f7c565b92915050565b611fb181611ec4565b8114611fbc57600080fd5b50565b600081359050611fce81611fa8565b92915050565b600080600080600080600060e0888a031215611ff357611ff2611d01565b5b60006120018a828b01611d4f565b97505060206120128a828b01611d4f565b96505060406120238a828b01611d85565b95505060606120348a828b01611d85565b94505060806120458a828b01611f93565b93505060a06120568a828b01611fbf565b92505060c06120678a828b01611fbf565b91505092959891949750929550565b6000806040838503121561208d5761208c611d01565b5b600061209b85828601611d4f565b92505060206120ac85828601611d4f565b9150509250929050565b7f4e487b7100000000000000000000000000000000000000000000000000000000600052602260045260246000fd5b600060028204905060018216806120fd57607f821691505b6020821081036121105761210f6120b6565b5b50919050565b7f4e487b7100000000000000000000000000000000000000000000000000000000600052601160045260246000fd5b600061215082611d64565b915061215b83611d64565b9250827fffffffffffffffffffffffffffffffffffffffffffffffffffffffffffffffff038211156121905761218f612116565b5b828201905092915050565b7f4f776e61626c653a2063616c6c6572206973206e6f7420746865206f776e6572600082015250565b60006121d1602083611c51565b91506121dc8261219b565b602082019050919050565b60006020820190508181036000830152612200816121c4565b9050919050565b7f45524332303a2064656372656173656420616c6c6f77616e63652062656c6f7760008201527f207a65726f000000000000000000000000000000000000000000000000000000602082015250565b6000612263602583611c51565b915061226e82612207565b604082019050919050565b6000602082019050818103600083015261229281612256565b9050919050565b7f45524332305065726d69743a206578706972656420646561646c696e65000000600082015250565b60006122cf601d83611c51565b91506122da82612299565b602082019050919050565b600060208201905081810360008301526122fe816122c2565b9050919050565b600060c08201905061231a6000830189611ece565b6123276020830188611f52565b6123346040830187611f52565b6123416060830186611e10565b61234e6080830185611e10565b61235b60a0830184611e10565b979650505050505050565b7f45524332305065726d69743a20696e76616c6964207369676e61747572650000600082015250565b600061239c601e83611c51565b91506123a782612366565b602082019050919050565b600060208201905081810360008301526123cb8161238f565b9050919050565b7f4f776e61626c653a206e6577206f776e657220697320746865207a65726f206160008201527f6464726573730000000000000000000000000000000000000000000000000000602082015250565b600061242e602683611c51565b9150612439826123d2565b604082019050919050565b6000602082019050818103600083015261245d81612421565b9050919050565b7f45524332303a20617070726f76652066726f6d20746865207a65726f2061646460008201527f7265737300000000000000000000000000000000000000000000000000000000602082015250565b60006124c0602483611c51565b91506124cb82612464565b604082019050919050565b600060208201905081810360008301526124ef816124b3565b9050919050565b7f45524332303a20617070726f766520746f20746865207a65726f20616464726560008201527f7373000000000000000000000000000000000000000000000000000000000000602082015250565b6000612552602283611c51565b915061255d826124f6565b604082019050919050565b6000602082019050818103600083015261258181612545565b9050919050565b7f45524332303a20696e73756666696369656e7420616c6c6f77616e6365000000600082015250565b60006125be601d83611c51565b91506125c982612588565b602082019050919050565b600060208201905081810360008301526125ed816125b1565b9050919050565b7f45524332303a207472616e736665722066726f6d20746865207a65726f20616460008201527f6472657373000000000000000000000000000000000000000000000000000000602082015250565b6000612650602583611c51565b915061265b826125f4565b604082019050919050565b6000602082019050818103600083015261267f81612643565b9050919050565b7f45524332303a207472616e7366657220746f20746865207a65726f206164647260008201527f6573730000000000000000000000000000000000000000000000000000000000602082015250565b60006126e2602383611c51565b91506126ed82612686565b604082019050919050565b60006020820190508181036000830152612711816126d5565b9050919050565b7f45524332303a207472616e7366657220616d6f756e742065786365656473206260008201527f616c616e63650000000000000000000000000000000000000000000000000000602082015250565b6000612774602683611c51565b915061277f82612718565b604082019050919050565b600060208201905081810360008301526127a381612767565b9050919050565b7f5061757361626c653a206e6f7420706175736564000000000000000000000000600082015250565b60006127e0601483611c51565b91506127eb826127aa565b602082019050919050565b6000602082019050818103600083015261280f816127d3565b9050919050565b7f45524332303a206d696e7420746f20746865207a65726f206164647265737300600082015250565b600061284c601f83611c51565b915061285782612816565b602082019050919050565b6000602082019050818103600083015261287b8161283f565b9050919050565b7f45524332303a206275726e2066726f6d20746865207a65726f2061646472657360008201527f7300000000000000000000000000000000000000000000000000000000000000602082015250565b60006128de602183611c51565b91506128e982612882565b604082019050919050565b6000602082019050818103600083015261290d816128d1565b9050919050565b7f45524332303a206275726e20616d6f756e7420657863656564732062616c616e60008201527f6365000000000000000000000000000000000000000000000000000000000000602082015250565b6000612970602283611c51565b915061297b82612914565b604082019050919050565b6000602082019050818103600083015261299f81612963565b9050919050565b60006129b182611d64565b91506129bc83611d64565b9250828210156129cf576129ce612116565b5b828203905092915050565b7f5061757361626c653a2070617573656400000000000000000000000000000000600082015250565b6000612a10601083611c51565b9150612a1b826129da565b602082019050919050565b60006020820190508181036000830152612a3f81612a03565b9050919050565b600060a082019050612a5b6000830188611ece565b612a686020830187611ece565b612a756040830186611ece565b612a826060830185611e10565b612a8f6080830184611f52565b9695505050505050565b600081905092915050565b7f1901000000000000000000000000000000000000000000000000000000000000600082015250565b6000612ada600283612a99565b9150612ae582612aa4565b600282019050919050565b6000819050919050565b612b0b612b0682611ec4565b612af0565b82525050565b6000612b1c82612acd565b9150612b288285612afa565b602082019150612b388284612afa565b6020820191508190509392505050565b6000608082019050612b5d6000830187611ece565b612b6a6020830186611e9a565b612b776040830185611ece565b612b846060830184611ece565b95945050505050565b7f4e487b7100000000000000000000000000000000000000000000000000000000600052602160045260246000fd5b7f45434453413a20696e76616c6964207369676e61747572650000000000000000600082015250565b6000612bf2601883611c51565b9150612bfd82612bbc565b602082019050919050565b60006020820190508181036000830152612c2181612be5565b9050919050565b7f45434453413a20696e76616c6964207369676e6174757265206c656e67746800600082015250565b6000612c5e601f83611c51565b9150612c6982612c28565b602082019050919050565b60006020820190508181036000830152612c8d81612c51565b9050919050565b7f45434453413a20696e76616c6964207369676e6174757265202773272076616c60008201527f7565000000000000000000000000000000000000000000000000000000000000602082015250565b6000612cf0602283611c51565b9150612cfb82612c94565b604082019050919050565b60006020820190508181036000830152612d1f81612ce3565b9050919050565b7f45434453413a20696e76616c6964207369676e6174757265202776272076616c60008201527f7565000000000000000000000000000000000000000000000000000000000000602082015250565b6000612d82602283611c51565b9150612d8d82612d26565b604082019050919050565b60006020820190508181036000830152612db181612d75565b905091905056fea2646970667358221220abdc9a833e18e25ce998264ed6fed177a0f130ff884ca9b8c664da87d4f79bb364736f6c634300080d0033",
  "immutableReferences": {
    "1849": [
      {
        "length": 32,
        "start": 4614
      }
    ],
    "1851": [
      {
        "length": 32,
        "start": 4573
      }
    ],
    "1853": [
      {
        "length": 32,
        "start": 4487
      }
    ],
    "1855": [
      {
        "length": 32,
        "start": 4690
      }
    ],
    "1857": [
      {
        "length": 32,
        "start": 4723
      }
    ],
    "1859": [
      {
        "length": 32,
        "start": 4657
      }
    ]
  },
  "source": "// SPDX-License-Identifier: MIT\r\npragma solidity ^0.8.13;\r\n\r\nimport \"@openzeppelin/contracts/token/ERC20/ERC20.sol\";\r\nimport \"@openzeppelin/contracts/token/ERC20/extensions/ERC20Burnable.sol\";\r\nimport \"@openzeppelin/contracts/security/Pausable.sol\";\r\nimport \"@openzeppelin/contracts/access/Ownable.sol\";\r\nimport \"@openzeppelin/contracts/token/ERC20/extensions/draft-ERC20Permit.sol\";\r\n\r\ncontract RocketToken is ERC20, ERC20Burnable, Pausable, Ownable, ERC20Permit {\r\n    constructor() ERC20(\"RocketToken\", \"ROCKET\") ERC20Permit(\"RocketToken\") {\r\n        _mint(msg.sender, 100000);\r\n    }\r\n\r\n    function pause() public onlyOwner {\r\n        _pause();\r\n    }\r\n\r\n    function unpause() public onlyOwner {\r\n        _unpause();\r\n    }\r\n\r\n    function mint(address to, uint256 amount) public onlyOwner {\r\n        _mint(to, amount);\r\n    }\r\n\r\n    function _beforeTokenTransfer(address from, address to, uint256 amount)\r\n        internal\r\n        whenNotPaused\r\n        override\r\n    {\r\n        super._beforeTokenTransfer(from, to, amount);\r\n    }\r\n}\r\n",
  "sourcePath": "C:\\Users\\Troy Wever\\OneDrive\\Documents\\GitHub\\Rocket_Elevators_Blockchain\\contracts\\RocketToken.sol",
  "compiler": {
    "name": "solc",
    "version": "0.8.13+commit.abaa5c0e.Emscripten.clang"
  },
  "schemaVersion": "3.4.7",
  "updatedAt": "2022-05-03T16:46:23.782Z",
  "networkType": "ethereum",
  "devdoc": {
    "kind": "dev",
    "methods": {
      "DOMAIN_SEPARATOR()": {
        "details": "See {IERC20Permit-DOMAIN_SEPARATOR}."
      },
      "allowance(address,address)": {
        "details": "See {IERC20-allowance}."
      },
      "approve(address,uint256)": {
        "details": "See {IERC20-approve}. NOTE: If `amount` is the maximum `uint256`, the allowance is not updated on `transferFrom`. This is semantically equivalent to an infinite approval. Requirements: - `spender` cannot be the zero address."
      },
      "balanceOf(address)": {
        "details": "See {IERC20-balanceOf}."
      },
      "burn(uint256)": {
        "details": "Destroys `amount` tokens from the caller. See {ERC20-_burn}."
      },
      "burnFrom(address,uint256)": {
        "details": "Destroys `amount` tokens from `account`, deducting from the caller's allowance. See {ERC20-_burn} and {ERC20-allowance}. Requirements: - the caller must have allowance for ``accounts``'s tokens of at least `amount`."
      },
      "decimals()": {
        "details": "Returns the number of decimals used to get its user representation. For example, if `decimals` equals `2`, a balance of `505` tokens should be displayed to a user as `5.05` (`505 / 10 ** 2`). Tokens usually opt for a value of 18, imitating the relationship between Ether and Wei. This is the value {ERC20} uses, unless this function is overridden; NOTE: This information is only used for _display_ purposes: it in no way affects any of the arithmetic of the contract, including {IERC20-balanceOf} and {IERC20-transfer}."
      },
      "decreaseAllowance(address,uint256)": {
        "details": "Atomically decreases the allowance granted to `spender` by the caller. This is an alternative to {approve} that can be used as a mitigation for problems described in {IERC20-approve}. Emits an {Approval} event indicating the updated allowance. Requirements: - `spender` cannot be the zero address. - `spender` must have allowance for the caller of at least `subtractedValue`."
      },
      "increaseAllowance(address,uint256)": {
        "details": "Atomically increases the allowance granted to `spender` by the caller. This is an alternative to {approve} that can be used as a mitigation for problems described in {IERC20-approve}. Emits an {Approval} event indicating the updated allowance. Requirements: - `spender` cannot be the zero address."
      },
      "name()": {
        "details": "Returns the name of the token."
      },
      "nonces(address)": {
        "details": "See {IERC20Permit-nonces}."
      },
      "owner()": {
        "details": "Returns the address of the current owner."
      },
      "paused()": {
        "details": "Returns true if the contract is paused, and false otherwise."
      },
      "permit(address,address,uint256,uint256,uint8,bytes32,bytes32)": {
        "details": "See {IERC20Permit-permit}."
      },
      "renounceOwnership()": {
        "details": "Leaves the contract without owner. It will not be possible to call `onlyOwner` functions anymore. Can only be called by the current owner. NOTE: Renouncing ownership will leave the contract without an owner, thereby removing any functionality that is only available to the owner."
      },
      "symbol()": {
        "details": "Returns the symbol of the token, usually a shorter version of the name."
      },
      "totalSupply()": {
        "details": "See {IERC20-totalSupply}."
      },
      "transfer(address,uint256)": {
        "details": "See {IERC20-transfer}. Requirements: - `to` cannot be the zero address. - the caller must have a balance of at least `amount`."
      },
      "transferFrom(address,address,uint256)": {
        "details": "See {IERC20-transferFrom}. Emits an {Approval} event indicating the updated allowance. This is not required by the EIP. See the note at the beginning of {ERC20}. NOTE: Does not update the allowance if the current allowance is the maximum `uint256`. Requirements: - `from` and `to` cannot be the zero address. - `from` must have a balance of at least `amount`. - the caller must have allowance for ``from``'s tokens of at least `amount`."
      },
      "transferOwnership(address)": {
        "details": "Transfers ownership of the contract to a new account (`newOwner`). Can only be called by the current owner."
      }
    },
    "version": 1
  },
  "userdoc": {
    "kind": "user",
    "methods": {},
    "version": 1
  }
}